{
  "contractName": "cryptoPredictionPool",
  "abi": [
    {
      "inputs": [
        {
          "internalType": "address",
          "name": "_pool_address",
          "type": "address"
        }
      ],
      "stateMutability": "nonpayable",
      "type": "constructor"
    },
    {
      "inputs": [],
      "name": "fee_collected",
      "outputs": [
        {
          "internalType": "uint256",
          "name": "",
          "type": "uint256"
        }
      ],
      "stateMutability": "view",
      "type": "function",
      "constant": true
    },
    {
      "inputs": [],
      "name": "lastRebaseCreated",
      "outputs": [
        {
          "internalType": "uint256",
          "name": "",
          "type": "uint256"
        }
      ],
      "stateMutability": "view",
      "type": "function",
      "constant": true
    },
    {
      "inputs": [],
      "name": "lastcreated",
      "outputs": [
        {
          "internalType": "uint256",
          "name": "",
          "type": "uint256"
        }
      ],
      "stateMutability": "view",
      "type": "function",
      "constant": true
    },
    {
      "inputs": [],
      "name": "owner",
      "outputs": [
        {
          "internalType": "address",
          "name": "",
          "type": "address"
        }
      ],
      "stateMutability": "view",
      "type": "function",
      "constant": true
    },
    {
      "inputs": [],
      "name": "poolId",
      "outputs": [
        {
          "internalType": "uint256",
          "name": "",
          "type": "uint256"
        }
      ],
      "stateMutability": "view",
      "type": "function",
      "constant": true
    },
    {
      "inputs": [],
      "name": "pool_address",
      "outputs": [
        {
          "internalType": "contract TokenMintERC20Token",
          "name": "",
          "type": "address"
        }
      ],
      "stateMutability": "view",
      "type": "function",
      "constant": true
    },
    {
      "inputs": [],
      "name": "rebasePoolId",
      "outputs": [
        {
          "internalType": "uint256",
          "name": "",
          "type": "uint256"
        }
      ],
      "stateMutability": "view",
      "type": "function",
      "constant": true
    },
    {
      "inputs": [
        {
          "internalType": "string",
          "name": "_username",
          "type": "string"
        }
      ],
      "name": "Register",
      "outputs": [
        {
          "internalType": "bool",
          "name": "",
          "type": "bool"
        }
      ],
      "stateMutability": "nonpayable",
      "type": "function"
    },
    {
      "inputs": [
        {
          "internalType": "bool",
          "name": "_rebaseIsPositive",
          "type": "bool"
        },
        {
          "internalType": "uint256",
          "name": "_rebasePoolId",
          "type": "uint256"
        }
      ],
      "name": "callRebase",
      "outputs": [],
      "stateMutability": "nonpayable",
      "type": "function"
    },
    {
      "inputs": [
        {
          "internalType": "uint256",
          "name": "index",
          "type": "uint256"
        },
        {
          "internalType": "uint256",
          "name": "_prices",
          "type": "uint256"
        },
        {
          "internalType": "uint256",
          "name": "_percent",
          "type": "uint256"
        },
        {
          "internalType": "uint256",
          "name": "_poolId",
          "type": "uint256"
        },
        {
          "internalType": "uint256",
          "name": "_amount",
          "type": "uint256"
        }
      ],
      "name": "PlaceBet",
      "outputs": [
        {
          "internalType": "bool",
          "name": "",
          "type": "bool"
        }
      ],
      "stateMutability": "nonpayable",
      "type": "function"
    },
    {
      "inputs": [
        {
          "internalType": "address",
          "name": "_user",
          "type": "address"
        },
        {
          "internalType": "uint256",
          "name": "_poolId",
          "type": "uint256"
        },
        {
          "internalType": "uint256",
          "name": "_reward",
          "type": "uint256"
        },
        {
          "internalType": "bool",
          "name": "_isPositive",
          "type": "bool"
        }
      ],
      "name": "updatebal",
      "outputs": [
        {
          "internalType": "bool",
          "name": "",
          "type": "bool"
        }
      ],
      "stateMutability": "nonpayable",
      "type": "function"
    },
    {
      "inputs": [],
      "name": "createRebase",
      "outputs": [
        {
          "internalType": "bool",
          "name": "",
          "type": "bool"
        }
      ],
      "stateMutability": "nonpayable",
      "type": "function"
    },
    {
      "inputs": [
        {
          "internalType": "uint256[15]",
          "name": "_prices",
          "type": "uint256[15]"
        }
      ],
      "name": "createPool",
      "outputs": [
        {
          "internalType": "bool",
          "name": "",
          "type": "bool"
        }
      ],
      "stateMutability": "nonpayable",
      "type": "function"
    },
    {
      "inputs": [
        {
          "internalType": "address",
          "name": "new_owner",
          "type": "address"
        }
      ],
      "name": "updateowner",
      "outputs": [
        {
          "internalType": "bool",
          "name": "",
          "type": "bool"
        }
      ],
      "stateMutability": "nonpayable",
      "type": "function"
    },
    {
      "inputs": [
        {
          "internalType": "uint256",
          "name": "_timestamp",
          "type": "uint256"
        }
      ],
      "name": "updatetime",
      "outputs": [
        {
          "internalType": "bool",
          "name": "",
          "type": "bool"
        }
      ],
      "stateMutability": "nonpayable",
      "type": "function"
    },
    {
      "inputs": [],
      "name": "withdraw",
      "outputs": [
        {
          "internalType": "bool",
          "name": "",
          "type": "bool"
        }
      ],
      "stateMutability": "nonpayable",
      "type": "function"
    },
    {
      "inputs": [
        {
          "internalType": "address",
          "name": "_user",
          "type": "address"
        }
      ],
      "name": "fetchUser",
      "outputs": [
        {
          "internalType": "uint256[]",
          "name": "_pools",
          "type": "uint256[]"
        },
        {
          "internalType": "string",
          "name": "username",
          "type": "string"
        },
        {
          "internalType": "uint256",
          "name": "claimable",
          "type": "uint256"
        },
        {
          "internalType": "uint256",
          "name": "staked_balance",
          "type": "uint256"
        },
        {
          "internalType": "bool",
          "name": "active",
          "type": "bool"
        }
      ],
      "stateMutability": "view",
      "type": "function",
      "constant": true
    },
    {
      "inputs": [
        {
          "internalType": "uint256",
          "name": "_RebasePoolId",
          "type": "uint256"
        }
      ],
      "name": "fetchRebasePool",
      "outputs": [
        {
          "internalType": "uint256",
          "name": "_NumberOfOccurances",
          "type": "uint256"
        },
        {
          "internalType": "uint256",
          "name": "_numberOfPositiveDates",
          "type": "uint256"
        },
        {
          "internalType": "uint256",
          "name": "_createdTime",
          "type": "uint256"
        },
        {
          "internalType": "uint256",
          "name": "_endingTime",
          "type": "uint256"
        }
      ],
      "stateMutability": "view",
      "type": "function",
      "constant": true
    },
    {
      "inputs": [
        {
          "internalType": "uint256",
          "name": "_poolId",
          "type": "uint256"
        }
      ],
      "name": "fetchPool",
      "outputs": [
        {
          "internalType": "uint256[15]",
          "name": "_prices",
          "type": "uint256[15]"
        },
        {
          "internalType": "uint256",
          "name": "_start",
          "type": "uint256"
        },
        {
          "internalType": "uint256",
          "name": "_end",
          "type": "uint256"
        },
        {
          "internalType": "uint256",
          "name": "_staking_ends",
          "type": "uint256"
        }
      ],
      "stateMutability": "view",
      "type": "function",
      "constant": true
    },
    {
      "inputs": [
        {
          "internalType": "address",
          "name": "_user",
          "type": "address"
        },
        {
          "internalType": "uint256",
          "name": "_poolId",
          "type": "uint256"
        }
      ],
      "name": "fetchUserBets",
      "outputs": [
        {
          "internalType": "uint256[15]",
          "name": "_pools",
          "type": "uint256[15]"
        },
        {
          "internalType": "uint256[15]",
          "name": "_prices",
          "type": "uint256[15]"
        },
        {
          "internalType": "uint256[15]",
          "name": "_amounts",
          "type": "uint256[15]"
        },
        {
          "internalType": "uint256",
          "name": "balance",
          "type": "uint256"
        },
        {
          "internalType": "uint256",
          "name": "totalbet",
          "type": "uint256"
        }
      ],
      "stateMutability": "view",
      "type": "function",
      "constant": true
    },
    {
      "inputs": [
        {
          "internalType": "uint256",
          "name": "_poolId",
          "type": "uint256"
        }
      ],
      "name": "fetchUserInPool",
      "outputs": [
        {
          "internalType": "address[]",
          "name": "_betters",
          "type": "address[]"
        }
      ],
      "stateMutability": "view",
      "type": "function",
      "constant": true
    },
    {
      "inputs": [],
      "name": "collectdeveloperfee",
      "outputs": [
        {
          "internalType": "bool",
          "name": "",
          "type": "bool"
        }
      ],
      "stateMutability": "nonpayable",
      "type": "function"
    }
  ],
  "bytecode": "0x60806040526001805560016002553480156200001a57600080fd5b506040516200385638038062003856833981810160405281019062000040919062000142565b600160008190555033600360006101000a81548173ffffffffffffffffffffffffffffffffffffffff021916908373ffffffffffffffffffffffffffffffffffffffff16021790555080600460006101000a81548173ffffffffffffffffffffffffffffffffffffffff021916908373ffffffffffffffffffffffffffffffffffffffff160217905550426006819055505062000174565b600080fd5b600073ffffffffffffffffffffffffffffffffffffffff82169050919050565b60006200010a82620000dd565b9050919050565b6200011c81620000fd565b81146200012857600080fd5b50565b6000815190506200013c8162000111565b92915050565b6000602082840312156200015b576200015a620000d8565b5b60006200016b848285016200012b565b91505092915050565b6136d280620001846000396000f3fe608060405234801561001057600080fd5b50600436106101425760003560e01c80638da5cb5b116100b8578063be6f0ea21161007c578063be6f0ea2146103bf578063d75c50d5146103f3578063e423dcee14610411578063ee0145161461042f578063f0e83a451461045f578063fd183ed51461048f57610142565b80638da5cb5b1461030257806399018f6514610320578063a6d8f0bc1461033e578063adb039251461036e578063b50463861461038c57610142565b806340b2d3af1161010a57806340b2d3af146102165780634755abbb14610246578063530f2f56146102645780636a628a0d1461029857806381fac0f0146102b65780638327edf3146102d257610142565b8063033ded98146101475780630aa7a1801461017a578063103260c4146101aa5780633ccfd60b146101da5780633e0dc34e146101f8575b600080fd5b610161600480360381019061015c9190611fde565b6104ad565b604051610171949392919061201a565b60405180910390f35b610194600480360381019061018f91906121a6565b6104ee565b6040516101a191906121ef565b60405180910390f35b6101c460048036038101906101bf919061220a565b61065c565b6040516101d191906121ef565b60405180910390f35b6101e2610c40565b6040516101ef91906121ef565b60405180910390f35b610200610e31565b60405161020d9190612285565b60405180910390f35b610230600480360381019061022b9190612355565b610e37565b60405161023d91906121ef565b60405180910390f35b61024e610f13565b60405161025b919061241d565b60405180910390f35b61027e60048036038101906102799190612476565b610f39565b60405161028f959493929190612561565b60405180910390f35b6102a0611090565b6040516102ad9190612285565b60405180910390f35b6102d060048036038101906102cb91906125e5565b611096565b005b6102ec60048036038101906102e79190612625565b61120a565b6040516102f991906121ef565b60405180910390f35b61030a6112e6565b6040516103179190612661565b60405180910390f35b61032861130c565b6040516103359190612285565b60405180910390f35b6103586004803603810190610353919061267c565b611312565b60405161036591906121ef565b60405180910390f35b61037661168c565b6040516103839190612285565b60405180910390f35b6103a660048036038101906103a19190611fde565b611692565b6040516103b694939291906126e3565b60405180910390f35b6103d960048036038101906103d49190612625565b611717565b6040516103ea95949392919061284b565b60405180910390f35b6103fb611877565b60405161040891906121ef565b60405180910390f35b610419611a11565b6040516104269190612285565b60405180910390f35b61044960048036038101906104449190611fde565b611a17565b604051610456919061296a565b60405180910390f35b61047960048036038101906104749190611fde565b611ac1565b60405161048691906121ef565b60405180910390f35b610497611b63565b6040516104a491906121ef565b60405180910390f35b6000806000806000600d6000878152602001908152602001600020905080600001548160010154826002015483600301549450945094509450509193509193565b6000600360009054906101000a900473ffffffffffffffffffffffffffffffffffffffff1673ffffffffffffffffffffffffffffffffffffffff163373ffffffffffffffffffffffffffffffffffffffff1614610580576040517f08c379a0000000000000000000000000000000000000000000000000000000008152600401610577906129d8565b60405180910390fd5b620151806007546105919190612a27565b42116105d2576040517f08c379a00000000000000000000000000000000000000000000000000000000081526004016105c990612ac9565b60405180910390fd5b6000600a600060015481526020019081526020016000209050828160000190600f6105fe929190611e8e565b504281600f018190555042600781905550426006819055506106234262015180611ca0565b81601101819055506106374261a8c0611ca0565b816010018190555061064c6001546001611ca0565b6001819055506001915050919050565b60006001548311156106a3576040517f08c379a000000000000000000000000000000000000000000000000000000000815260040161069a90612b35565b60405180910390fd5b81600460009054906101000a900473ffffffffffffffffffffffffffffffffffffffff1673ffffffffffffffffffffffffffffffffffffffff1663dd62ed3e33306040518363ffffffff1660e01b8152600401610701929190612b55565b602060405180830381865afa15801561071e573d6000803e3d6000fd5b505050506040513d601f19601f820116820180604052508101906107429190612b93565b1015610783576040517f08c379a000000000000000000000000000000000000000000000000000000000815260040161077a90612c0c565b60405180910390fd5b6000600a600085815260200190815260200160002090506000600c6000868152602001908152602001600020905042826010015410156107f8576040517f08c379a00000000000000000000000000000000000000000000000000000000081526004016107ef90612c78565b60405180910390fd5b6000600b60003373ffffffffffffffffffffffffffffffffffffffff1673ffffffffffffffffffffffffffffffffffffffff1681526020019081526020016000209050600115158160040160009054906101000a900460ff16151514610893576040517f08c379a000000000000000000000000000000000000000000000000000000000815260040161088a90612ce4565b60405180910390fd5b6000600960003373ffffffffffffffffffffffffffffffffffffffff1673ffffffffffffffffffffffffffffffffffffffff168152602001908152602001600020600088815260200190815260200160002090506000816000018b600f81106108ff576108fe612d04565b5b015414610941576040517f08c379a000000000000000000000000000000000000000000000000000000000815260040161093890612d7f565b60405180910390fd5b6000151581602d0160009054906101000a900460ff1615151415610a2557600460009054906101000a900473ffffffffffffffffffffffffffffffffffffffff1673ffffffffffffffffffffffffffffffffffffffff166370a08231336040518263ffffffff1660e01b81526004016109ba9190612661565b602060405180830381865afa1580156109d7573d6000803e3d6000fd5b505050506040513d601f19601f820116820180604052508101906109fb9190612b93565b81602e0181905550600181602d0160006101000a81548160ff021916908315150217905550610a7a565b80602e0154610a3882602f015488611ca0565b1115610a79576040517f08c379a0000000000000000000000000000000000000000000000000000000008152600401610a7090612deb565b60405180910390fd5b5b81600001879080600181540180825580915050600190039060005260206000200160009091909190915055610ab3826002015487611ca0565b826002018190555087816000018b600f8110610ad257610ad1612d04565b5b01819055508881601e018b600f8110610aee57610aed612d04565b5b01819055508581600f018b600f8110610b0a57610b09612d04565b5b01819055508581602f0154610b1f9190612a27565b81602f018190555082600001339080600181540180825580915050600190039060005260206000200160009091909190916101000a81548173ffffffffffffffffffffffffffffffffffffffff021916908373ffffffffffffffffffffffffffffffffffffffff160217905550600460009054906101000a900473ffffffffffffffffffffffffffffffffffffffff1673ffffffffffffffffffffffffffffffffffffffff166323b872dd3330896040518463ffffffff1660e01b8152600401610beb93929190612e0b565b6020604051808303816000875af1158015610c0a573d6000803e3d6000fd5b505050506040513d601f19601f82011682018060405250810190610c2e9190612e57565b50600194505050505095945050505050565b600060026000541415610c88576040517f08c379a0000000000000000000000000000000000000000000000000000000008152600401610c7f90612ed0565b60405180910390fd5b60026000819055506000600b60003373ffffffffffffffffffffffffffffffffffffffff1673ffffffffffffffffffffffffffffffffffffffff1681526020019081526020016000209050600115158160040160009054906101000a900460ff16151514610d2b576040517f08c379a0000000000000000000000000000000000000000000000000000000008152600401610d2290612f3c565b60405180910390fd5b6000816003015411610d72576040517f08c379a0000000000000000000000000000000000000000000000000000000008152600401610d6990612fa8565b60405180910390fd5b600460009054906101000a900473ffffffffffffffffffffffffffffffffffffffff1673ffffffffffffffffffffffffffffffffffffffff1663a9059cbb3383600301546040518363ffffffff1660e01b8152600401610dd3929190612fc8565b6020604051808303816000875af1158015610df2573d6000803e3d6000fd5b505050506040513d601f19601f82011682018060405250810190610e169190612e57565b50600081600301819055506001915050600160008190555090565b60015481565b600080600b60003373ffffffffffffffffffffffffffffffffffffffff1673ffffffffffffffffffffffffffffffffffffffff1681526020019081526020016000209050600015158160040160009054906101000a900460ff16151514610ed3576040517f08c379a0000000000000000000000000000000000000000000000000000000008152600401610eca9061303d565b60405180910390fd5b60018160040160006101000a81548160ff02191690831515021790555082816001019080519060200190610f08929190611ece565b506001915050919050565b600460009054906101000a900473ffffffffffffffffffffffffffffffffffffffff1681565b610f41611f54565b610f49611f54565b610f51611f54565b6000806000600960008973ffffffffffffffffffffffffffffffffffffffff1673ffffffffffffffffffffffffffffffffffffffff168152602001908152602001600020600088815260200190815260200160002090508060000181601e0182600f0183602e015484602f015484600f806020026040519081016040528092919082600f8015610ff6576020028201915b815481526020019060010190808311610fe2575b5050505050945083600f806020026040519081016040528092919082600f8015611035576020028201915b815481526020019060010190808311611021575b5050505050935082600f806020026040519081016040528092919082600f8015611074576020028201915b815481526020019060010190808311611060575b5050505050925095509550955095509550509295509295909350565b60055481565b600360009054906101000a900473ffffffffffffffffffffffffffffffffffffffff1673ffffffffffffffffffffffffffffffffffffffff163373ffffffffffffffffffffffffffffffffffffffff1614611126576040517f08c379a000000000000000000000000000000000000000000000000000000000815260040161111d906129d8565b60405180910390fd5b60025481111561116b576040517f08c379a0000000000000000000000000000000000000000000000000000000008152600401611162906130a9565b60405180910390fd5b6000600d6000838152602001908152602001600020905042816003015410156111c9576040517f08c379a00000000000000000000000000000000000000000000000000000000081526004016111c090612c78565b60405180910390fd5b6111d881600001546001611ca0565b8160000181905550600115158315151415611205576111fc81600101546001611ca0565b81600101819055505b505050565b6000600360009054906101000a900473ffffffffffffffffffffffffffffffffffffffff1673ffffffffffffffffffffffffffffffffffffffff163373ffffffffffffffffffffffffffffffffffffffff161461129c576040517f08c379a000000000000000000000000000000000000000000000000000000000815260040161129390613115565b60405180910390fd5b81600360006101000a81548173ffffffffffffffffffffffffffffffffffffffff021916908373ffffffffffffffffffffffffffffffffffffffff16021790555060019050919050565b600360009054906101000a900473ffffffffffffffffffffffffffffffffffffffff1681565b60025481565b6000600360009054906101000a900473ffffffffffffffffffffffffffffffffffffffff1673ffffffffffffffffffffffffffffffffffffffff163373ffffffffffffffffffffffffffffffffffffffff16146113a4576040517f08c379a000000000000000000000000000000000000000000000000000000000815260040161139b906129d8565b60405180910390fd5b623d09008311156113ea576040517f08c379a00000000000000000000000000000000000000000000000000000000081526004016113e190613181565b60405180910390fd5b6000600b60008773ffffffffffffffffffffffffffffffffffffffff1673ffffffffffffffffffffffffffffffffffffffff1681526020019081526020016000209050600115158160040160009054906101000a900460ff16151514611485576040517f08c379a000000000000000000000000000000000000000000000000000000000815260040161147c90612f3c565b60405180910390fd5b6000600960008873ffffffffffffffffffffffffffffffffffffffff1673ffffffffffffffffffffffffffffffffffffffff16815260200190815260200160002060008781526020019081526020016000209050600015158160300160009054906101000a900460ff16151514611531576040517f08c379a0000000000000000000000000000000000000000000000000000000008152600401611528906131ed565b60405180910390fd5b6001151584151514156115f75761154c8582602f0154611cfe565b600061155986605a611d56565b90506000611568826064611dd1565b9050600061157a84602f015483611d56565b9050600061158c826305f5e100611dd1565b9050600061159e86602f015483611ca0565b905060018660300160006101000a81548160ff0219169083151502179055506115cb818860030154611ca0565b87600301819055506115e5876002015487602f0154611e2f565b8760020181905550505050505061167e565b600061160782602f015487611d56565b90506000611619826305f5e100611dd1565b9050600061162b84602f015483611e2f565b905060018460300160006101000a81548160ff021916908315150217905550611658818660030154611ca0565b8560030181905550611672856002015485602f0154611e2f565b85600201819055505050505b600192505050949350505050565b60085481565b61169a611f54565b600080600080600a600087815260200190815260200160002090508060000181600f01548260110154836010015483600f806020026040519081016040528092919082600f8015611700576020028201915b8154815260200190600101908083116116ec575b505050505093509450945094509450509193509193565b606080600080600080600b60008873ffffffffffffffffffffffffffffffffffffffff1673ffffffffffffffffffffffffffffffffffffffff16815260200190815260200160002090508060000181600101826003015483600201548460040160009054906101000a900460ff16848054806020026020016040519081016040528092919081815260200182805480156117d057602002820191906000526020600020905b8154815260200190600101908083116117bc575b505050505094508380546117e39061323c565b80601f016020809104026020016040519081016040528092919081815260200182805461180f9061323c565b801561185c5780601f106118315761010080835404028352916020019161185c565b820191906000526020600020905b81548152906001019060200180831161183f57829003601f168201915b50505050509350955095509550955095505091939590929450565b6000600260005414156118bf576040517f08c379a00000000000000000000000000000000000000000000000000000000081526004016118b690612ed0565b60405180910390fd5b6002600081905550600360009054906101000a900473ffffffffffffffffffffffffffffffffffffffff1673ffffffffffffffffffffffffffffffffffffffff163373ffffffffffffffffffffffffffffffffffffffff1614611957576040517f08c379a000000000000000000000000000000000000000000000000000000000815260040161194e906132ba565b60405180910390fd5b600460009054906101000a900473ffffffffffffffffffffffffffffffffffffffff1673ffffffffffffffffffffffffffffffffffffffff1663a9059cbb336005546040518363ffffffff1660e01b81526004016119b6929190612fc8565b6020604051808303816000875af11580156119d5573d6000803e3d6000fd5b505050506040513d601f19601f820116820180604052508101906119f99190612e57565b50600060058190555060019050600160008190555090565b60065481565b60606000600c6000848152602001908152602001600020905080600001805480602002602001604051908101604052809291908181526020018280548015611ab457602002820191906000526020600020905b8160009054906101000a900473ffffffffffffffffffffffffffffffffffffffff1673ffffffffffffffffffffffffffffffffffffffff1681526020019060010190808311611a6a575b5050505050915050919050565b6000600360009054906101000a900473ffffffffffffffffffffffffffffffffffffffff1673ffffffffffffffffffffffffffffffffffffffff163373ffffffffffffffffffffffffffffffffffffffff1614611b53576040517f08c379a0000000000000000000000000000000000000000000000000000000008152600401611b4a90613326565b60405180910390fd5b8160068190555060019050919050565b6000600360009054906101000a900473ffffffffffffffffffffffffffffffffffffffff1673ffffffffffffffffffffffffffffffffffffffff163373ffffffffffffffffffffffffffffffffffffffff1614611bf5576040517f08c379a0000000000000000000000000000000000000000000000000000000008152600401611bec906129d8565b60405180910390fd5b62278d00600854611c069190612a27565b4211611c47576040517f08c379a0000000000000000000000000000000000000000000000000000000008152600401611c3e906133b8565b60405180910390fd5b6000600d60006002548152602001908152602001600020905042816002018190555042600881905550611c7d4262278d00611ca0565b8160030181905550611c926002546001611ca0565b600281905550600191505090565b6000808284611caf9190612a27565b905083811015611cf4576040517f08c379a0000000000000000000000000000000000000000000000000000000008152600401611ceb90613424565b60405180910390fd5b8091505092915050565b6000611d0b83600a611d56565b90506000611d1a826064611dd1565b90506000611d288483611d56565b90506000611d3a826305f5e100611dd1565b9050611d4860055482611ca0565b600581905550505050505050565b600080831415611d695760009050611dcb565b60008284611d779190613444565b9050828482611d8691906134cd565b14611dc6576040517f08c379a0000000000000000000000000000000000000000000000000000000008152600401611dbd90613570565b60405180910390fd5b809150505b92915050565b6000808211611e15576040517f08c379a0000000000000000000000000000000000000000000000000000000008152600401611e0c906135dc565b60405180910390fd5b60008284611e2391906134cd565b90508091505092915050565b600082821115611e74576040517f08c379a0000000000000000000000000000000000000000000000000000000008152600401611e6b90613648565b60405180910390fd5b60008284611e829190613668565b90508091505092915050565b82600f8101928215611ebd579160200282015b82811115611ebc578251825591602001919060010190611ea1565b5b509050611eca9190611f77565b5090565b828054611eda9061323c565b90600052602060002090601f016020900481019282611efc5760008555611f43565b82601f10611f1557805160ff1916838001178555611f43565b82800160010185558215611f43579182015b82811115611f42578251825591602001919060010190611f27565b5b509050611f509190611f77565b5090565b604051806101e00160405280600f90602082028036833780820191505090505090565b5b80821115611f90576000816000905550600101611f78565b5090565b6000604051905090565b600080fd5b600080fd5b6000819050919050565b611fbb81611fa8565b8114611fc657600080fd5b50565b600081359050611fd881611fb2565b92915050565b600060208284031215611ff457611ff3611f9e565b5b600061200284828501611fc9565b91505092915050565b61201481611fa8565b82525050565b600060808201905061202f600083018761200b565b61203c602083018661200b565b612049604083018561200b565b612056606083018461200b565b95945050505050565b600080fd5b6000601f19601f8301169050919050565b7f4e487b7100000000000000000000000000000000000000000000000000000000600052604160045260246000fd5b6120ad82612064565b810181811067ffffffffffffffff821117156120cc576120cb612075565b5b80604052505050565b60006120df611f94565b90506120eb82826120a4565b919050565b600067ffffffffffffffff82111561210b5761210a612075565b5b602082029050919050565b600080fd5b600061212e612129846120f0565b6120d5565b9050806020840283018581111561214857612147612116565b5b835b81811015612171578061215d8882611fc9565b84526020840193505060208101905061214a565b5050509392505050565b600082601f8301126121905761218f61205f565b5b600f61219d84828561211b565b91505092915050565b60006101e082840312156121bd576121bc611f9e565b5b60006121cb8482850161217b565b91505092915050565b60008115159050919050565b6121e9816121d4565b82525050565b600060208201905061220460008301846121e0565b92915050565b600080600080600060a0868803121561222657612225611f9e565b5b600061223488828901611fc9565b955050602061224588828901611fc9565b945050604061225688828901611fc9565b935050606061226788828901611fc9565b925050608061227888828901611fc9565b9150509295509295909350565b600060208201905061229a600083018461200b565b92915050565b600080fd5b600067ffffffffffffffff8211156122c0576122bf612075565b5b6122c982612064565b9050602081019050919050565b82818337600083830152505050565b60006122f86122f3846122a5565b6120d5565b905082815260208101848484011115612314576123136122a0565b5b61231f8482856122d6565b509392505050565b600082601f83011261233c5761233b61205f565b5b813561234c8482602086016122e5565b91505092915050565b60006020828403121561236b5761236a611f9e565b5b600082013567ffffffffffffffff81111561238957612388611fa3565b5b61239584828501612327565b91505092915050565b600073ffffffffffffffffffffffffffffffffffffffff82169050919050565b6000819050919050565b60006123e36123de6123d98461239e565b6123be565b61239e565b9050919050565b60006123f5826123c8565b9050919050565b6000612407826123ea565b9050919050565b612417816123fc565b82525050565b6000602082019050612432600083018461240e565b92915050565b60006124438261239e565b9050919050565b61245381612438565b811461245e57600080fd5b50565b6000813590506124708161244a565b92915050565b6000806040838503121561248d5761248c611f9e565b5b600061249b85828601612461565b92505060206124ac85828601611fc9565b9150509250929050565b6000600f9050919050565b600081905092915050565b6000819050919050565b6124df81611fa8565b82525050565b60006124f183836124d6565b60208301905092915050565b6000602082019050919050565b612513816124b6565b61251d81846124c1565b9250612528826124cc565b8060005b8381101561255957815161254087826124e5565b965061254b836124fd565b92505060018101905061252c565b505050505050565b60006105e082019050612577600083018861250a565b6125856101e083018761250a565b6125936103c083018661250a565b6125a16105a083018561200b565b6125af6105c083018461200b565b9695505050505050565b6125c2816121d4565b81146125cd57600080fd5b50565b6000813590506125df816125b9565b92915050565b600080604083850312156125fc576125fb611f9e565b5b600061260a858286016125d0565b925050602061261b85828601611fc9565b9150509250929050565b60006020828403121561263b5761263a611f9e565b5b600061264984828501612461565b91505092915050565b61265b81612438565b82525050565b60006020820190506126766000830184612652565b92915050565b6000806000806080858703121561269657612695611f9e565b5b60006126a487828801612461565b94505060206126b587828801611fc9565b93505060406126c687828801611fc9565b92505060606126d7878288016125d0565b91505092959194509250565b6000610240820190506126f9600083018761250a565b6127076101e083018661200b565b61271561020083018561200b565b61272361022083018461200b565b95945050505050565b600081519050919050565b600082825260208201905092915050565b6000819050602082019050919050565b6000602082019050919050565b60006127708261272c565b61277a8185612737565b935061278583612748565b8060005b838110156127b657815161279d88826124e5565b97506127a883612758565b925050600181019050612789565b5085935050505092915050565b600081519050919050565b600082825260208201905092915050565b60005b838110156127fd5780820151818401526020810190506127e2565b8381111561280c576000848401525b50505050565b600061281d826127c3565b61282781856127ce565b93506128378185602086016127df565b61284081612064565b840191505092915050565b600060a08201905081810360008301526128658188612765565b905081810360208301526128798187612812565b9050612888604083018661200b565b612895606083018561200b565b6128a260808301846121e0565b9695505050505050565b600081519050919050565b600082825260208201905092915050565b6000819050602082019050919050565b6128e181612438565b82525050565b60006128f383836128d8565b60208301905092915050565b6000602082019050919050565b6000612917826128ac565b61292181856128b7565b935061292c836128c8565b8060005b8381101561295d57815161294488826128e7565b975061294f836128ff565b925050600181019050612930565b5085935050505092915050565b60006020820190508181036000830152612984818461290c565b905092915050565b7f4e6f74204f776e65720000000000000000000000000000000000000000000000600082015250565b60006129c26009836127ce565b91506129cd8261298c565b602082019050919050565b600060208201905081810360008301526129f1816129b5565b9050919050565b7f4e487b7100000000000000000000000000000000000000000000000000000000600052601160045260246000fd5b6000612a3282611fa8565b9150612a3d83611fa8565b9250827fffffffffffffffffffffffffffffffffffffffffffffffffffffffffffffffff03821115612a7257612a716129f8565b5b828201905092915050565b7f43616e6e6f742043726561746500000000000000000000000000000000000000600082015250565b6000612ab3600d836127ce565b9150612abe82612a7d565b602082019050919050565b60006020820190508181036000830152612ae281612aa6565b9050919050565b7f496e76616c696420506f6f6c0000000000000000000000000000000000000000600082015250565b6000612b1f600c836127ce565b9150612b2a82612ae9565b602082019050919050565b60006020820190508181036000830152612b4e81612b12565b9050919050565b6000604082019050612b6a6000830185612652565b612b776020830184612652565b9392505050565b600081519050612b8d81611fb2565b92915050565b600060208284031215612ba957612ba8611f9e565b5b6000612bb784828501612b7e565b91505092915050565b7f417070726f76616c206661696c65640000000000000000000000000000000000600082015250565b6000612bf6600f836127ce565b9150612c0182612bc0565b602082019050919050565b60006020820190508181036000830152612c2581612be9565b9050919050565b7f456e646564000000000000000000000000000000000000000000000000000000600082015250565b6000612c626005836127ce565b9150612c6d82612c2c565b602082019050919050565b60006020820190508181036000830152612c9181612c55565b9050919050565b7f526567697374657220746f207061727469636970617465000000000000000000600082015250565b6000612cce6017836127ce565b9150612cd982612c98565b602082019050919050565b60006020820190508181036000830152612cfd81612cc1565b9050919050565b7f4e487b7100000000000000000000000000000000000000000000000000000000600052603260045260246000fd5b7f416c726561647920426574746564000000000000000000000000000000000000600082015250565b6000612d69600e836127ce565b9150612d7482612d33565b602082019050919050565b60006020820190508181036000830152612d9881612d5c565b9050919050565b7f5468726573686f6c642052656163686564000000000000000000000000000000600082015250565b6000612dd56011836127ce565b9150612de082612d9f565b602082019050919050565b60006020820190508181036000830152612e0481612dc8565b9050919050565b6000606082019050612e206000830186612652565b612e2d6020830185612652565b612e3a604083018461200b565b949350505050565b600081519050612e51816125b9565b92915050565b600060208284031215612e6d57612e6c611f9e565b5b6000612e7b84828501612e42565b91505092915050565b7f5265656e7472616e637947756172643a207265656e7472616e742063616c6c00600082015250565b6000612eba601f836127ce565b9150612ec582612e84565b602082019050919050565b60006020820190508181036000830152612ee981612ead565b9050919050565b7f496e76616c696420557365720000000000000000000000000000000000000000600082015250565b6000612f26600c836127ce565b9150612f3182612ef0565b602082019050919050565b60006020820190508181036000830152612f5581612f19565b9050919050565b7f4e6f2062616c0000000000000000000000000000000000000000000000000000600082015250565b6000612f926006836127ce565b9150612f9d82612f5c565b602082019050919050565b60006020820190508181036000830152612fc181612f85565b9050919050565b6000604082019050612fdd6000830185612652565b612fea602083018461200b565b9392505050565b7f4578697374696e67205573657200000000000000000000000000000000000000600082015250565b6000613027600d836127ce565b915061303282612ff1565b602082019050919050565b600060208201905081810360008301526130568161301a565b9050919050565b7f496e76616c696400000000000000000000000000000000000000000000000000600082015250565b60006130936007836127ce565b915061309e8261305d565b602082019050919050565b600060208201905081810360008301526130c281613086565b9050919050565b7f4e6f7420616e204f776e65720000000000000000000000000000000000000000600082015250565b60006130ff600c836127ce565b915061310a826130c9565b602082019050919050565b6000602082019050818103600083015261312e816130f2565b9050919050565b7f496e76616c6964205265776172642050657263656e7400000000000000000000600082015250565b600061316b6016836127ce565b915061317682613135565b602082019050919050565b6000602082019050818103600083015261319a8161315e565b9050919050565b7f416c726561647920436c61696d65640000000000000000000000000000000000600082015250565b60006131d7600f836127ce565b91506131e2826131a1565b602082019050919050565b60006020820190508181036000830152613206816131ca565b9050919050565b7f4e487b7100000000000000000000000000000000000000000000000000000000600052602260045260246000fd5b6000600282049050600182168061325457607f821691505b602082108114156132685761326761320d565b5b50919050565b7f546f20426520436c61696d656420427920446576656c6f706572000000000000600082015250565b60006132a4601a836127ce565b91506132af8261326e565b602082019050919050565b600060208201905081810360008301526132d381613297565b9050919050565b7f4e6f7420616e206f776e65720000000000000000000000000000000000000000600082015250565b6000613310600c836127ce565b915061331b826132da565b602082019050919050565b6000602082019050818103600083015261333f81613303565b9050919050565b7f63616e6e6f7420637265617465206e6577206f6e65206265666f72652033302060008201527f64617973206379636c6500000000000000000000000000000000000000000000602082015250565b60006133a2602a836127ce565b91506133ad82613346565b604082019050919050565b600060208201905081810360008301526133d181613395565b9050919050565b7f536166654d6174683a206164646974696f6e206f766572666c6f770000000000600082015250565b600061340e601b836127ce565b9150613419826133d8565b602082019050919050565b6000602082019050818103600083015261343d81613401565b9050919050565b600061344f82611fa8565b915061345a83611fa8565b9250817fffffffffffffffffffffffffffffffffffffffffffffffffffffffffffffffff0483118215151615613493576134926129f8565b5b828202905092915050565b7f4e487b7100000000000000000000000000000000000000000000000000000000600052601260045260246000fd5b60006134d882611fa8565b91506134e383611fa8565b9250826134f3576134f261349e565b5b828204905092915050565b7f536166654d6174683a206d756c7469706c69636174696f6e206f766572666c6f60008201527f7700000000000000000000000000000000000000000000000000000000000000602082015250565b600061355a6021836127ce565b9150613565826134fe565b604082019050919050565b600060208201905081810360008301526135898161354d565b9050919050565b7f536166654d6174683a206469766973696f6e206279207a65726f000000000000600082015250565b60006135c6601a836127ce565b91506135d182613590565b602082019050919050565b600060208201905081810360008301526135f5816135b9565b9050919050565b7f536166654d6174683a207375627472616374696f6e206f766572666c6f770000600082015250565b6000613632601e836127ce565b915061363d826135fc565b602082019050919050565b6000602082019050818103600083015261366181613625565b9050919050565b600061367382611fa8565b915061367e83611fa8565b925082821015613691576136906129f8565b5b82820390509291505056fea2646970667358221220168299a09ccea5c11559e952d95ae97597ab245814f305ca5bfbe15597f5cd9364736f6c634300080c0033",
  "immutableReferences": {},
  "source": "/**\n *Submitted for verification at Etherscan.io on 2022-02-24\n*/\n\n/**\n *Submitted for verification at Etherscan.io on 2020-12-07\n*/\n\n// SPDX-License-Identifier: UNLICENSED\n\n\n// File: contracts\\open-zeppelin-contracts\\token\\ERC20\\IERC20.sol\n\npragma solidity >=0.5.0;\n\ncontract ReentrancyGuard {\n    // Booleans are more expensive than uint256 or any type that takes up a full\n    // word because each write operation emits an extra SLOAD to first read the\n    // slot's contents, replace the bits taken up by the boolean, and then write\n    // back. This is the compiler's defense against contract upgrades and\n    // pointer aliasing, and it cannot be disabled.\n\n    // The values being non-zero value makes deployment a bit more expensive,\n    // but in exchange the refund on every call to nonReentrant will be lower in\n    // amount. Since refunds are capped to a percentage of the total\n    // transaction's gas, it is best to keep them low in cases like this one, to\n    // increase the likelihood of the full refund coming into effect.\n    uint256 private constant _NOT_ENTERED = 1;\n    uint256 private constant _ENTERED = 2;\n\n    uint256 private _status;\n\n    constructor ()  {\n        _status = _NOT_ENTERED;\n    }\n\n    /**\n     * @dev Prevents a contract from calling itself, directly or indirectly.\n     * Calling a `nonReentrant` function from another `nonReentrant`\n     * function is not supported. It is possible to prevent this from happening\n     * by making the `nonReentrant` function external, and make it call a\n     * `private` function that does the actual work.\n     */\n    modifier nonReentrant() {\n        // On the first call to nonReentrant, _notEntered will be true\n        require(_status != _ENTERED, \"ReentrancyGuard: reentrant call\");\n\n        // Any calls to nonReentrant after this point will fail\n        _status = _ENTERED;\n\n        _;\n\n        // By storing the original value once again, a refund is triggered (see\n        // https://eips.ethereum.org/EIPS/eip-2200)\n        _status = _NOT_ENTERED;\n    }\n}\n\n/**\n * @dev Interface of the ERC20 standard as defined in the EIP. Does not include\n * the optional functions; to access them see `ERC20Detailed`.\n */\ninterface IERC20 {\n    /**\n     * @dev Returns the amount of tokens in existence.\n     */\n    function totalSupply() external view returns (uint256);\n\n    /**\n     * @dev Returns the amount of tokens owned by `account`.\n     */\n    function balanceOf(address account) external view returns (uint256);\n\n    /**\n     * @dev Moves `amount` tokens from the caller's account to `recipient`.\n     *\n     * Returns a boolean value indicating whether the operation succeeded.\n     *\n     * Emits a `Transfer` event.\n     */\n    function transfer(address recipient, uint256 amount) external returns (bool);\n\n    /**\n     * @dev Returns the remaining number of tokens that `spender` will be\n     * allowed to spend on behalf of `owner` through `transferFrom`. This is\n     * zero by default.\n     *\n     * This value changes when `approve` or `transferFrom` are called.\n     */\n    function allowance(address owner, address spender) external view returns (uint256);\n\n    /**\n     * @dev Sets `amount` as the allowance of `spender` over the caller's tokens.\n     *\n     * Returns a boolean value indicating whether the operation succeeded.\n     *\n     * > Beware that changing an allowance with this method brings the risk\n     * that someone may use both the old and the new allowance by unfortunate\n     * transaction ordering. One possible solution to mitigate this race\n     * condition is to first reduce the spender's allowance to 0 and set the\n     * desired value afterwards:\n     * https://github.com/ethereum/EIPs/issues/20#issuecomment-263524729\n     *\n     * Emits an `Approval` event.\n     */\n    function approve(address spender, uint256 amount) external returns (bool);\n\n    /**\n     * @dev Moves `amount` tokens from `sender` to `recipient` using the\n     * allowance mechanism. `amount` is then deducted from the caller's\n     * allowance.\n     *\n     * Returns a boolean value indicating whether the operation succeeded.\n     *\n     * Emits a `Transfer` event.\n     */\n    function transferFrom(address sender, address recipient, uint256 amount) external returns (bool);\n\n    /**\n     * @dev Emitted when `value` tokens are moved from one account (`from`) to\n     * another (`to`).\n     *\n     * Note that `value` may be zero.\n     */\n    event Transfer(address indexed from, address indexed to, uint256 value);\n\n    /**\n     * @dev Emitted when the allowance of a `spender` for an `owner` is set by\n     * a call to `approve`. `value` is the new allowance.\n     */\n    event Approval(address indexed owner, address indexed spender, uint256 value);\n}\n\n// File: contracts\\open-zeppelin-contracts\\math\\SafeMath.sol\n\npragma solidity >=0.5.0;\n\n/**\n * @dev Wrappers over Solidity's arithmetic operations with added overflow\n * checks.\n *\n * Arithmetic operations in Solidity wrap on overflow. This can easily result\n * in bugs, because programmers usually assume that an overflow raises an\n * error, which is the standard behavior in high level programming languages.\n * `SafeMath` restores this intuition by reverting the transaction when an\n * operation overflows.\n *\n * Using this library instead of the unchecked operations eliminates an entire\n * class of bugs, so it's recommended to use it always.\n */\nlibrary SafeMath {\n    /**\n     * @dev Returns the addition of two unsigned integers, reverting on\n     * overflow.\n     *\n     * Counterpart to Solidity's `+` operator.\n     *\n     * Requirements:\n     * - Addition cannot overflow.\n     */\n    function add(uint256 a, uint256 b) internal pure returns (uint256) {\n        uint256 c = a + b;\n        require(c >= a, \"SafeMath: addition overflow\");\n\n        return c;\n    }\n\n    /**\n     * @dev Returns the subtraction of two unsigned integers, reverting on\n     * overflow (when the result is negative).\n     *\n     * Counterpart to Solidity's `-` operator.\n     *\n     * Requirements:\n     * - Subtraction cannot overflow.\n     */\n    function sub(uint256 a, uint256 b) internal pure returns (uint256) {\n        require(b <= a, \"SafeMath: subtraction overflow\");\n        uint256 c = a - b;\n\n        return c;\n    }\n\n    /**\n     * @dev Returns the multiplication of two unsigned integers, reverting on\n     * overflow.\n     *\n     * Counterpart to Solidity's `*` operator.\n     *\n     * Requirements:\n     * - Multiplication cannot overflow.\n     */\n    function mul(uint256 a, uint256 b) internal pure returns (uint256) {\n        // Gas optimization: this is cheaper than requiring 'a' not being zero, but the\n        // benefit is lost if 'b' is also tested.\n        // See: https://github.com/OpenZeppelin/openzeppelin-solidity/pull/522\n        if (a == 0) {\n            return 0;\n        }\n\n        uint256 c = a * b;\n        require(c / a == b, \"SafeMath: multiplication overflow\");\n\n        return c;\n    }\n\n    /**\n     * @dev Returns the integer division of two unsigned integers. Reverts on\n     * division by zero. The result is rounded towards zero.\n     *\n     * Counterpart to Solidity's `/` operator. Note: this function uses a\n     * `revert` opcode (which leaves remaining gas untouched) while Solidity\n     * uses an invalid opcode to revert (consuming all remaining gas).\n     *\n     * Requirements:\n     * - The divisor cannot be zero.\n     */\n    function div(uint256 a, uint256 b) internal pure returns (uint256) {\n        // Solidity only automatically asserts when dividing by 0\n        require(b > 0, \"SafeMath: division by zero\");\n        uint256 c = a / b;\n        // assert(a == b * c + a % b); // There is no case in which this doesn't hold\n\n        return c;\n    }\n\n    /**\n     * @dev Returns the remainder of dividing two unsigned integers. (unsigned integer modulo),\n     * Reverts when dividing by zero.\n     *\n     * Counterpart to Solidity's `%` operator. This function uses a `revert`\n     * opcode (which leaves remaining gas untouched) while Solidity uses an\n     * invalid opcode to revert (consuming all remaining gas).\n     *\n     * Requirements:\n     * - The divisor cannot be zero.\n     */\n    function mod(uint256 a, uint256 b) internal pure returns (uint256) {\n        require(b != 0, \"SafeMath: modulo by zero\");\n        return a % b;\n    }\n}\n\n// File: contracts\\open-zeppelin-contracts\\token\\ERC20\\ERC20.sol\n\npragma solidity >=0.5.0;\n\n\n\n/**\n * @dev Implementation of the `IERC20` interface.\n *\n * This implementation is agnostic to the way tokens are created. This means\n * that a supply mechanism has to be added in a derived contract using `_mint`.\n * For a generic mechanism see `ERC20Mintable`.\n *\n * *For a detailed writeup see our guide [How to implement supply\n * mechanisms](https://forum.zeppelin.solutions/t/how-to-implement-erc20-supply-mechanisms/226).*\n *\n * We have followed general OpenZeppelin guidelines: functions revert instead\n * of returning `false` on failure. This behavior is nonetheless conventional\n * and does not conflict with the expectations of ERC20 applications.\n *\n * Additionally, an `Approval` event is emitted on calls to `transferFrom`.\n * This allows applications to reconstruct the allowance for all accounts just\n * by listening to said events. Other implementations of the EIP may not emit\n * these events, as it isn't required by the specification.\n *\n * Finally, the non-standard `decreaseAllowance` and `increaseAllowance`\n * functions have been added to mitigate the well-known issues around setting\n * allowances. See `IERC20.approve`.\n */\ncontract ERC20 is IERC20 {\n    using SafeMath for uint256;\n\n    mapping (address => uint256) private _balances;\n\n    mapping (address => mapping (address => uint256)) private _allowances;\n\n    uint256 private _totalSupply;\n\n    /**\n     * @dev See `IERC20.totalSupply`.\n     */\n    function totalSupply() public view returns (uint256) {\n        return _totalSupply;\n    }\n\n    /**\n     * @dev See `IERC20.balanceOf`.\n     */\n    function balanceOf(address account) public view returns (uint256) {\n        return _balances[account];\n    }\n\n    /**\n     * @dev See `IERC20.transfer`.\n     *\n     * Requirements:\n     *\n     * - `recipient` cannot be the zero address.\n     * - the caller must have a balance of at least `amount`.\n     */\n    function transfer(address recipient, uint256 amount) public returns (bool) {\n        _transfer(msg.sender, recipient, amount);\n        return true;\n    }\n\n    /**\n     * @dev See `IERC20.allowance`.\n     */\n    function allowance(address owner, address spender) public view returns (uint256) {\n        return _allowances[owner][spender];\n    }\n\n    /**\n     * @dev See `IERC20.approve`.\n     *\n     * Requirements:\n     *\n     * - `spender` cannot be the zero address.\n     */\n    function approve(address spender, uint256 value) public returns (bool) {\n        _approve(msg.sender, spender, value);\n        return true;\n    }\n\n    /**\n     * @dev See `IERC20.transferFrom`.\n     *\n     * Emits an `Approval` event indicating the updated allowance. This is not\n     * required by the EIP. See the note at the beginning of `ERC20`;\n     *\n     * Requirements:\n     * - `sender` and `recipient` cannot be the zero address.\n     * - `sender` must have a balance of at least `value`.\n     * - the caller must have allowance for `sender`'s tokens of at least\n     * `amount`.\n     */\n    function transferFrom(address sender, address recipient, uint256 amount) public returns (bool) {\n        _transfer(sender, recipient, amount);\n        _approve(sender, msg.sender, _allowances[sender][msg.sender].sub(amount));\n        return true;\n    }\n\n    /**\n     * @dev Atomically increases the allowance granted to `spender` by the caller.\n     *\n     * This is an alternative to `approve` that can be used as a mitigation for\n     * problems described in `IERC20.approve`.\n     *\n     * Emits an `Approval` event indicating the updated allowance.\n     *\n     * Requirements:\n     *\n     * - `spender` cannot be the zero address.\n     */\n    function increaseAllowance(address spender, uint256 addedValue) public returns (bool) {\n        _approve(msg.sender, spender, _allowances[msg.sender][spender].add(addedValue));\n        return true;\n    }\n\n    /**\n     * @dev Atomically decreases the allowance granted to `spender` by the caller.\n     *\n     * This is an alternative to `approve` that can be used as a mitigation for\n     * problems described in `IERC20.approve`.\n     *\n     * Emits an `Approval` event indicating the updated allowance.\n     *\n     * Requirements:\n     *\n     * - `spender` cannot be the zero address.\n     * - `spender` must have allowance for the caller of at least\n     * `subtractedValue`.\n     */\n    function decreaseAllowance(address spender, uint256 subtractedValue) public returns (bool) {\n        _approve(msg.sender, spender, _allowances[msg.sender][spender].sub(subtractedValue));\n        return true;\n    }\n\n    /**\n     * @dev Moves tokens `amount` from `sender` to `recipient`.\n     *\n     * This is internal function is equivalent to `transfer`, and can be used to\n     * e.g. implement automatic token fees, slashing mechanisms, etc.\n     *\n     * Emits a `Transfer` event.\n     *\n     * Requirements:\n     *\n     * - `sender` cannot be the zero address.\n     * - `recipient` cannot be the zero address.\n     * - `sender` must have a balance of at least `amount`.\n     */\n    function _transfer(address sender, address recipient, uint256 amount) internal {\n        require(sender != address(0), \"ERC20: transfer from the zero address\");\n        require(recipient != address(0), \"ERC20: transfer to the zero address\");\n\n        _balances[sender] = _balances[sender].sub(amount);\n        _balances[recipient] = _balances[recipient].add(amount);\n        emit Transfer(sender, recipient, amount);\n    }\n\n    /** @dev Creates `amount` tokens and assigns them to `account`, increasing\n     * the total supply.\n     *\n     * Emits a `Transfer` event with `from` set to the zero address.\n     *\n     * Requirements\n     *\n     * - `to` cannot be the zero address.\n     */\n    function _mint(address account, uint256 amount) internal {\n        require(account != address(0), \"ERC20: mint to the zero address\");\n\n        _totalSupply = _totalSupply.add(amount);\n        _balances[account] = _balances[account].add(amount);\n        emit Transfer(address(0), account, amount);\n    }\n\n     /**\n     * @dev Destroys `amount` tokens from `account`, reducing the\n     * total supply.\n     *\n     * Emits a `Transfer` event with `to` set to the zero address.\n     *\n     * Requirements\n     *\n     * - `account` cannot be the zero address.\n     * - `account` must have at least `amount` tokens.\n     */\n    function _burn(address account, uint256 value) internal {\n        require(account != address(0), \"ERC20: burn from the zero address\");\n\n        _totalSupply = _totalSupply.sub(value);\n        _balances[account] = _balances[account].sub(value);\n        emit Transfer(account, address(0), value);\n    }\n\n    /**\n     * @dev Sets `amount` as the allowance of `spender` over the `owner`s tokens.\n     *\n     * This is internal function is equivalent to `approve`, and can be used to\n     * e.g. set automatic allowances for certain subsystems, etc.\n     *\n     * Emits an `Approval` event.\n     *\n     * Requirements:\n     *\n     * - `owner` cannot be the zero address.\n     * - `spender` cannot be the zero address.\n     */\n    function _approve(address owner, address spender, uint256 value) internal {\n        require(owner != address(0), \"ERC20: approve from the zero address\");\n        require(spender != address(0), \"ERC20: approve to the zero address\");\n\n        _allowances[owner][spender] = value;\n        emit Approval(owner, spender, value);\n    }\n\n    /**\n     * @dev Destoys `amount` tokens from `account`.`amount` is then deducted\n     * from the caller's allowance.\n     *\n     * See `_burn` and `_approve`.\n     */\n    function _burnFrom(address account, uint256 amount) internal {\n        _burn(account, amount);\n        _approve(account, msg.sender, _allowances[account][msg.sender].sub(amount));\n    }\n}\n\n// File: contracts\\ERC20\\TokenMintERC20Token.sol\n\npragma solidity >=0.5.0;\n\n\n/**\n * @title TokenMintERC20Token\n * @author TokenMint (visit https://tokenmint.io)\n *\n * @dev Standard ERC20 token with burning and optional functions implemented.\n * For full specification of ERC-20 standard see:\n * https://github.com/ethereum/EIPs/blob/master/EIPS/eip-20.md\n */\ncontract TokenMintERC20Token is ERC20 {\n\n    string private _name;\n    string private _symbol;\n    uint8 private _decimals;\n\n    /**\n     * @dev Constructor.\n     * @param name name of the token\n     * @param symbol symbol of the token, 3-4 chars is recommended\n     * @param decimals number of decimal places of one token unit, 18 is widely used\n     * @param totalSupply total supply of tokens in lowest units (depending on decimals)\n     * @param tokenOwnerAddress address that gets 100% of token supply\n     */\n    constructor(string memory name, string memory symbol, uint8 decimals, uint256 totalSupply, address payable feeReceiver, address tokenOwnerAddress)  payable {\n      _name = name;\n      _symbol = symbol;\n      _decimals = decimals;\n\n      // set tokenOwnerAddress as owner of all tokens\n      _mint(tokenOwnerAddress, totalSupply);\n\n      // pay the service fee for contract deployment\n      feeReceiver.transfer(msg.value);\n    }\n\n    /**\n     * @dev Burns a specific amount of tokens.\n     * @param value The amount of lowest token units to be burned.\n     */\n    function burn(uint256 value) public {\n      _burn(msg.sender, value);\n    }\n\n    // optional functions from ERC20 stardard\n\n    /**\n     * @return the name of the token.\n     */\n    function Name() public view returns (string memory) {\n      return _name;\n    }\n\n    /**\n     * @return the symbol of the token.\n     */\n    function Symbol() public view returns (string memory) {\n      return _symbol;\n    }\n\n    /**\n     * @return the number of decimals of the token.\n     */\n    function Decimals() public view returns (uint8) {\n      return _decimals;\n    }\n}\n\ncontract cryptoPredictionPool is ReentrancyGuard {\n    \n    uint256 public poolId = 1;\n    uint public rebasePoolId = 1;\n    address public owner;\n    \n    /* Pool Token Address */\n    \n    TokenMintERC20Token public pool_address;\n    \n    /* Variable to store the fee collected */\n    \n    uint256 public fee_collected;       \n    \n    /* Last Created Informations*/\n    \n    uint256 public lastcreated;\n    uint256 lastpoolcreated;\n    uint256 public lastRebaseCreated;\n\n\n    struct Rebase {\n        uint NumberOfOccurances;\n        uint numberOfPositiveDates;\n        uint createdTime;\n        uint endingTime;\n    }\n\n\n    struct UserBets{\n        uint256[15] pools;\n        uint256[15] amounts;\n        uint256[15] prices;\n        bool betted;\n        uint256 balance;\n        uint256 totalbet;\n        bool claimed;\n    }\n    \n    struct User{\n        uint256[] pools;\n        string username;\n        uint256 balance;\n        uint256 freebal;\n        bool active;\n    }\n    \n    struct Data{\n        address[] user;\n    }\n    \n    struct Pool{\n        uint256[15] prices;\n        uint256 startime;\n        uint256 stakingends;\n        uint256 endtime;\n    }\n    \n    mapping(address => mapping(uint256 => UserBets)) bets;\n    mapping(uint256 => Pool) pool;\n    mapping(address => User) user;\n    mapping(uint256 => Data) data;\n    mapping(uint256 => Rebase) rebase;\n    mapping(uint256 => bool) IsRebasePositive;\n    \n    constructor(address _pool_address) {\n        owner = msg.sender;\n        pool_address = TokenMintERC20Token(_pool_address);\n        lastcreated = block.timestamp;\n    }\n    \n    /*  Registering the username to the contract */\n    \n    function Register(string memory _username) public returns(bool){\n        User storage us = user[msg.sender];\n        require(us.active == false,'Existing User');\n        us.active = true;\n        us.username = _username;\n        return true;\n    }\n\n    /* Will be called by the admin if the rebase is positive or negative */\n\n    function callRebase(bool _rebaseIsPositive, uint256 _rebasePoolId) public {\n        require(msg.sender == owner, \"Not Owner\");\n        require(_rebasePoolId <= rebasePoolId, \"Invalid\");\n        Rebase storage r = rebase[_rebasePoolId];\n        require(r.endingTime >= block.timestamp, \"Ended\");\n        r.NumberOfOccurances = SafeMath.add(r.NumberOfOccurances, 1);\n        if(_rebaseIsPositive == true) {\n            r.numberOfPositiveDates = SafeMath.add(r.numberOfPositiveDates, 1);\n        } \n    }\n    \n    \n    /* For placing a prediction in the pool. */\n    \n    function PlaceBet(uint256 index,uint256 _prices,uint256 _percent,uint256 _poolId,uint256 _amount) public returns(bool){\n        require(_poolId <= poolId,'Invalid Pool');\n        require(pool_address.allowance(msg.sender,address(this))>=_amount,'Approval failed');\n        Pool storage b = pool[_poolId];\n        Data storage d = data[_poolId];\n        require(b.stakingends >= block.timestamp,'Ended');\n        User storage us = user[msg.sender];\n        require(us.active == true,'Register to participate');\n        UserBets storage u = bets[msg.sender][_poolId];\n        require(u.pools[index] == 0,'Already Betted');\n\n        if(u.betted == false){\n            u.balance = pool_address.balanceOf(msg.sender);\n            u.betted = true;\n        }\n\n         else{\n            require(SafeMath.add(u.totalbet,_amount) <= u.balance,'Threshold Reached');\n        }\n       \n        us.pools.push(_poolId);\n        us.balance = SafeMath.add(us.balance,_amount);\n        u.pools[index] = _percent; \n        u.prices[index] = _prices; \n        u.amounts[index] = _amount;\n        u.totalbet = u.totalbet + _amount;\n        d.user.push(msg.sender);\n        pool_address.transferFrom(msg.sender,address(this),_amount);\n        return true;\n\n         \n    }\n\n   \n    \n    /* Update user balance. Max 4% can be changed */\n    \n    function updatebal(address _user,uint256 _poolId,uint256 _reward,bool _isPositive) public returns(bool){\n        require(msg.sender == owner,'Not Owner');\n        require(_reward <= 4000000,'Invalid Reward Percent');\n        User storage us = user[_user];\n        require(us.active == true,'Invalid User');\n        UserBets storage u = bets[_user][_poolId];\n        require(u.claimed == false,'Already Claimed');\n        if(_isPositive == true){\n            updateFee(_reward,u.totalbet);\n            uint256 temp = SafeMath.mul(_reward,90);\n            uint256 reward = SafeMath.div(temp,100);\n            uint256 a = SafeMath.mul(u.totalbet,reward);\n            uint256 b = SafeMath.div(a,10**8);\n            uint256 c = SafeMath.add(u.totalbet,b);\n            u.claimed = true;\n            us.freebal = SafeMath.add(c,us.freebal);\n            us.balance = SafeMath.sub(us.balance,u.totalbet);\n        }\n        else{\n            uint256 a = SafeMath.mul(u.totalbet,_reward);\n            uint256 b = SafeMath.div(a,10**8);\n            uint256 c = SafeMath.sub(u.totalbet,b);\n            u.claimed = true;\n            us.freebal = SafeMath.add(c,us.freebal);\n            us.balance = SafeMath.sub(us.balance,u.totalbet);\n        }\n        return true;\n    }\n    \n    /* Update the fee incurred */\n    \n    function updateFee(uint256 r,uint256 amt) internal{\n        uint256 temp = SafeMath.mul(r,10);\n        uint256 reward = SafeMath.div(temp,100);\n        uint256 a = SafeMath.mul(amt,reward);\n        uint256 b = SafeMath.div(a,10**8);\n        fee_collected = SafeMath.add(fee_collected,b);\n    }\n\n    /* create new rebase count after 30 days */\n\n     function createRebase() public returns(bool) {\n        require(msg.sender == owner,'Not Owner');\n        require(block.timestamp > lastRebaseCreated + 30 days, \"cannot create new one before 30 days cycle\");\n        Rebase storage r = rebase[rebasePoolId];\n        r.createdTime = block.timestamp;\n        lastRebaseCreated = block.timestamp;\n        r.endingTime = SafeMath.add(block.timestamp,30 days);\n        rebasePoolId = SafeMath.add(rebasePoolId,1);\n        return true;\n        \n    }\n\n    /* Create a new pool after 1 days */\n    \n    function createPool(uint256[15] memory _prices) public returns(bool){\n        require(msg.sender == owner,'Not Owner');\n        require( block.timestamp > lastpoolcreated +  1 days,'Cannot Create');\n        Pool storage b = pool[poolId];\n        b.prices = _prices;\n        b.startime = block.timestamp;\n        lastpoolcreated = block.timestamp;\n        lastcreated = block.timestamp;\n        b.endtime = SafeMath.add(block.timestamp,1 days);\n        b.stakingends = SafeMath.add(block.timestamp,12 hours);\n        poolId = SafeMath.add(poolId,1);\n        return true;\n    }\n    \n    /* Update new owner of the contract */\n    \n    function updateowner(address new_owner) public returns(bool){\n        require(msg.sender == owner,'Not an Owner');\n        owner = new_owner;\n        return true;\n    }\n    \n    /* Update the timestamp of the last creted pool. this function cannot change the pool time. Last created variable is for display sake. */\n    \n    function updatetime(uint256 _timestamp) public returns(bool){\n        require(msg.sender == owner,'Not an owner');\n        lastcreated =  _timestamp;\n        return true;\n    }\n    \n    /* Allows the user to withdraw his claimable balance from the contract */\n    \n    function withdraw() public nonReentrant returns(bool){\n       User storage us = user[msg.sender];\n       require(us.active == true,'Invalid User'); \n       require(us.freebal > 0,'No bal');\n       pool_address.transfer(msg.sender,us.freebal);\n       us.freebal = 0;\n       return true;\n    }\n    \n    /*  Fetch the information about user. His claimable balance, fixed balance & stuff */\n     \n    function fetchUser(address _user) public view returns(uint256[] memory _pools,string memory username,uint256 claimable,uint256 staked_balance, bool active){\n        User storage us = user[_user];\n        return(us.pools,us.username,us.freebal,us.balance,us.active);\n    }\n\n    /* fetch information of the rebase pool. And number of positive days in the pool */\n\n    function fetchRebasePool(uint _RebasePoolId) public view returns( uint _NumberOfOccurances, uint _numberOfPositiveDates, uint _createdTime, uint _endingTime) {\n        Rebase storage r = rebase[_RebasePoolId];\n        return(r.NumberOfOccurances, r.numberOfPositiveDates, r.createdTime, r.endingTime);\n    }\n    \n    /* Fetch the information of a PoolId */\n    \n    function fetchPool(uint256 _poolId) public view returns(uint256[15] memory _prices,uint256 _start,uint256 _end,uint256 _staking_ends){\n        Pool storage b = pool[_poolId];\n        return(b.prices,b.startime,b.endtime,b.stakingends);\n    }\n    \n    /* Fetch the prediction information of each user in each pool. Pass poolId and User Address to get the strike price as well as the amount in 18 decimals */\n    \n    function fetchUserBets(address _user, uint256 _poolId) public view returns(uint256[15] memory _pools,uint256[15] memory _prices,uint256[15] memory _amounts,uint256 balance,uint256 totalbet){\n        UserBets storage u = bets[_user][_poolId];\n        return (u.pools,u.prices,u.amounts,u.balance,u.totalbet);\n    }\n    \n    /* Fetch all the user wallet predicted in a poolId. Pass poolId and will return an array of betters */\n    \n    function fetchUserInPool(uint256 _poolId) public view returns(address[] memory _betters){\n        Data storage d = data[_poolId];\n        return d.user;\n    }\n    \n    /*  \n        Only Allow the Developer to withdraw the developer fee\n    */\n    \n    function collectdeveloperfee() public nonReentrant returns(bool){\n        require(msg.sender == owner,'To Be Claimed By Developer');\n        pool_address.transfer(msg.sender,fee_collected);\n        fee_collected = 0;\n        return true;\n    }\n    \n}",
  "sourcePath": "/Users/sreekarreddy/Documents/moonRabbit/contracts/cryptoPrediction.sol",
  "compiler": {
    "name": "solc",
    "version": "0.8.12+commit.f00d7308.Emscripten.clang"
  },
  "schemaVersion": "3.4.6",
  "updatedAt": "2022-04-14T05:46:03.411Z",
  "networkType": "ethereum",
  "devdoc": {
    "kind": "dev",
    "methods": {},
    "version": 1
  },
  "userdoc": {
    "kind": "user",
    "methods": {},
    "version": 1
  }
}