{
  "contractName": "cryptoPredictionPool",
  "abi": [
    {
      "inputs": [
        {
          "internalType": "address",
          "name": "_pool_address",
          "type": "address"
        }
      ],
      "stateMutability": "nonpayable",
      "type": "constructor"
    },
    {
      "inputs": [],
      "name": "WinnerAddress",
      "outputs": [
        {
          "internalType": "address",
          "name": "",
          "type": "address"
        }
      ],
      "stateMutability": "view",
      "type": "function",
      "constant": true
    },
    {
      "inputs": [],
      "name": "fee_collected",
      "outputs": [
        {
          "internalType": "uint256",
          "name": "",
          "type": "uint256"
        }
      ],
      "stateMutability": "view",
      "type": "function",
      "constant": true
    },
    {
      "inputs": [],
      "name": "lastRebaseCreated",
      "outputs": [
        {
          "internalType": "uint256",
          "name": "",
          "type": "uint256"
        }
      ],
      "stateMutability": "view",
      "type": "function",
      "constant": true
    },
    {
      "inputs": [],
      "name": "lastcreated",
      "outputs": [
        {
          "internalType": "uint256",
          "name": "",
          "type": "uint256"
        }
      ],
      "stateMutability": "view",
      "type": "function",
      "constant": true
    },
    {
      "inputs": [],
      "name": "owner",
      "outputs": [
        {
          "internalType": "address",
          "name": "",
          "type": "address"
        }
      ],
      "stateMutability": "view",
      "type": "function",
      "constant": true
    },
    {
      "inputs": [
        {
          "internalType": "uint256",
          "name": "",
          "type": "uint256"
        },
        {
          "internalType": "uint256",
          "name": "",
          "type": "uint256"
        }
      ],
      "name": "poolBetAmount",
      "outputs": [
        {
          "internalType": "uint256",
          "name": "",
          "type": "uint256"
        }
      ],
      "stateMutability": "view",
      "type": "function",
      "constant": true
    },
    {
      "inputs": [],
      "name": "poolId",
      "outputs": [
        {
          "internalType": "uint256",
          "name": "",
          "type": "uint256"
        }
      ],
      "stateMutability": "view",
      "type": "function",
      "constant": true
    },
    {
      "inputs": [],
      "name": "pool_address",
      "outputs": [
        {
          "internalType": "contract TokenMintERC20Token",
          "name": "",
          "type": "address"
        }
      ],
      "stateMutability": "view",
      "type": "function",
      "constant": true
    },
    {
      "inputs": [],
      "name": "rebasePoolId",
      "outputs": [
        {
          "internalType": "uint256",
          "name": "",
          "type": "uint256"
        }
      ],
      "stateMutability": "view",
      "type": "function",
      "constant": true
    },
    {
      "inputs": [
        {
          "internalType": "address",
          "name": "",
          "type": "address"
        }
      ],
      "name": "registered",
      "outputs": [
        {
          "internalType": "bool",
          "name": "",
          "type": "bool"
        }
      ],
      "stateMutability": "view",
      "type": "function",
      "constant": true
    },
    {
      "inputs": [
        {
          "internalType": "uint256",
          "name": "",
          "type": "uint256"
        }
      ],
      "name": "userId",
      "outputs": [
        {
          "internalType": "address",
          "name": "",
          "type": "address"
        }
      ],
      "stateMutability": "view",
      "type": "function",
      "constant": true
    },
    {
      "inputs": [
        {
          "internalType": "address",
          "name": "",
          "type": "address"
        }
      ],
      "name": "whitelisted",
      "outputs": [
        {
          "internalType": "bool",
          "name": "",
          "type": "bool"
        }
      ],
      "stateMutability": "view",
      "type": "function",
      "constant": true
    },
    {
      "inputs": [
        {
          "internalType": "address",
          "name": "_rebaseCaller",
          "type": "address"
        }
      ],
      "name": "setRebaseCaller",
      "outputs": [],
      "stateMutability": "nonpayable",
      "type": "function"
    },
    {
      "inputs": [],
      "name": "checkRebase",
      "outputs": [
        {
          "internalType": "bool",
          "name": "",
          "type": "bool"
        }
      ],
      "stateMutability": "view",
      "type": "function",
      "constant": true
    },
    {
      "inputs": [
        {
          "internalType": "string",
          "name": "_username",
          "type": "string"
        }
      ],
      "name": "Register",
      "outputs": [
        {
          "internalType": "bool",
          "name": "",
          "type": "bool"
        }
      ],
      "stateMutability": "nonpayable",
      "type": "function"
    },
    {
      "inputs": [
        {
          "internalType": "bool",
          "name": "_natureRebase",
          "type": "bool"
        }
      ],
      "name": "callRebase",
      "outputs": [],
      "stateMutability": "nonpayable",
      "type": "function"
    },
    {
      "inputs": [],
      "name": "getBalance",
      "outputs": [
        {
          "internalType": "uint256",
          "name": "",
          "type": "uint256"
        }
      ],
      "stateMutability": "view",
      "type": "function",
      "constant": true
    },
    {
      "inputs": [
        {
          "internalType": "address",
          "name": "mega",
          "type": "address"
        }
      ],
      "name": "callMegaPool",
      "outputs": [],
      "stateMutability": "nonpayable",
      "type": "function"
    },
    {
      "inputs": [
        {
          "internalType": "address[]",
          "name": "users",
          "type": "address[]"
        }
      ],
      "name": "whitelisting",
      "outputs": [],
      "stateMutability": "nonpayable",
      "type": "function"
    },
    {
      "inputs": [],
      "name": "registerforMegaPool",
      "outputs": [],
      "stateMutability": "nonpayable",
      "type": "function"
    },
    {
      "inputs": [],
      "name": "RollDice",
      "outputs": [],
      "stateMutability": "nonpayable",
      "type": "function"
    },
    {
      "inputs": [],
      "name": "claimabel",
      "outputs": [],
      "stateMutability": "nonpayable",
      "type": "function"
    },
    {
      "inputs": [
        {
          "internalType": "uint256",
          "name": "index",
          "type": "uint256"
        },
        {
          "internalType": "uint256",
          "name": "_prices",
          "type": "uint256"
        },
        {
          "internalType": "uint256",
          "name": "_percent",
          "type": "uint256"
        },
        {
          "internalType": "uint256",
          "name": "_poolId",
          "type": "uint256"
        },
        {
          "internalType": "uint256",
          "name": "_amount",
          "type": "uint256"
        }
      ],
      "name": "PlaceBet",
      "outputs": [
        {
          "internalType": "bool",
          "name": "",
          "type": "bool"
        }
      ],
      "stateMutability": "nonpayable",
      "type": "function"
    },
    {
      "inputs": [
        {
          "internalType": "address",
          "name": "_user",
          "type": "address"
        },
        {
          "internalType": "uint256",
          "name": "_poolId",
          "type": "uint256"
        },
        {
          "internalType": "uint256",
          "name": "_reward",
          "type": "uint256"
        },
        {
          "internalType": "bool",
          "name": "_isPositive",
          "type": "bool"
        }
      ],
      "name": "updatebal",
      "outputs": [
        {
          "internalType": "bool",
          "name": "",
          "type": "bool"
        }
      ],
      "stateMutability": "nonpayable",
      "type": "function"
    },
    {
      "inputs": [],
      "name": "createRebase",
      "outputs": [
        {
          "internalType": "bool",
          "name": "",
          "type": "bool"
        }
      ],
      "stateMutability": "nonpayable",
      "type": "function"
    },
    {
      "inputs": [
        {
          "internalType": "uint256[15]",
          "name": "_prices",
          "type": "uint256[15]"
        }
      ],
      "name": "createPool",
      "outputs": [
        {
          "internalType": "bool",
          "name": "",
          "type": "bool"
        }
      ],
      "stateMutability": "nonpayable",
      "type": "function"
    },
    {
      "inputs": [
        {
          "internalType": "address",
          "name": "new_owner",
          "type": "address"
        }
      ],
      "name": "updateowner",
      "outputs": [
        {
          "internalType": "bool",
          "name": "",
          "type": "bool"
        }
      ],
      "stateMutability": "nonpayable",
      "type": "function"
    },
    {
      "inputs": [
        {
          "internalType": "uint256",
          "name": "_timestamp",
          "type": "uint256"
        }
      ],
      "name": "updatetime",
      "outputs": [
        {
          "internalType": "bool",
          "name": "",
          "type": "bool"
        }
      ],
      "stateMutability": "nonpayable",
      "type": "function"
    },
    {
      "inputs": [],
      "name": "withdraw",
      "outputs": [
        {
          "internalType": "bool",
          "name": "",
          "type": "bool"
        }
      ],
      "stateMutability": "nonpayable",
      "type": "function"
    },
    {
      "inputs": [
        {
          "internalType": "address",
          "name": "_user",
          "type": "address"
        }
      ],
      "name": "fetchUser",
      "outputs": [
        {
          "internalType": "uint256[]",
          "name": "_pools",
          "type": "uint256[]"
        },
        {
          "internalType": "string",
          "name": "username",
          "type": "string"
        },
        {
          "internalType": "uint256",
          "name": "claimable",
          "type": "uint256"
        },
        {
          "internalType": "uint256",
          "name": "staked_balance",
          "type": "uint256"
        },
        {
          "internalType": "bool",
          "name": "active",
          "type": "bool"
        }
      ],
      "stateMutability": "view",
      "type": "function",
      "constant": true
    },
    {
      "inputs": [
        {
          "internalType": "uint256",
          "name": "_RebasePoolId",
          "type": "uint256"
        }
      ],
      "name": "fetchRebasePool",
      "outputs": [
        {
          "internalType": "uint256",
          "name": "_NumberOfOccurances",
          "type": "uint256"
        },
        {
          "internalType": "uint256",
          "name": "_numberOfNegativeDates",
          "type": "uint256"
        },
        {
          "internalType": "uint256",
          "name": "_createdTime",
          "type": "uint256"
        },
        {
          "internalType": "uint256",
          "name": "_endingTime",
          "type": "uint256"
        }
      ],
      "stateMutability": "view",
      "type": "function",
      "constant": true
    },
    {
      "inputs": [
        {
          "internalType": "uint256",
          "name": "_poolId",
          "type": "uint256"
        }
      ],
      "name": "fetchPool",
      "outputs": [
        {
          "internalType": "uint256[15]",
          "name": "_prices",
          "type": "uint256[15]"
        },
        {
          "internalType": "uint256",
          "name": "_start",
          "type": "uint256"
        },
        {
          "internalType": "uint256",
          "name": "_end",
          "type": "uint256"
        },
        {
          "internalType": "uint256",
          "name": "_staking_ends",
          "type": "uint256"
        }
      ],
      "stateMutability": "view",
      "type": "function",
      "constant": true
    },
    {
      "inputs": [
        {
          "internalType": "address",
          "name": "_user",
          "type": "address"
        },
        {
          "internalType": "uint256",
          "name": "_poolId",
          "type": "uint256"
        }
      ],
      "name": "fetchUserBets",
      "outputs": [
        {
          "internalType": "uint256[15]",
          "name": "_pools",
          "type": "uint256[15]"
        },
        {
          "internalType": "uint256[15]",
          "name": "_prices",
          "type": "uint256[15]"
        },
        {
          "internalType": "uint256[15]",
          "name": "_amounts",
          "type": "uint256[15]"
        },
        {
          "internalType": "uint256",
          "name": "balance",
          "type": "uint256"
        },
        {
          "internalType": "uint256",
          "name": "totalbet",
          "type": "uint256"
        }
      ],
      "stateMutability": "view",
      "type": "function",
      "constant": true
    },
    {
      "inputs": [
        {
          "internalType": "uint256",
          "name": "_poolId",
          "type": "uint256"
        }
      ],
      "name": "fetchUserInPool",
      "outputs": [
        {
          "internalType": "address[]",
          "name": "_betters",
          "type": "address[]"
        }
      ],
      "stateMutability": "view",
      "type": "function",
      "constant": true
    },
    {
      "inputs": [],
      "name": "collectdeveloperfee",
      "outputs": [
        {
          "internalType": "bool",
          "name": "",
          "type": "bool"
        }
      ],
      "stateMutability": "nonpayable",
      "type": "function"
    }
  ],
  "bytecode": "0x60806040523480156200001157600080fd5b50604051620048d6380380620048d6833981810160405281019062000037919062000139565b600160008190555033600360006101000a81548173ffffffffffffffffffffffffffffffffffffffff021916908373ffffffffffffffffffffffffffffffffffffffff16021790555080600660006101000a81548173ffffffffffffffffffffffffffffffffffffffff021916908373ffffffffffffffffffffffffffffffffffffffff16021790555042600881905550506200016b565b600080fd5b600073ffffffffffffffffffffffffffffffffffffffff82169050919050565b60006200010182620000d4565b9050919050565b6200011381620000f4565b81146200011f57600080fd5b50565b600081519050620001338162000108565b92915050565b600060208284031215620001525762000151620000cf565b5b6000620001628482850162000122565b91505092915050565b61475b806200017b6000396000f3fe608060405234801561001057600080fd5b50600436106102115760003560e01c80638327edf311610125578063be6f0ea2116100ad578063e423dcee1161007c578063e423dcee1461064e578063ed49c0251461066c578063ee0145161461068a578063f0e83a45146106ba578063fd183ed5146106ea57610211565b8063be6f0ea21461059c578063d75c50d5146105d0578063d936547e146105ee578063e15ef5eb1461061e57610211565b806399018f65116100f457806399018f65146104cd578063a6d8f0bc146104eb578063adb039251461051b578063b2dd5c0714610539578063b50463861461056957610211565b80638327edf31461043357806387a8f293146104635780638cc8074a1461047f5780638da5cb5b146104af57610211565b80633ccfd60b116101a85780634b38a549116101775780634b38a549146103af578063530f2f56146103b95780635f90aaab146103ed5780636a628a0d1461040b57806376dc638a1461042957610211565b80633ccfd60b146103255780633e0dc34e1461034357806340b2d3af146103615780634755abbb1461039157610211565b806312065fe0116101e457806312065fe0146102c5578063225b629f146102e3578063311790c4146102ff5780633c3371351461030957610211565b8063033ded98146102165780630898c906146102495780630aa7a18014610265578063103260c414610295575b600080fd5b610230600480360381019061022b9190612d3c565b610708565b6040516102409493929190612d78565b60405180910390f35b610263600480360381019061025e9190612e1b565b610749565b005b61027f600480360381019061027a9190612f8f565b61081d565b60405161028c9190612fd8565b60405180910390f35b6102af60048036038101906102aa9190612ff3565b610910565b6040516102bc9190612fd8565b60405180910390f35b6102cd610ed6565b6040516102da919061306e565b60405180910390f35b6102fd60048036038101906102f891906130b5565b610f79565b005b6103076110a7565b005b610323600480360381019061031e91906131a5565b6111b4565b005b61032d61135b565b60405161033a9190612fd8565b60405180910390f35b61034b61154c565b604051610358919061306e565b60405180910390f35b61037b600480360381019061037691906132a3565b611552565b6040516103889190612fd8565b60405180910390f35b61039961162e565b6040516103a6919061334b565b60405180910390f35b6103b7611654565b005b6103d360048036038101906103ce9190613366565b611820565b6040516103e4959493929190613451565b60405180910390f35b6103f5611977565b60405161040291906134b8565b60405180910390f35b61041361199d565b604051610420919061306e565b60405180910390f35b6104316119a3565b005b61044d60048036038101906104489190612e1b565b611c74565b60405161045a9190612fd8565b60405180910390f35b61047d60048036038101906104789190612e1b565b611d50565b005b61049960048036038101906104949190612d3c565b611f82565b6040516104a691906134b8565b60405180910390f35b6104b7611fb5565b6040516104c491906134b8565b60405180910390f35b6104d5611fdb565b6040516104e2919061306e565b60405180910390f35b610505600480360381019061050091906134d3565b611fe1565b6040516105129190612fd8565b60405180910390f35b61052361235b565b604051610530919061306e565b60405180910390f35b610553600480360381019061054e9190612e1b565b612361565b6040516105609190612fd8565b60405180910390f35b610583600480360381019061057e9190612d3c565b612381565b604051610593949392919061353a565b60405180910390f35b6105b660048036038101906105b19190612e1b565b612406565b6040516105c79594939291906136a2565b60405180910390f35b6105d8612566565b6040516105e59190612fd8565b60405180910390f35b61060860048036038101906106039190612e1b565b612700565b6040516106159190612fd8565b60405180910390f35b61063860048036038101906106339190613703565b612720565b604051610645919061306e565b60405180910390f35b610656612745565b604051610663919061306e565b60405180910390f35b61067461274b565b6040516106819190612fd8565b60405180910390f35b6106a4600480360381019061069f9190612d3c565b612775565b6040516106b19190613801565b60405180910390f35b6106d460048036038101906106cf9190612d3c565b61281f565b6040516106e19190612fd8565b60405180910390f35b6106f26128c1565b6040516106ff9190612fd8565b60405180910390f35b600080600080600060156000878152602001908152602001600020905080600001548160010154826002015483600301549450945094509450509193509193565b600360009054906101000a900473ffffffffffffffffffffffffffffffffffffffff1673ffffffffffffffffffffffffffffffffffffffff163373ffffffffffffffffffffffffffffffffffffffff16146107d9576040517f08c379a00000000000000000000000000000000000000000000000000000000081526004016107d09061386f565b60405180910390fd5b80600460006101000a81548173ffffffffffffffffffffffffffffffffffffffff021916908373ffffffffffffffffffffffffffffffffffffffff16021790555050565b6000600360009054906101000a900473ffffffffffffffffffffffffffffffffffffffff1673ffffffffffffffffffffffffffffffffffffffff163373ffffffffffffffffffffffffffffffffffffffff16146108af576040517f08c379a00000000000000000000000000000000000000000000000000000000081526004016108a69061386f565b60405180910390fd5b6108bc60015460016129fe565b60018190555060006012600060015481526020019081526020016000209050828160000190600f6108ee929190612bec565b504281600f018190555042600981905550426008819055506001915050919050565b6000600154831115610957576040517f08c379a000000000000000000000000000000000000000000000000000000000815260040161094e906138db565b60405180910390fd5b81600660009054906101000a900473ffffffffffffffffffffffffffffffffffffffff1673ffffffffffffffffffffffffffffffffffffffff1663dd62ed3e33306040518363ffffffff1660e01b81526004016109b59291906138fb565b602060405180830381865afa1580156109d2573d6000803e3d6000fd5b505050506040513d601f19601f820116820180604052508101906109f69190613939565b1015610a37576040517f08c379a0000000000000000000000000000000000000000000000000000000008152600401610a2e906139b2565b60405180910390fd5b60006014600085815260200190815260200160002090506000601360003373ffffffffffffffffffffffffffffffffffffffff1673ffffffffffffffffffffffffffffffffffffffff1681526020019081526020016000209050600115158160040160009054906101000a900460ff16151514610ae9576040517f08c379a0000000000000000000000000000000000000000000000000000000008152600401610ae090613a1e565b60405180910390fd5b6000601160003373ffffffffffffffffffffffffffffffffffffffff1673ffffffffffffffffffffffffffffffffffffffff168152602001908152602001600020600087815260200190815260200160002090506000816000018a600f8110610b5557610b54613a3e565b5b015414610b97576040517f08c379a0000000000000000000000000000000000000000000000000000000008152600401610b8e90613ab9565b60405180910390fd5b84601860008b81526020019081526020016000206000888152602001908152602001600020819055506000151581602d0160009054906101000a900460ff1615151415610ca457600660009054906101000a900473ffffffffffffffffffffffffffffffffffffffff1673ffffffffffffffffffffffffffffffffffffffff166370a08231336040518263ffffffff1660e01b8152600401610c3991906134b8565b602060405180830381865afa158015610c56573d6000803e3d6000fd5b505050506040513d601f19601f82011682018060405250810190610c7a9190613939565b81602e0181905550600181602d0160006101000a81548160ff021916908315150217905550610cf9565b80602e0154610cb782602f0154876129fe565b1115610cf8576040517f08c379a0000000000000000000000000000000000000000000000000000000008152600401610cef90613b25565b60405180910390fd5b5b81600001869080600181540180825580915050600190039060005260206000200160009091909190915055610d328260020154866129fe565b8260020181905550606487610d479190613ba3565b816000018a600f8110610d5d57610d5c613a3e565b5b0181905550606488610d6f9190613ba3565b81601e018a600f8110610d8557610d84613a3e565b5b01819055508481600f018a600f8110610da157610da0613a3e565b5b01819055508481602f0154610db69190613bd4565b81602f018190555082600001339080600181540180825580915050600190039060005260206000200160009091909190916101000a81548173ffffffffffffffffffffffffffffffffffffffff021916908373ffffffffffffffffffffffffffffffffffffffff160217905550600660009054906101000a900473ffffffffffffffffffffffffffffffffffffffff1673ffffffffffffffffffffffffffffffffffffffff166323b872dd3330886040518463ffffffff1660e01b8152600401610e8293929190613c2a565b6020604051808303816000875af1158015610ea1573d6000803e3d6000fd5b505050506040513d601f19601f82011682018060405250810190610ec59190613c76565b506001935050505095945050505050565b6000600660009054906101000a900473ffffffffffffffffffffffffffffffffffffffff1673ffffffffffffffffffffffffffffffffffffffff166370a08231306040518263ffffffff1660e01b8152600401610f3391906134b8565b602060405180830381865afa158015610f50573d6000803e3d6000fd5b505050506040513d601f19601f82011682018060405250810190610f749190613939565b905090565b600460009054906101000a900473ffffffffffffffffffffffffffffffffffffffff1673ffffffffffffffffffffffffffffffffffffffff163373ffffffffffffffffffffffffffffffffffffffff1614611009576040517f08c379a000000000000000000000000000000000000000000000000000000000815260040161100090613cef565b60405180910390fd5b600160156000600254815260200190815260200160002060000160008282546110329190613bd4565b925050819055508060176000600154815260200190815260200160002060006101000a81548160ff0219169083151502179055506000151581151514156110a4576001601560006002548152602001908152602001600020600101600082825461109c9190613bd4565b925050819055505b50565b600d60009054906101000a900473ffffffffffffffffffffffffffffffffffffffff1673ffffffffffffffffffffffffffffffffffffffff163373ffffffffffffffffffffffffffffffffffffffff161461110157600080fd5b600560009054906101000a900473ffffffffffffffffffffffffffffffffffffffff1673ffffffffffffffffffffffffffffffffffffffff166344514f0233600660009054906101000a900473ffffffffffffffffffffffffffffffffffffffff166040518363ffffffff1660e01b81526004016111809291906138fb565b600060405180830381600087803b15801561119a57600080fd5b505af11580156111ae573d6000803e3d6000fd5b50505050565b600360009054906101000a900473ffffffffffffffffffffffffffffffffffffffff1673ffffffffffffffffffffffffffffffffffffffff163373ffffffffffffffffffffffffffffffffffffffff1614611244576040517f08c379a000000000000000000000000000000000000000000000000000000000815260040161123b9061386f565b60405180910390fd5b600560009054906101000a900473ffffffffffffffffffffffffffffffffffffffff1673ffffffffffffffffffffffffffffffffffffffff166330289def6040518163ffffffff1660e01b8152600401600060405180830381600087803b1580156112ae57600080fd5b505af11580156112c2573d6000803e3d6000fd5b5050505060005b8151811015611357576001600f60008484815181106112eb576112ea613a3e565b5b602002602001015173ffffffffffffffffffffffffffffffffffffffff1673ffffffffffffffffffffffffffffffffffffffff16815260200190815260200160002060006101000a81548160ff021916908315150217905550808061134f90613d0f565b9150506112c9565b5050565b6000600260005414156113a3576040517f08c379a000000000000000000000000000000000000000000000000000000000815260040161139a90613da4565b60405180910390fd5b60026000819055506000601360003373ffffffffffffffffffffffffffffffffffffffff1673ffffffffffffffffffffffffffffffffffffffff1681526020019081526020016000209050600115158160040160009054906101000a900460ff16151514611446576040517f08c379a000000000000000000000000000000000000000000000000000000000815260040161143d90613e10565b60405180910390fd5b600081600301541161148d576040517f08c379a000000000000000000000000000000000000000000000000000000000815260040161148490613e7c565b60405180910390fd5b600660009054906101000a900473ffffffffffffffffffffffffffffffffffffffff1673ffffffffffffffffffffffffffffffffffffffff1663a9059cbb3383600301546040518363ffffffff1660e01b81526004016114ee929190613e9c565b6020604051808303816000875af115801561150d573d6000803e3d6000fd5b505050506040513d601f19601f820116820180604052508101906115319190613c76565b50600081600301819055506001915050600160008190555090565b60015481565b600080601360003373ffffffffffffffffffffffffffffffffffffffff1673ffffffffffffffffffffffffffffffffffffffff1681526020019081526020016000209050600015158160040160009054906101000a900460ff161515146115ee576040517f08c379a00000000000000000000000000000000000000000000000000000000081526004016115e590613f11565b60405180910390fd5b60018160040160006101000a81548160ff02191690831515021790555082816001019080519060200190611623929190612c2c565b506001915050919050565b600660009054906101000a900473ffffffffffffffffffffffffffffffffffffffff1681565b600360009054906101000a900473ffffffffffffffffffffffffffffffffffffffff1673ffffffffffffffffffffffffffffffffffffffff163373ffffffffffffffffffffffffffffffffffffffff16146116e4576040517f08c379a00000000000000000000000000000000000000000000000000000000081526004016116db9061386f565b60405180910390fd5b600560009054906101000a900473ffffffffffffffffffffffffffffffffffffffff1673ffffffffffffffffffffffffffffffffffffffff16635ec01e4d6040518163ffffffff1660e01b8152600401600060405180830381600087803b15801561174e57600080fd5b505af1158015611762573d6000803e3d6000fd5b505050506000600b805490504442600b60405160200161178493929190614070565b6040516020818303038152906040528051906020012060001c6117a791906140a9565b9050600e600082815260200190815260200160002060009054906101000a900473ffffffffffffffffffffffffffffffffffffffff16600d60006101000a81548173ffffffffffffffffffffffffffffffffffffffff021916908373ffffffffffffffffffffffffffffffffffffffff16021790555050565b611828612cb2565b611830612cb2565b611838612cb2565b6000806000601160008973ffffffffffffffffffffffffffffffffffffffff1673ffffffffffffffffffffffffffffffffffffffff168152602001908152602001600020600088815260200190815260200160002090508060000181601e0182600f0183602e015484602f015484600f806020026040519081016040528092919082600f80156118dd576020028201915b8154815260200190600101908083116118c9575b5050505050945083600f806020026040519081016040528092919082600f801561191c576020028201915b815481526020019060010190808311611908575b5050505050935082600f806020026040519081016040528092919082600f801561195b576020028201915b815481526020019060010190808311611947575b5050505050925095509550955095509550509295509295909350565b600d60009054906101000a900473ffffffffffffffffffffffffffffffffffffffff1681565b60075481565b60011515600f60003373ffffffffffffffffffffffffffffffffffffffff1673ffffffffffffffffffffffffffffffffffffffff16815260200190815260200160002060009054906101000a900460ff16151514611a36576040517f08c379a0000000000000000000000000000000000000000000000000000000008152600401611a2d90614126565b60405180910390fd5b60001515601060003373ffffffffffffffffffffffffffffffffffffffff1673ffffffffffffffffffffffffffffffffffffffff16815260200190815260200160002060009054906101000a900460ff16151514611ac9576040517f08c379a0000000000000000000000000000000000000000000000000000000008152600401611ac090614192565b60405180910390fd5b600560009054906101000a900473ffffffffffffffffffffffffffffffffffffffff1673ffffffffffffffffffffffffffffffffffffffff16631aa3a0086040518163ffffffff1660e01b8152600401600060405180830381600087803b158015611b3357600080fd5b505af1158015611b47573d6000803e3d6000fd5b50505050600b339080600181540180825580915050600190039060005260206000200160009091909190916101000a81548173ffffffffffffffffffffffffffffffffffffffff021916908373ffffffffffffffffffffffffffffffffffffffff16021790555033600e6000600c54815260200190815260200160002060006101000a81548173ffffffffffffffffffffffffffffffffffffffff021916908373ffffffffffffffffffffffffffffffffffffffff160217905550600c6000815480929190611c1590613d0f565b91905055506001601060003373ffffffffffffffffffffffffffffffffffffffff1673ffffffffffffffffffffffffffffffffffffffff16815260200190815260200160002060006101000a81548160ff021916908315150217905550565b6000600360009054906101000a900473ffffffffffffffffffffffffffffffffffffffff1673ffffffffffffffffffffffffffffffffffffffff163373ffffffffffffffffffffffffffffffffffffffff1614611d06576040517f08c379a0000000000000000000000000000000000000000000000000000000008152600401611cfd906141fe565b60405180910390fd5b81600360006101000a81548173ffffffffffffffffffffffffffffffffffffffff021916908373ffffffffffffffffffffffffffffffffffffffff16021790555060019050919050565b600360009054906101000a900473ffffffffffffffffffffffffffffffffffffffff1673ffffffffffffffffffffffffffffffffffffffff163373ffffffffffffffffffffffffffffffffffffffff1614611de0576040517f08c379a0000000000000000000000000000000000000000000000000000000008152600401611dd79061386f565b60405180910390fd5b80600560006101000a81548173ffffffffffffffffffffffffffffffffffffffff021916908373ffffffffffffffffffffffffffffffffffffffff160217905550600660009054906101000a900473ffffffffffffffffffffffffffffffffffffffff1673ffffffffffffffffffffffffffffffffffffffff1663a9059cbb600560009054906101000a900473ffffffffffffffffffffffffffffffffffffffff16600660009054906101000a900473ffffffffffffffffffffffffffffffffffffffff1673ffffffffffffffffffffffffffffffffffffffff166370a08231306040518263ffffffff1660e01b8152600401611edd91906134b8565b602060405180830381865afa158015611efa573d6000803e3d6000fd5b505050506040513d601f19601f82011682018060405250810190611f1e9190613939565b6040518363ffffffff1660e01b8152600401611f3b929190613e9c565b6020604051808303816000875af1158015611f5a573d6000803e3d6000fd5b505050506040513d601f19601f82011682018060405250810190611f7e9190613c76565b5050565b600e6020528060005260406000206000915054906101000a900473ffffffffffffffffffffffffffffffffffffffff1681565b600360009054906101000a900473ffffffffffffffffffffffffffffffffffffffff1681565b60025481565b6000600360009054906101000a900473ffffffffffffffffffffffffffffffffffffffff1673ffffffffffffffffffffffffffffffffffffffff163373ffffffffffffffffffffffffffffffffffffffff1614612073576040517f08c379a000000000000000000000000000000000000000000000000000000000815260040161206a9061386f565b60405180910390fd5b623d09008311156120b9576040517f08c379a00000000000000000000000000000000000000000000000000000000081526004016120b09061426a565b60405180910390fd5b6000601360008773ffffffffffffffffffffffffffffffffffffffff1673ffffffffffffffffffffffffffffffffffffffff1681526020019081526020016000209050600115158160040160009054906101000a900460ff16151514612154576040517f08c379a000000000000000000000000000000000000000000000000000000000815260040161214b90613e10565b60405180910390fd5b6000601160008873ffffffffffffffffffffffffffffffffffffffff1673ffffffffffffffffffffffffffffffffffffffff16815260200190815260200160002060008781526020019081526020016000209050600015158160300160009054906101000a900460ff16151514612200576040517f08c379a00000000000000000000000000000000000000000000000000000000081526004016121f7906142d6565b60405180910390fd5b6001151584151514156122c65761221b8582602f0154612a5c565b600061222886605a612ab4565b90506000612237826064612b2f565b9050600061224984602f015483612ab4565b9050600061225b826305f5e100612b2f565b9050600061226d86602f0154836129fe565b905060018660300160006101000a81548160ff02191690831515021790555061229a8188600301546129fe565b87600301819055506122b4876002015487602f0154612b8d565b8760020181905550505050505061234d565b60006122d682602f015487612ab4565b905060006122e8826305f5e100612b2f565b905060006122fa84602f015483612b8d565b905060018460300160006101000a81548160ff0219169083151502179055506123278186600301546129fe565b8560030181905550612341856002015485602f0154612b8d565b85600201819055505050505b600192505050949350505050565b600a5481565b60106020528060005260406000206000915054906101000a900460ff1681565b612389612cb2565b6000806000806012600087815260200190815260200160002090508060000181600f01548260110154836010015483600f806020026040519081016040528092919082600f80156123ef576020028201915b8154815260200190600101908083116123db575b505050505093509450945094509450509193509193565b606080600080600080601360008873ffffffffffffffffffffffffffffffffffffffff1673ffffffffffffffffffffffffffffffffffffffff16815260200190815260200160002090508060000181600101826003015483600201548460040160009054906101000a900460ff16848054806020026020016040519081016040528092919081815260200182805480156124bf57602002820191906000526020600020905b8154815260200190600101908083116124ab575b505050505094508380546124d290614325565b80601f01602080910402602001604051908101604052809291908181526020018280546124fe90614325565b801561254b5780601f106125205761010080835404028352916020019161254b565b820191906000526020600020905b81548152906001019060200180831161252e57829003601f168201915b50505050509350955095509550955095505091939590929450565b6000600260005414156125ae576040517f08c379a00000000000000000000000000000000000000000000000000000000081526004016125a590613da4565b60405180910390fd5b6002600081905550600360009054906101000a900473ffffffffffffffffffffffffffffffffffffffff1673ffffffffffffffffffffffffffffffffffffffff163373ffffffffffffffffffffffffffffffffffffffff1614612646576040517f08c379a000000000000000000000000000000000000000000000000000000000815260040161263d906143a3565b60405180910390fd5b600660009054906101000a900473ffffffffffffffffffffffffffffffffffffffff1673ffffffffffffffffffffffffffffffffffffffff1663a9059cbb336007546040518363ffffffff1660e01b81526004016126a5929190613e9c565b6020604051808303816000875af11580156126c4573d6000803e3d6000fd5b505050506040513d601f19601f820116820180604052508101906126e89190613c76565b50600060078190555060019050600160008190555090565b600f6020528060005260406000206000915054906101000a900460ff1681565b6018602052816000526040600020602052806000526040600020600091509150505481565b60085481565b600060176000600154815260200190815260200160002060009054906101000a900460ff16905090565b606060006014600084815260200190815260200160002090508060000180548060200260200160405190810160405280929190818152602001828054801561281257602002820191906000526020600020905b8160009054906101000a900473ffffffffffffffffffffffffffffffffffffffff1673ffffffffffffffffffffffffffffffffffffffff16815260200190600101908083116127c8575b5050505050915050919050565b6000600360009054906101000a900473ffffffffffffffffffffffffffffffffffffffff1673ffffffffffffffffffffffffffffffffffffffff163373ffffffffffffffffffffffffffffffffffffffff16146128b1576040517f08c379a00000000000000000000000000000000000000000000000000000000081526004016128a89061440f565b60405180910390fd5b8160088190555060019050919050565b6000600360009054906101000a900473ffffffffffffffffffffffffffffffffffffffff1673ffffffffffffffffffffffffffffffffffffffff163373ffffffffffffffffffffffffffffffffffffffff1614612953576040517f08c379a000000000000000000000000000000000000000000000000000000000815260040161294a9061386f565b60405180910390fd5b62278d00600a546129649190613bd4565b42116129a5576040517f08c379a000000000000000000000000000000000000000000000000000000000815260040161299c906144a1565b60405180910390fd5b6129b260025460016129fe565b6002819055506000601560006002548152602001908152602001600020905042816002018190555042600a819055506129ee4262278d006129fe565b8160030181905550600191505090565b6000808284612a0d9190613bd4565b905083811015612a52576040517f08c379a0000000000000000000000000000000000000000000000000000000008152600401612a499061450d565b60405180910390fd5b8091505092915050565b6000612a6983600a612ab4565b90506000612a78826064612b2f565b90506000612a868483612ab4565b90506000612a98826305f5e100612b2f565b9050612aa6600754826129fe565b600781905550505050505050565b600080831415612ac75760009050612b29565b60008284612ad5919061452d565b9050828482612ae49190613ba3565b14612b24576040517f08c379a0000000000000000000000000000000000000000000000000000000008152600401612b1b906145f9565b60405180910390fd5b809150505b92915050565b6000808211612b73576040517f08c379a0000000000000000000000000000000000000000000000000000000008152600401612b6a90614665565b60405180910390fd5b60008284612b819190613ba3565b90508091505092915050565b600082821115612bd2576040517f08c379a0000000000000000000000000000000000000000000000000000000008152600401612bc9906146d1565b60405180910390fd5b60008284612be091906146f1565b90508091505092915050565b82600f8101928215612c1b579160200282015b82811115612c1a578251825591602001919060010190612bff565b5b509050612c289190612cd5565b5090565b828054612c3890614325565b90600052602060002090601f016020900481019282612c5a5760008555612ca1565b82601f10612c7357805160ff1916838001178555612ca1565b82800160010185558215612ca1579182015b82811115612ca0578251825591602001919060010190612c85565b5b509050612cae9190612cd5565b5090565b604051806101e00160405280600f90602082028036833780820191505090505090565b5b80821115612cee576000816000905550600101612cd6565b5090565b6000604051905090565b600080fd5b600080fd5b6000819050919050565b612d1981612d06565b8114612d2457600080fd5b50565b600081359050612d3681612d10565b92915050565b600060208284031215612d5257612d51612cfc565b5b6000612d6084828501612d27565b91505092915050565b612d7281612d06565b82525050565b6000608082019050612d8d6000830187612d69565b612d9a6020830186612d69565b612da76040830185612d69565b612db46060830184612d69565b95945050505050565b600073ffffffffffffffffffffffffffffffffffffffff82169050919050565b6000612de882612dbd565b9050919050565b612df881612ddd565b8114612e0357600080fd5b50565b600081359050612e1581612def565b92915050565b600060208284031215612e3157612e30612cfc565b5b6000612e3f84828501612e06565b91505092915050565b600080fd5b6000601f19601f8301169050919050565b7f4e487b7100000000000000000000000000000000000000000000000000000000600052604160045260246000fd5b612e9682612e4d565b810181811067ffffffffffffffff82111715612eb557612eb4612e5e565b5b80604052505050565b6000612ec8612cf2565b9050612ed48282612e8d565b919050565b600067ffffffffffffffff821115612ef457612ef3612e5e565b5b602082029050919050565b600080fd5b6000612f17612f1284612ed9565b612ebe565b90508060208402830185811115612f3157612f30612eff565b5b835b81811015612f5a5780612f468882612d27565b845260208401935050602081019050612f33565b5050509392505050565b600082601f830112612f7957612f78612e48565b5b600f612f86848285612f04565b91505092915050565b60006101e08284031215612fa657612fa5612cfc565b5b6000612fb484828501612f64565b91505092915050565b60008115159050919050565b612fd281612fbd565b82525050565b6000602082019050612fed6000830184612fc9565b92915050565b600080600080600060a0868803121561300f5761300e612cfc565b5b600061301d88828901612d27565b955050602061302e88828901612d27565b945050604061303f88828901612d27565b935050606061305088828901612d27565b925050608061306188828901612d27565b9150509295509295909350565b60006020820190506130836000830184612d69565b92915050565b61309281612fbd565b811461309d57600080fd5b50565b6000813590506130af81613089565b92915050565b6000602082840312156130cb576130ca612cfc565b5b60006130d9848285016130a0565b91505092915050565b600067ffffffffffffffff8211156130fd576130fc612e5e565b5b602082029050602081019050919050565b600061312161311c846130e2565b612ebe565b9050808382526020820190506020840283018581111561314457613143612eff565b5b835b8181101561316d57806131598882612e06565b845260208401935050602081019050613146565b5050509392505050565b600082601f83011261318c5761318b612e48565b5b813561319c84826020860161310e565b91505092915050565b6000602082840312156131bb576131ba612cfc565b5b600082013567ffffffffffffffff8111156131d9576131d8612d01565b5b6131e584828501613177565b91505092915050565b600080fd5b600067ffffffffffffffff82111561320e5761320d612e5e565b5b61321782612e4d565b9050602081019050919050565b82818337600083830152505050565b6000613246613241846131f3565b612ebe565b905082815260208101848484011115613262576132616131ee565b5b61326d848285613224565b509392505050565b600082601f83011261328a57613289612e48565b5b813561329a848260208601613233565b91505092915050565b6000602082840312156132b9576132b8612cfc565b5b600082013567ffffffffffffffff8111156132d7576132d6612d01565b5b6132e384828501613275565b91505092915050565b6000819050919050565b600061331161330c61330784612dbd565b6132ec565b612dbd565b9050919050565b6000613323826132f6565b9050919050565b600061333582613318565b9050919050565b6133458161332a565b82525050565b6000602082019050613360600083018461333c565b92915050565b6000806040838503121561337d5761337c612cfc565b5b600061338b85828601612e06565b925050602061339c85828601612d27565b9150509250929050565b6000600f9050919050565b600081905092915050565b6000819050919050565b6133cf81612d06565b82525050565b60006133e183836133c6565b60208301905092915050565b6000602082019050919050565b613403816133a6565b61340d81846133b1565b9250613418826133bc565b8060005b8381101561344957815161343087826133d5565b965061343b836133ed565b92505060018101905061341c565b505050505050565b60006105e08201905061346760008301886133fa565b6134756101e08301876133fa565b6134836103c08301866133fa565b6134916105a0830185612d69565b61349f6105c0830184612d69565b9695505050505050565b6134b281612ddd565b82525050565b60006020820190506134cd60008301846134a9565b92915050565b600080600080608085870312156134ed576134ec612cfc565b5b60006134fb87828801612e06565b945050602061350c87828801612d27565b935050604061351d87828801612d27565b925050606061352e878288016130a0565b91505092959194509250565b60006102408201905061355060008301876133fa565b61355e6101e0830186612d69565b61356c610200830185612d69565b61357a610220830184612d69565b95945050505050565b600081519050919050565b600082825260208201905092915050565b6000819050602082019050919050565b6000602082019050919050565b60006135c782613583565b6135d1818561358e565b93506135dc8361359f565b8060005b8381101561360d5781516135f488826133d5565b97506135ff836135af565b9250506001810190506135e0565b5085935050505092915050565b600081519050919050565b600082825260208201905092915050565b60005b83811015613654578082015181840152602081019050613639565b83811115613663576000848401525b50505050565b60006136748261361a565b61367e8185613625565b935061368e818560208601613636565b61369781612e4d565b840191505092915050565b600060a08201905081810360008301526136bc81886135bc565b905081810360208301526136d08187613669565b90506136df6040830186612d69565b6136ec6060830185612d69565b6136f96080830184612fc9565b9695505050505050565b6000806040838503121561371a57613719612cfc565b5b600061372885828601612d27565b925050602061373985828601612d27565b9150509250929050565b600081519050919050565b600082825260208201905092915050565b6000819050602082019050919050565b61377881612ddd565b82525050565b600061378a838361376f565b60208301905092915050565b6000602082019050919050565b60006137ae82613743565b6137b8818561374e565b93506137c38361375f565b8060005b838110156137f45781516137db888261377e565b97506137e683613796565b9250506001810190506137c7565b5085935050505092915050565b6000602082019050818103600083015261381b81846137a3565b905092915050565b7f4e6f74204f776e65720000000000000000000000000000000000000000000000600082015250565b6000613859600983613625565b915061386482613823565b602082019050919050565b600060208201905081810360008301526138888161384c565b9050919050565b7f496e76616c696420506f6f6c0000000000000000000000000000000000000000600082015250565b60006138c5600c83613625565b91506138d08261388f565b602082019050919050565b600060208201905081810360008301526138f4816138b8565b9050919050565b600060408201905061391060008301856134a9565b61391d60208301846134a9565b9392505050565b60008151905061393381612d10565b92915050565b60006020828403121561394f5761394e612cfc565b5b600061395d84828501613924565b91505092915050565b7f417070726f76616c206661696c65640000000000000000000000000000000000600082015250565b600061399c600f83613625565b91506139a782613966565b602082019050919050565b600060208201905081810360008301526139cb8161398f565b9050919050565b7f526567697374657220746f207061727469636970617465000000000000000000600082015250565b6000613a08601783613625565b9150613a13826139d2565b602082019050919050565b60006020820190508181036000830152613a37816139fb565b9050919050565b7f4e487b7100000000000000000000000000000000000000000000000000000000600052603260045260246000fd5b7f416c726561647920426574746564000000000000000000000000000000000000600082015250565b6000613aa3600e83613625565b9150613aae82613a6d565b602082019050919050565b60006020820190508181036000830152613ad281613a96565b9050919050565b7f5468726573686f6c642052656163686564000000000000000000000000000000600082015250565b6000613b0f601183613625565b9150613b1a82613ad9565b602082019050919050565b60006020820190508181036000830152613b3e81613b02565b9050919050565b7f4e487b7100000000000000000000000000000000000000000000000000000000600052601260045260246000fd5b7f4e487b7100000000000000000000000000000000000000000000000000000000600052601160045260246000fd5b6000613bae82612d06565b9150613bb983612d06565b925082613bc957613bc8613b45565b5b828204905092915050565b6000613bdf82612d06565b9150613bea83612d06565b9250827fffffffffffffffffffffffffffffffffffffffffffffffffffffffffffffffff03821115613c1f57613c1e613b74565b5b828201905092915050565b6000606082019050613c3f60008301866134a9565b613c4c60208301856134a9565b613c596040830184612d69565b949350505050565b600081519050613c7081613089565b92915050565b600060208284031215613c8c57613c8b612cfc565b5b6000613c9a84828501613c61565b91505092915050565b7f4e6f742072656261736563616c6c657200000000000000000000000000000000600082015250565b6000613cd9601083613625565b9150613ce482613ca3565b602082019050919050565b60006020820190508181036000830152613d0881613ccc565b9050919050565b6000613d1a82612d06565b91507fffffffffffffffffffffffffffffffffffffffffffffffffffffffffffffffff821415613d4d57613d4c613b74565b5b600182019050919050565b7f5265656e7472616e637947756172643a207265656e7472616e742063616c6c00600082015250565b6000613d8e601f83613625565b9150613d9982613d58565b602082019050919050565b60006020820190508181036000830152613dbd81613d81565b9050919050565b7f496e76616c696420557365720000000000000000000000000000000000000000600082015250565b6000613dfa600c83613625565b9150613e0582613dc4565b602082019050919050565b60006020820190508181036000830152613e2981613ded565b9050919050565b7f4e6f2062616c0000000000000000000000000000000000000000000000000000600082015250565b6000613e66600683613625565b9150613e7182613e30565b602082019050919050565b60006020820190508181036000830152613e9581613e59565b9050919050565b6000604082019050613eb160008301856134a9565b613ebe6020830184612d69565b9392505050565b7f4578697374696e67205573657200000000000000000000000000000000000000600082015250565b6000613efb600d83613625565b9150613f0682613ec5565b602082019050919050565b60006020820190508181036000830152613f2a81613eee565b9050919050565b6000819050919050565b613f4c613f4782612d06565b613f31565b82525050565b600081549050919050565b600081905092915050565b60008190508160005260206000209050919050565b613f8681612ddd565b82525050565b6000613f988383613f7d565b60208301905092915050565b60008160001c9050919050565b600073ffffffffffffffffffffffffffffffffffffffff82169050919050565b6000613fe4613fdf83613fa4565b613fb1565b9050919050565b6000613ff78254613fd1565b9050919050565b6000600182019050919050565b600061401682613f52565b6140208185613f5d565b935061402b83613f68565b8060005b838110156140635761404082613feb565b61404a8882613f8c565b975061405583613ffe565b92505060018101905061402f565b5085935050505092915050565b600061407c8286613f3b565b60208201915061408c8285613f3b565b60208201915061409c828461400b565b9150819050949350505050565b60006140b482612d06565b91506140bf83612d06565b9250826140cf576140ce613b45565b5b828206905092915050565b7f4e6f742057686974656c69737465640000000000000000000000000000000000600082015250565b6000614110600f83613625565b915061411b826140da565b602082019050919050565b6000602082019050818103600083015261413f81614103565b9050919050565b7f416c726561647920726567697374657265640000000000000000000000000000600082015250565b600061417c601283613625565b915061418782614146565b602082019050919050565b600060208201905081810360008301526141ab8161416f565b9050919050565b7f4e6f7420616e204f776e65720000000000000000000000000000000000000000600082015250565b60006141e8600c83613625565b91506141f3826141b2565b602082019050919050565b60006020820190508181036000830152614217816141db565b9050919050565b7f496e76616c6964205265776172642050657263656e7400000000000000000000600082015250565b6000614254601683613625565b915061425f8261421e565b602082019050919050565b6000602082019050818103600083015261428381614247565b9050919050565b7f416c726561647920436c61696d65640000000000000000000000000000000000600082015250565b60006142c0600f83613625565b91506142cb8261428a565b602082019050919050565b600060208201905081810360008301526142ef816142b3565b9050919050565b7f4e487b7100000000000000000000000000000000000000000000000000000000600052602260045260246000fd5b6000600282049050600182168061433d57607f821691505b60208210811415614351576143506142f6565b5b50919050565b7f546f20426520436c61696d656420427920446576656c6f706572000000000000600082015250565b600061438d601a83613625565b915061439882614357565b602082019050919050565b600060208201905081810360008301526143bc81614380565b9050919050565b7f4e6f7420616e206f776e65720000000000000000000000000000000000000000600082015250565b60006143f9600c83613625565b9150614404826143c3565b602082019050919050565b60006020820190508181036000830152614428816143ec565b9050919050565b7f63616e6e6f7420637265617465206e6577206f6e65206265666f72652033302060008201527f64617973206379636c6500000000000000000000000000000000000000000000602082015250565b600061448b602a83613625565b91506144968261442f565b604082019050919050565b600060208201905081810360008301526144ba8161447e565b9050919050565b7f536166654d6174683a206164646974696f6e206f766572666c6f770000000000600082015250565b60006144f7601b83613625565b9150614502826144c1565b602082019050919050565b60006020820190508181036000830152614526816144ea565b9050919050565b600061453882612d06565b915061454383612d06565b9250817fffffffffffffffffffffffffffffffffffffffffffffffffffffffffffffffff048311821515161561457c5761457b613b74565b5b828202905092915050565b7f536166654d6174683a206d756c7469706c69636174696f6e206f766572666c6f60008201527f7700000000000000000000000000000000000000000000000000000000000000602082015250565b60006145e3602183613625565b91506145ee82614587565b604082019050919050565b60006020820190508181036000830152614612816145d6565b9050919050565b7f536166654d6174683a206469766973696f6e206279207a65726f000000000000600082015250565b600061464f601a83613625565b915061465a82614619565b602082019050919050565b6000602082019050818103600083015261467e81614642565b9050919050565b7f536166654d6174683a207375627472616374696f6e206f766572666c6f770000600082015250565b60006146bb601e83613625565b91506146c682614685565b602082019050919050565b600060208201905081810360008301526146ea816146ae565b9050919050565b60006146fc82612d06565b915061470783612d06565b92508282101561471a57614719613b74565b5b82820390509291505056fea26469706673582212205fd4959bd218d120bbb20c60a1bea507d663f72a6e8c8b60665baed001700b2a64736f6c634300080c0033",
  "immutableReferences": {},
  "source": "/**\n *Submitted for verification at Etherscan.io on 2022-02-24\n*/\n\n/**\n *Submitted for verification at Etherscan.io on 2020-12-07\n*/\n\n// SPDX-License-Identifier: UNLICENSED\n\n\n// File: contracts\\open-zeppelin-contracts\\token\\ERC20\\IERC20.sol\n\npragma solidity >=0.5.0;\n\ncontract ReentrancyGuard {\n    // Booleans are more expensive than uint256 or any type that takes up a full\n    // word because each write operation emits an extra SLOAD to first read the\n    // slot's contents, replace the bits taken up by the boolean, and then write\n    // back. This is the compiler's defense against contract upgrades and\n    // pointer aliasing, and it cannot be disabled.\n\n    // The values being non-zero value makes deployment a bit more expensive,\n    // but in exchange the refund on every call to nonReentrant will be lower in\n    // amount. Since refunds are capped to a percentage of the total\n    // transaction's gas, it is best to keep them low in cases like this one, to\n    // increase the likelihood of the full refund coming into effect.\n    uint256 private constant _NOT_ENTERED = 1;\n    uint256 private constant _ENTERED = 2;\n\n    uint256 private _status;\n\n    constructor ()  {\n        _status = _NOT_ENTERED;\n    }\n\n    /**\n     * @dev Prevents a contract from calling itself, directly or indirectly.\n     * Calling a `nonReentrant` function from another `nonReentrant`\n     * function is not supported. It is possible to prevent this from happening\n     * by making the `nonReentrant` function external, and make it call a\n     * `private` function that does the actual work.\n     */\n    modifier nonReentrant() {\n        // On the first call to nonReentrant, _notEntered will be true\n        require(_status != _ENTERED, \"ReentrancyGuard: reentrant call\");\n\n        // Any calls to nonReentrant after this point will fail\n        _status = _ENTERED;\n\n        _;\n\n        // By storing the original value once again, a refund is triggered (see\n        // https://eips.ethereum.org/EIPS/eip-2200)\n        _status = _NOT_ENTERED;\n    }\n}\n\n/**\n * @dev Interface of the ERC20 standard as defined in the EIP. Does not include\n * the optional functions; to access them see `ERC20Detailed`.\n */\ninterface IERC20 {\n    /**\n     * @dev Returns the amount of tokens in existence.\n     */\n    function totalSupply() external view returns (uint256);\n\n    /**\n     * @dev Returns the amount of tokens owned by `account`.\n     */\n    function balanceOf(address account) external view returns (uint256);\n\n    /**\n     * @dev Moves `amount` tokens from the caller's account to `recipient`.\n     *\n     * Returns a boolean value indicating whether the operation succeeded.\n     *\n     * Emits a `Transfer` event.\n     */\n    function transfer(address recipient, uint256 amount) external returns (bool);\n\n    /**\n     * @dev Returns the remaining number of tokens that `spender` will be\n     * allowed to spend on behalf of `owner` through `transferFrom`. This is\n     * zero by default.\n     *\n     * This value changes when `approve` or `transferFrom` are called.\n     */\n    function allowance(address owner, address spender) external view returns (uint256);\n\n    /**\n     * @dev Sets `amount` as the allowance of `spender` over the caller's tokens.\n     *\n     * Returns a boolean value indicating whether the operation succeeded.\n     *\n     * > Beware that changing an allowance with this method brings the risk\n     * that someone may use both the old and the new allowance by unfortunate\n     * transaction ordering. One possible solution to mitigate this race\n     * condition is to first reduce the spender's allowance to 0 and set the\n     * desired value afterwards:\n     * https://github.com/ethereum/EIPs/issues/20#issuecomment-263524729\n     *\n     * Emits an `Approval` event.\n     */\n    function approve(address spender, uint256 amount) external returns (bool);\n\n    /**\n     * @dev Moves `amount` tokens from `sender` to `recipient` using the\n     * allowance mechanism. `amount` is then deducted from the caller's\n     * allowance.\n     *\n     * Returns a boolean value indicating whether the operation succeeded.\n     *\n     * Emits a `Transfer` event.\n     */\n    function transferFrom(address sender, address recipient, uint256 amount) external returns (bool);\n\n    /**\n     * @dev Emitted when `value` tokens are moved from one account (`from`) to\n     * another (`to`).\n     *\n     * Note that `value` may be zero.\n     */\n    event Transfer(address indexed from, address indexed to, uint256 value);\n\n    /**\n     * @dev Emitted when the allowance of a `spender` for an `owner` is set by\n     * a call to `approve`. `value` is the new allowance.\n     */\n    event Approval(address indexed owner, address indexed spender, uint256 value);\n}\n\n// File: contracts\\open-zeppelin-contracts\\math\\SafeMath.sol\n\npragma solidity >=0.5.0;\n\n/**\n * @dev Wrappers over Solidity's arithmetic operations with added overflow\n * checks.\n *\n * Arithmetic operations in Solidity wrap on overflow. This can easily result\n * in bugs, because programmers usually assume that an overflow raises an\n * error, which is the standard behavior in high level programming languages.\n * `SafeMath` restores this intuition by reverting the transaction when an\n * operation overflows.\n *\n * Using this library instead of the unchecked operations eliminates an entire\n * class of bugs, so it's recommended to use it always.\n */\nlibrary SafeMath {\n    /**\n     * @dev Returns the addition of two unsigned integers, reverting on\n     * overflow.\n     *\n     * Counterpart to Solidity's `+` operator.\n     *\n     * Requirements:\n     * - Addition cannot overflow.\n     */\n    function add(uint256 a, uint256 b) internal pure returns (uint256) {\n        uint256 c = a + b;\n        require(c >= a, \"SafeMath: addition overflow\");\n\n        return c;\n    }\n\n    /**\n     * @dev Returns the subtraction of two unsigned integers, reverting on\n     * overflow (when the result is negative).\n     *\n     * Counterpart to Solidity's `-` operator.\n     *\n     * Requirements:\n     * - Subtraction cannot overflow.\n     */\n    function sub(uint256 a, uint256 b) internal pure returns (uint256) {\n        require(b <= a, \"SafeMath: subtraction overflow\");\n        uint256 c = a - b;\n\n        return c;\n    }\n\n    /**\n     * @dev Returns the multiplication of two unsigned integers, reverting on\n     * overflow.\n     *\n     * Counterpart to Solidity's `*` operator.\n     *\n     * Requirements:\n     * - Multiplication cannot overflow.\n     */\n    function mul(uint256 a, uint256 b) internal pure returns (uint256) {\n        // Gas optimization: this is cheaper than requiring 'a' not being zero, but the\n        // benefit is lost if 'b' is also tested.\n        // See: https://github.com/OpenZeppelin/openzeppelin-solidity/pull/522\n        if (a == 0) {\n            return 0;\n        }\n\n        uint256 c = a * b;\n        require(c / a == b, \"SafeMath: multiplication overflow\");\n\n        return c;\n    }\n\n    /**\n     * @dev Returns the integer division of two unsigned integers. Reverts on\n     * division by zero. The result is rounded towards zero.\n     *\n     * Counterpart to Solidity's `/` operator. Note: this function uses a\n     * `revert` opcode (which leaves remaining gas untouched) while Solidity\n     * uses an invalid opcode to revert (consuming all remaining gas).\n     *\n     * Requirements:\n     * - The divisor cannot be zero.\n     */\n    function div(uint256 a, uint256 b) internal pure returns (uint256) {\n        // Solidity only automatically asserts when dividing by 0\n        require(b > 0, \"SafeMath: division by zero\");\n        uint256 c = a / b;\n        // assert(a == b * c + a % b); // There is no case in which this doesn't hold\n\n        return c;\n    }\n\n    /**\n     * @dev Returns the remainder of dividing two unsigned integers. (unsigned integer modulo),\n     * Reverts when dividing by zero.\n     *\n     * Counterpart to Solidity's `%` operator. This function uses a `revert`\n     * opcode (which leaves remaining gas untouched) while Solidity uses an\n     * invalid opcode to revert (consuming all remaining gas).\n     *\n     * Requirements:\n     * - The divisor cannot be zero.\n     */\n    function mod(uint256 a, uint256 b) internal pure returns (uint256) {\n        require(b != 0, \"SafeMath: modulo by zero\");\n        return a % b;\n    }\n}\n\n// File: contracts\\open-zeppelin-contracts\\token\\ERC20\\ERC20.sol\n\npragma solidity >=0.5.0;\n\n\n\n/**\n * @dev Implementation of the `IERC20` interface.\n *\n * This implementation is agnostic to the way tokens are created. This means\n * that a supply mechanism has to be added in a derived contract using `_mint`.\n * For a generic mechanism see `ERC20Mintable`.\n *\n * *For a detailed writeup see our guide [How to implement supply\n * mechanisms](https://forum.zeppelin.solutions/t/how-to-implement-erc20-supply-mechanisms/226).*\n *\n * We have followed general OpenZeppelin guidelines: functions revert instead\n * of returning `false` on failure. This behavior is nonetheless conventional\n * and does not conflict with the expectations of ERC20 applications.\n *\n * Additionally, an `Approval` event is emitted on calls to `transferFrom`.\n * This allows applications to reconstruct the allowance for all accounts just\n * by listening to said events. Other implementations of the EIP may not emit\n * these events, as it isn't required by the specification.\n *\n * Finally, the non-standard `decreaseAllowance` and `increaseAllowance`\n * functions have been added to mitigate the well-known issues around setting\n * allowances. See `IERC20.approve`.\n */\ncontract ERC20 is IERC20 {\n    using SafeMath for uint256;\n\n    mapping (address => uint256) private _balances;\n\n    mapping (address => mapping (address => uint256)) private _allowances;\n\n    uint256 private _totalSupply;\n\n    /**\n     * @dev See `IERC20.totalSupply`.\n     */\n    function totalSupply() public view returns (uint256) {\n        return _totalSupply;\n    }\n\n    /**\n     * @dev See `IERC20.balanceOf`.\n     */\n    function balanceOf(address account) public view returns (uint256) {\n        return _balances[account];\n    }\n\n    /**\n     * @dev See `IERC20.transfer`.\n     *\n     * Requirements:\n     *\n     * - `recipient` cannot be the zero address.\n     * - the caller must have a balance of at least `amount`.\n     */\n    function transfer(address recipient, uint256 amount) public returns (bool) {\n        _transfer(msg.sender, recipient, amount);\n        return true;\n    }\n\n    /**\n     * @dev See `IERC20.allowance`.\n     */\n    function allowance(address owner, address spender) public view returns (uint256) {\n        return _allowances[owner][spender];\n    }\n\n    /**\n     * @dev See `IERC20.approve`.\n     *\n     * Requirements:\n     *\n     * - `spender` cannot be the zero address.\n     */\n    function approve(address spender, uint256 value) public returns (bool) {\n        _approve(msg.sender, spender, value);\n        return true;\n    }\n\n    /**\n     * @dev See `IERC20.transferFrom`.\n     *\n     * Emits an `Approval` event indicating the updated allowance. This is not\n     * required by the EIP. See the note at the beginning of `ERC20`;\n     *\n     * Requirements:\n     * - `sender` and `recipient` cannot be the zero address.\n     * - `sender` must have a balance of at least `value`.\n     * - the caller must have allowance for `sender`'s tokens of at least\n     * `amount`.\n     */\n    function transferFrom(address sender, address recipient, uint256 amount) public returns (bool) {\n        _transfer(sender, recipient, amount);\n        _approve(sender, msg.sender, _allowances[sender][msg.sender].sub(amount));\n        return true;\n    }\n\n    /**\n     * @dev Atomically increases the allowance granted to `spender` by the caller.\n     *\n     * This is an alternative to `approve` that can be used as a mitigation for\n     * problems described in `IERC20.approve`.\n     *\n     * Emits an `Approval` event indicating the updated allowance.\n     *\n     * Requirements:\n     *\n     * - `spender` cannot be the zero address.\n     */\n    function increaseAllowance(address spender, uint256 addedValue) public returns (bool) {\n        _approve(msg.sender, spender, _allowances[msg.sender][spender].add(addedValue));\n        return true;\n    }\n\n    /**\n     * @dev Atomically decreases the allowance granted to `spender` by the caller.\n     *\n     * This is an alternative to `approve` that can be used as a mitigation for\n     * problems described in `IERC20.approve`.\n     *\n     * Emits an `Approval` event indicating the updated allowance.\n     *\n     * Requirements:\n     *\n     * - `spender` cannot be the zero address.\n     * - `spender` must have allowance for the caller of at least\n     * `subtractedValue`.\n     */\n    function decreaseAllowance(address spender, uint256 subtractedValue) public returns (bool) {\n        _approve(msg.sender, spender, _allowances[msg.sender][spender].sub(subtractedValue));\n        return true;\n    }\n\n    /**\n     * @dev Moves tokens `amount` from `sender` to `recipient`.\n     *\n     * This is internal function is equivalent to `transfer`, and can be used to\n     * e.g. implement automatic token fees, slashing mechanisms, etc.\n     *\n     * Emits a `Transfer` event.\n     *\n     * Requirements:\n     *\n     * - `sender` cannot be the zero address.\n     * - `recipient` cannot be the zero address.\n     * - `sender` must have a balance of at least `amount`.\n     */\n    function _transfer(address sender, address recipient, uint256 amount) internal {\n        require(sender != address(0), \"ERC20: transfer from the zero address\");\n        require(recipient != address(0), \"ERC20: transfer to the zero address\");\n\n        _balances[sender] = _balances[sender].sub(amount);\n        _balances[recipient] = _balances[recipient].add(amount);\n        emit Transfer(sender, recipient, amount);\n    }\n\n    /** @dev Creates `amount` tokens and assigns them to `account`, increasing\n     * the total supply.\n     *\n     * Emits a `Transfer` event with `from` set to the zero address.\n     *\n     * Requirements\n     *\n     * - `to` cannot be the zero address.\n     */\n    function _mint(address account, uint256 amount) internal {\n        require(account != address(0), \"ERC20: mint to the zero address\");\n\n        _totalSupply = _totalSupply.add(amount);\n        _balances[account] = _balances[account].add(amount);\n        emit Transfer(address(0), account, amount);\n    }\n\n     /**\n     * @dev Destroys `amount` tokens from `account`, reducing the\n     * total supply.\n     *\n     * Emits a `Transfer` event with `to` set to the zero address.\n     *\n     * Requirements\n     *\n     * - `account` cannot be the zero address.\n     * - `account` must have at least `amount` tokens.\n     */\n    function _burn(address account, uint256 value) internal {\n        require(account != address(0), \"ERC20: burn from the zero address\");\n\n        _totalSupply = _totalSupply.sub(value);\n        _balances[account] = _balances[account].sub(value);\n        emit Transfer(account, address(0), value);\n    }\n\n    /**\n     * @dev Sets `amount` as the allowance of `spender` over the `owner`s tokens.\n     *\n     * This is internal function is equivalent to `approve`, and can be used to\n     * e.g. set automatic allowances for certain subsystems, etc.\n     *\n     * Emits an `Approval` event.\n     *\n     * Requirements:\n     *\n     * - `owner` cannot be the zero address.\n     * - `spender` cannot be the zero address.\n     */\n    function _approve(address owner, address spender, uint256 value) internal {\n        require(owner != address(0), \"ERC20: approve from the zero address\");\n        require(spender != address(0), \"ERC20: approve to the zero address\");\n\n        _allowances[owner][spender] = value;\n        emit Approval(owner, spender, value);\n    }\n\n    /**\n     * @dev Destoys `amount` tokens from `account`.`amount` is then deducted\n     * from the caller's allowance.\n     *\n     * See `_burn` and `_approve`.\n     */\n    function _burnFrom(address account, uint256 amount) internal {\n        _burn(account, amount);\n        _approve(account, msg.sender, _allowances[account][msg.sender].sub(amount));\n    }\n}\n\n// File: contracts\\ERC20\\TokenMintERC20Token.sol\n\npragma solidity >=0.5.0;\n\n\n/**\n * @title TokenMintERC20Token\n * @author TokenMint (visit https://tokenmint.io)\n *\n * @dev Standard ERC20 token with burning and optional functions implemented.\n * For full specification of ERC-20 standard see:\n * https://github.com/ethereum/EIPs/blob/master/EIPS/eip-20.md\n */\ncontract TokenMintERC20Token is ERC20 {\n\n    string private _name;\n    string private _symbol;\n    uint8 private _decimals;\n\n    /**\n     * @dev Constructor.\n     * @param name name of the token\n     * @param symbol symbol of the token, 3-4 chars is recommended\n     * @param decimals number of decimal places of one token unit, 18 is widely used\n     * @param totalSupply total supply of tokens in lowest units (depending on decimals)\n     * @param tokenOwnerAddress address that gets 100% of token supply\n     */\n    constructor(string memory name, string memory symbol, uint8 decimals, uint256 totalSupply, address payable feeReceiver, address tokenOwnerAddress)  payable {\n      _name = name;\n      _symbol = symbol;\n      _decimals = decimals;\n\n      // set tokenOwnerAddress as owner of all tokens\n      _mint(tokenOwnerAddress, totalSupply);\n\n      // pay the service fee for contract deployment\n      feeReceiver.transfer(msg.value);\n    }\n\n    /**\n     * @dev Burns a specific amount of tokens.\n     * @param value The amount of lowest token units to be burned.\n     */\n    function burn(uint256 value) public {\n      _burn(msg.sender, value);\n    }\n\n    // optional functions from ERC20 stardard\n\n    /**\n     * @return the name of the token.\n     */\n    function Name() public view returns (string memory) {\n      return _name;\n    }\n\n    /**\n     * @return the symbol of the token.\n     */\n    function Symbol() public view returns (string memory) {\n      return _symbol;\n    }\n\n    /**\n     * @return the number of decimals of the token.\n     */\n    function Decimals() public view returns (uint8) {\n      return _decimals;\n    }\n}\n\ninterface IMegaPool {\n    function whitelistWinners() external ;\n    function register() external;\n     function random() external ; \n     function transferAmount(address winnr, address _erc20Token) external;\n}\n\n\n\ncontract cryptoPredictionPool is ReentrancyGuard {\n    \n    uint256 public poolId ;\n    uint public rebasePoolId ;\n    address public owner;\n    address rebaseCaller;\n\n    address MegaPool ;\n    \n    /* Pool Token Address */\n    \n    TokenMintERC20Token public pool_address;\n    \n    /* Variable to store the fee collected */\n    \n    uint256 public fee_collected;       \n    \n    /* Last Created Informations*/\n    \n    uint256 public lastcreated;\n    uint256 lastpoolcreated;\n    uint256 public lastRebaseCreated;\n\n    /* Mega Pool Information */\n\n    /* array of winners addresses*/\n\n    address[] internal winners;\n\n    /* assigning id numbers to the winners */\n\n    uint num;\n\n    /* Returns the winner of mega pool*/\n\n    address public WinnerAddress;\n    \n    mapping(uint => address) public userId;\n    mapping(address => bool) public whitelisted;\n    mapping(address => bool) public registered;\n\n\n    struct Rebase {\n        uint NumberOfOccurances;\n        uint numberOfNegativeDates;\n        uint createdTime;\n        uint endingTime;\n    }\n\n    \n\n\n    struct UserBets{\n        uint256[15] pools;\n        uint256[15] amounts;\n        uint256[15] prices;\n        bool betted;\n        uint256 balance;\n        uint256 totalbet;\n        bool claimed;\n    }\n\n    \n    \n    struct User{\n        uint256[] pools;\n        string username;\n        uint256 balance;\n        uint256 freebal;\n        bool active;\n    }\n    \n    struct Data{\n        address[] user;\n    }\n    \n    struct Pool{\n        uint256[15] prices;\n        uint256 startime;\n        uint256 stakingends;\n        uint256 endtime;\n    }\n    \n    mapping(address => mapping(uint256 => UserBets)) bets;\n    mapping(uint256 => Pool) pool;\n    mapping(address => User) user;\n    mapping(uint256 => Data) data;\n    mapping(uint256 => Rebase) rebasePool;\n    mapping(uint256 => bool) IsRebasePositive;\n    mapping(uint => bool)  isRebaseNegative;\n    mapping(uint => mapping(uint => uint)) public  poolBetAmount;\n    \n    constructor(address _pool_address) {\n        owner = msg.sender;\n        pool_address = TokenMintERC20Token(_pool_address);\n        lastcreated = block.timestamp;\n    }\n\n   \n    /* To set the rebase caller */\n\n    function setRebaseCaller(address _rebaseCaller) public {\n        require(msg.sender == owner, \"Not Owner\");\n        rebaseCaller = _rebaseCaller;\n    }\n\n    /* This is to check if rebase is negative */\n\n    function checkRebase() public view returns(bool) {\n        return isRebaseNegative[poolId];\n    }\n    \n    /*  Registering the username to the contract */\n    \n    function Register(string memory _username) public returns(bool){\n        User storage us = user[msg.sender];\n        require(us.active == false,'Existing User');\n        us.active = true;\n        us.username = _username;\n        return true;\n    }\n\n    /* Function to be called by admin to update if the rebase is positive */\n\n    function callRebase(bool _natureRebase) public {\n        require(msg.sender == rebaseCaller, \"Not rebasecaller\");\n        rebasePool[rebasePoolId].NumberOfOccurances += 1;\n        isRebaseNegative[poolId] = _natureRebase;\n        if(_natureRebase == false){\n            rebasePool[rebasePoolId].numberOfNegativeDates += 1;\n        }\n    }\n\n    \n\n    /* Get Erc20 balance of the contract */\n\n    function getBalance() public view returns(uint) {\n        return pool_address.balanceOf(address(this));\n    }\n\n    /* Mega Pool will be called if the conditions met */\n  \n     function callMegaPool(address mega) public {\n         require(msg.sender == owner, \"Not Owner\");\n        // require(rebasePool[rebasePoolId].numberOfNegativeDates > 15, \"has not met the eligibility criteria to call mega pool\");\n            MegaPool = mega;\n            pool_address.transfer(MegaPool, pool_address.balanceOf(address(this)));\n    }\n\n    /* Admin will whitelist the winners */\n\n    function whitelisting(address[] memory  users) public {\n        require(msg.sender == owner, \"Not Owner\");\n        IMegaPool(MegaPool).whitelistWinners();\n        for(uint i = 0; i < users.length; i ++) {\n        whitelisted[users[i]] = true;\n        }\n    }\n    \n    /* Whitelisted winners can register themselves for the mega pool*/\n\n    function registerforMegaPool() public {\n        require(whitelisted[msg.sender] == true, \"Not Whitelisted\");\n        require(registered[msg.sender] == false, \"Already registered\");\n        IMegaPool(MegaPool).register();        \n        winners.push(msg.sender);\n        userId[num] = msg.sender;\n        num ++;\n        registered[msg.sender] = true;\n    }\n\n\n    /* A random winner among the registered users will be announced calling this function */\n\n    function RollDice() public  {\n        require(msg.sender == owner, \"Not Owner\");\n        IMegaPool(MegaPool).random(); \n        uint _id = uint(keccak256(abi.encodePacked(block.difficulty, block.timestamp, winners)))%winners.length;\n        WinnerAddress = userId[_id];\n    }\n\n    /* The winner can claim the reward in the mega pool */\n\n    function claimabel() public {\n        require(msg.sender == WinnerAddress);\n        IMegaPool(MegaPool).transferAmount(msg.sender, address(pool_address));\n    }\n\n    \n\n    /* For placing a prediction in the pool. */\n    \n    function PlaceBet(uint256 index,uint256 _prices,uint256 _percent,uint256 _poolId,uint256 _amount) public returns(bool){\n        require(_poolId <= poolId,'Invalid Pool');\n        require(pool_address.allowance(msg.sender,address(this))>=_amount,'Approval failed');\n        // Pool storage b = pool[_poolId];\n        Data storage d = data[_poolId];\n        // require(b.stakingends >= block.timestamp,'Ended');\n        User storage us = user[msg.sender];\n        require(us.active == true,'Register to participate');\n        UserBets storage u = bets[msg.sender][_poolId];\n        require(u.pools[index] == 0,'Already Betted');\n\n        poolBetAmount[index][_poolId] = _amount;\n\n        if(u.betted == false){\n            u.balance = pool_address.balanceOf(msg.sender);\n            u.betted = true;\n        }\n\n         else{\n            require(SafeMath.add(u.totalbet,_amount) <= u.balance,'Threshold Reached');\n        }\n       \n        us.pools.push(_poolId);\n        us.balance = SafeMath.add(us.balance,_amount);\n        u.pools[index] = _percent/100; \n        u.prices[index] = _prices/100; \n        u.amounts[index] = _amount;\n        u.totalbet = u.totalbet + _amount;\n        d.user.push(msg.sender);\n        pool_address.transferFrom(msg.sender,address(this),_amount);\n        return true;\n\n         \n    }\n\n      \n    /* Update user balance. Max 4% can be changed */\n    \n    function updatebal(address _user,uint256 _poolId,uint256 _reward,bool _isPositive) public returns(bool){\n        require(msg.sender == owner,'Not Owner');\n        require(_reward <= 4000000,'Invalid Reward Percent');\n        User storage us = user[_user];\n        require(us.active == true,'Invalid User');\n        UserBets storage u = bets[_user][_poolId];\n        require(u.claimed == false,'Already Claimed');\n        if(_isPositive == true){\n            updateFee(_reward,u.totalbet);\n            uint256 temp = SafeMath.mul(_reward,90);\n            uint256 reward = SafeMath.div(temp,100);\n            uint256 a = SafeMath.mul(u.totalbet,reward);\n            uint256 b = SafeMath.div(a,10**8);\n            uint256 c = SafeMath.add(u.totalbet,b);\n            u.claimed = true;\n            us.freebal = SafeMath.add(c,us.freebal);\n            us.balance = SafeMath.sub(us.balance,u.totalbet);\n        }\n        else{\n            uint256 a = SafeMath.mul(u.totalbet,_reward);\n            uint256 b = SafeMath.div(a,10**8);\n            uint256 c = SafeMath.sub(u.totalbet,b);\n            u.claimed = true;\n            us.freebal = SafeMath.add(c,us.freebal);\n            us.balance = SafeMath.sub(us.balance,u.totalbet);\n        }\n        return true;\n    }\n    \n    /* Update the fee incurred */\n    \n    function updateFee(uint256 r,uint256 amt) internal{\n        uint256 temp = SafeMath.mul(r,10);\n        uint256 reward = SafeMath.div(temp,100);\n        uint256 a = SafeMath.mul(amt,reward);\n        uint256 b = SafeMath.div(a,10**8);\n        fee_collected = SafeMath.add(fee_collected,b);\n    }\n\n    /* create new rebase count after 30 days */\n\n     function createRebase() public returns(bool) {\n        require(msg.sender == owner,'Not Owner');\n        require(block.timestamp > lastRebaseCreated + 30 days, \"cannot create new one before 30 days cycle\");\n        rebasePoolId = SafeMath.add(rebasePoolId,1);\n        Rebase storage r = rebasePool[rebasePoolId];\n        r.createdTime = block.timestamp;\n        lastRebaseCreated = block.timestamp;\n        r.endingTime = SafeMath.add(block.timestamp,30 days);\n        return true;\n        \n    }\n\n    /* Create a new pool after 1 days */\n    \n    function createPool(uint256[15] memory _prices) public returns(bool){\n        require(msg.sender == owner,'Not Owner');\n        // require( block.timestamp > lastpoolcreated +  1 days,'Cannot Create');\n        poolId = SafeMath.add(poolId,1);\n        Pool storage b = pool[poolId];\n        b.prices = _prices;\n        b.startime = block.timestamp;\n        lastpoolcreated = block.timestamp;\n        lastcreated = block.timestamp;\n        // b.endtime = SafeMath.add(block.timestamp,1 days);\n        // b.stakingends = SafeMath.add(block.timestamp,12 hours);\n       return true;\n    }\n    \n    /* Update new owner of the contract */\n    \n    function updateowner(address new_owner) public returns(bool){\n        require(msg.sender == owner,'Not an Owner');\n        owner = new_owner;\n        return true;\n    }\n    \n    /* Update the timestamp of the last creted pool. this function cannot change the pool time. Last created variable is for display sake. */\n    \n    function updatetime(uint256 _timestamp) public returns(bool){\n        require(msg.sender == owner,'Not an owner');\n        lastcreated =  _timestamp;\n        return true;\n    }\n    \n    /* Allows the user to withdraw his claimable balance from the contract */\n    \n    function withdraw() public nonReentrant returns(bool){\n       User storage us = user[msg.sender];\n       require(us.active == true,'Invalid User'); \n       require(us.freebal > 0,'No bal');\n       pool_address.transfer(msg.sender,us.freebal);\n       us.freebal = 0;\n       return true;\n    }\n    \n    /*  Fetch the information about user. His claimable balance, fixed balance & stuff */\n     \n    function fetchUser(address _user) public view returns(uint256[] memory _pools,string memory username,uint256 claimable,uint256 staked_balance, bool active){\n        User storage us = user[_user];\n        return(us.pools,us.username,us.freebal,us.balance,us.active);\n    }\n\n    /*  Fetch the information about Rebase. */\n\n    function fetchRebasePool(uint _RebasePoolId) public view returns( uint _NumberOfOccurances, uint _numberOfNegativeDates, uint _createdTime, uint _endingTime) {\n        Rebase storage r = rebasePool[_RebasePoolId];\n        return(r.NumberOfOccurances, r.numberOfNegativeDates, r.createdTime, r.endingTime);\n    }\n    \n    /* Fetch the information of a PoolId */\n    \n    function fetchPool(uint256 _poolId) public view returns(uint256[15] memory _prices,uint256 _start,uint256 _end,uint256 _staking_ends){\n        Pool storage b = pool[_poolId];\n        return(b.prices,b.startime,b.endtime,b.stakingends);\n    }\n    \n    /* Fetch the prediction information of each user in each pool. Pass poolId and User Address to get the strike price as well as the amount in 18 decimals */\n    \n    function fetchUserBets(address _user, uint256 _poolId) public view returns(uint256[15] memory _pools,uint256[15] memory _prices,uint256[15] memory _amounts,uint256 balance,uint256 totalbet){\n        UserBets storage u = bets[_user][_poolId];\n        return (u.pools,u.prices,u.amounts,u.balance,u.totalbet);\n    }\n    \n    /* Fetch all the user wallet predicted in a poolId. Pass poolId and will return an array of betters */\n    \n    function fetchUserInPool(uint256 _poolId) public view returns(address[] memory _betters){\n        Data storage d = data[_poolId];\n        return d.user;\n    }\n    \n    /* Only Allow the Developer to withdraw the developer fee */\n    \n    function collectdeveloperfee() public nonReentrant returns(bool){\n        require(msg.sender == owner,'To Be Claimed By Developer');\n        pool_address.transfer(msg.sender,fee_collected);\n        fee_collected = 0;\n        return true;\n    }\n    \n}",
  "sourcePath": "/Users/sreekarreddy/Documents/moonRabbit/contracts/cryptoPrediction.sol",
  "compiler": {
    "name": "solc",
    "version": "0.8.12+commit.f00d7308.Emscripten.clang"
  },
  "schemaVersion": "3.4.6",
  "updatedAt": "2022-04-14T06:55:45.824Z",
  "networkType": "ethereum",
  "devdoc": {
    "kind": "dev",
    "methods": {},
    "version": 1
  },
  "userdoc": {
    "kind": "user",
    "methods": {},
    "version": 1
  }
}