{
  "contractName": "MegaPool",
  "abi": [
    {
      "inputs": [],
      "name": "whitelistWinners",
      "outputs": [],
      "stateMutability": "nonpayable",
      "type": "function"
    },
    {
      "inputs": [],
      "name": "register",
      "outputs": [],
      "stateMutability": "nonpayable",
      "type": "function"
    },
    {
      "inputs": [],
      "name": "random",
      "outputs": [],
      "stateMutability": "nonpayable",
      "type": "function"
    },
    {
      "inputs": [
        {
          "internalType": "address",
          "name": "_erc20Token",
          "type": "address"
        }
      ],
      "name": "getBalance",
      "outputs": [
        {
          "internalType": "uint256",
          "name": "",
          "type": "uint256"
        }
      ],
      "stateMutability": "view",
      "type": "function",
      "constant": true
    },
    {
      "inputs": [
        {
          "internalType": "address",
          "name": "winnr",
          "type": "address"
        },
        {
          "internalType": "address",
          "name": "_erc20Token",
          "type": "address"
        }
      ],
      "name": "transferAmount",
      "outputs": [],
      "stateMutability": "nonpayable",
      "type": "function"
    }
  ],
  "bytecode": "0x608060405234801561001057600080fd5b506104a1806100206000396000f3fe608060405234801561001057600080fd5b50600436106100575760003560e01c80631aa3a0081461005c57806330289def1461006657806344514f02146100705780635ec01e4d1461008c578063f8b2cb4f14610096575b600080fd5b6100646100c6565b005b61006e6100c8565b005b61008a600480360381019061008591906102b9565b6100ca565b005b6100946101cc565b005b6100b060048036038101906100ab91906102f9565b6101ce565b6040516100bd919061033f565b60405180910390f35b565b565b60008190508073ffffffffffffffffffffffffffffffffffffffff1663a9059cbb848373ffffffffffffffffffffffffffffffffffffffff166370a08231306040518263ffffffff1660e01b81526004016101259190610369565b602060405180830381865afa158015610142573d6000803e3d6000fd5b505050506040513d601f19601f8201168201806040525081019061016691906103b0565b6040518363ffffffff1660e01b81526004016101839291906103dd565b6020604051808303816000875af11580156101a2573d6000803e3d6000fd5b505050506040513d601f19601f820116820180604052508101906101c6919061043e565b50505050565b565b6000808290508073ffffffffffffffffffffffffffffffffffffffff166370a08231306040518263ffffffff1660e01b815260040161020d9190610369565b602060405180830381865afa15801561022a573d6000803e3d6000fd5b505050506040513d601f19601f8201168201806040525081019061024e91906103b0565b915050919050565b600080fd5b600073ffffffffffffffffffffffffffffffffffffffff82169050919050565b60006102868261025b565b9050919050565b6102968161027b565b81146102a157600080fd5b50565b6000813590506102b38161028d565b92915050565b600080604083850312156102d0576102cf610256565b5b60006102de858286016102a4565b92505060206102ef858286016102a4565b9150509250929050565b60006020828403121561030f5761030e610256565b5b600061031d848285016102a4565b91505092915050565b6000819050919050565b61033981610326565b82525050565b60006020820190506103546000830184610330565b92915050565b6103638161027b565b82525050565b600060208201905061037e600083018461035a565b92915050565b61038d81610326565b811461039857600080fd5b50565b6000815190506103aa81610384565b92915050565b6000602082840312156103c6576103c5610256565b5b60006103d48482850161039b565b91505092915050565b60006040820190506103f2600083018561035a565b6103ff6020830184610330565b9392505050565b60008115159050919050565b61041b81610406565b811461042657600080fd5b50565b60008151905061043881610412565b92915050565b60006020828403121561045457610453610256565b5b600061046284828501610429565b9150509291505056fea2646970667358221220e9fa8c59e1a1e8b5544116a7e7cee6be99691cb32409be5afdb7cb7ae6c5ef8d64736f6c634300080c0033",
  "immutableReferences": {},
  "source": "// SPDX-License-Identifier: MIT\npragma solidity >=0.5.0;\n\n/**\n * @dev Interface of the ERC20 standard as defined in the EIP. Does not include\n * the optional functions; to access them see `ERC20Detailed`.\n */\ninterface IERC20 {\n    /**\n     * @dev Returns the amount of tokens in existence.\n     */\n    function totalSupply() external view returns (uint256);\n\n    /**\n     * @dev Returns the amount of tokens owned by `account`.\n     */\n    function balanceOf(address account) external view returns (uint256);\n\n    /**\n     * @dev Moves `amount` tokens from the caller's account to `recipient`.\n     *\n     * Returns a boolean value indicating whether the operation succeeded.\n     *\n     * Emits a `Transfer` event.\n     */\n    function transfer(address recipient, uint256 amount) external returns (bool);\n\n    /**\n     * @dev Returns the remaining number of tokens that `spender` will be\n     * allowed to spend on behalf of `owner` through `transferFrom`. This is\n     * zero by default.\n     *\n     * This value changes when `approve` or `transferFrom` are called.\n     */\n    function allowance(address owner, address spender) external view returns (uint256);\n\n    /**\n     * @dev Sets `amount` as the allowance of `spender` over the caller's tokens.\n     *\n     * Returns a boolean value indicating whether the operation succeeded.\n     *\n     * > Beware that changing an allowance with this method brings the risk\n     * that someone may use both the old and the new allowance by unfortunate\n     * transaction ordering. One possible solution to mitigate this race\n     * condition is to first reduce the spender's allowance to 0 and set the\n     * desired value afterwards:\n     * https://github.com/ethereum/EIPs/issues/20#issuecomment-263524729\n     *\n     * Emits an `Approval` event.\n     */\n    function approve(address spender, uint256 amount) external returns (bool);\n\n    /**\n     * @dev Moves `amount` tokens from `sender` to `recipient` using the\n     * allowance mechanism. `amount` is then deducted from the caller's\n     * allowance.\n     *\n     * Returns a boolean value indicating whether the operation succeeded.\n     *\n     * Emits a `Transfer` event.\n     */\n    function transferFrom(address sender, address recipient, uint256 amount) external returns (bool);\n\n    /**\n     * @dev Emitted when `value` tokens are moved from one account (`from`) to\n     * another (`to`).\n     *\n     * Note that `value` may be zero.\n     */\n    event Transfer(address indexed from, address indexed to, uint256 value);\n\n    /**\n     * @dev Emitted when the allowance of a `spender` for an `owner` is set by\n     * a call to `approve`. `value` is the new allowance.\n     */\n    event Approval(address indexed owner, address indexed spender, uint256 value);\n}\n\n\ncontract MegaPool {\n\n/* admin will whitelist the top 5 winners */\n\nfunction whitelistWinners() public  {\n  \n}\n\n /* This is for winners registration */\n\nfunction register() public {\n   \n}\n\n/* This function will select a random winner among the registered members */\n\n function random() public  {\n        \n // converting hash to integer\n\n    }\n\n    function getBalance(address _erc20Token) public view returns(uint) {\n        IERC20 _ierc20  = IERC20(_erc20Token);\n        return _ierc20.balanceOf(address(this));\n    }\n\n    function transferAmount(address winnr, address _erc20Token) public {\n        IERC20 _ierc20  = IERC20(_erc20Token);\n        _ierc20.transfer(winnr, _ierc20.balanceOf(address(this)));\n    }\n    \n}",
  "sourcePath": "/Users/sreekarreddy/Documents/moonRabbit/contracts/MegaPool.sol",
  "compiler": {
    "name": "solc",
    "version": "0.8.12+commit.f00d7308.Emscripten.clang"
  },
  "schemaVersion": "3.4.6",
  "updatedAt": "2022-04-14T06:55:45.865Z",
  "networkType": "ethereum",
  "devdoc": {
    "kind": "dev",
    "methods": {},
    "version": 1
  },
  "userdoc": {
    "kind": "user",
    "methods": {},
    "version": 1
  }
}