{
  "contractName": "TokenMintERC20Token",
  "abi": [
    {
      "inputs": [
        {
          "internalType": "string",
          "name": "name",
          "type": "string"
        },
        {
          "internalType": "string",
          "name": "symbol",
          "type": "string"
        },
        {
          "internalType": "uint8",
          "name": "decimals",
          "type": "uint8"
        },
        {
          "internalType": "uint256",
          "name": "totalSupply",
          "type": "uint256"
        },
        {
          "internalType": "address payable",
          "name": "feeReceiver",
          "type": "address"
        },
        {
          "internalType": "address",
          "name": "tokenOwnerAddress",
          "type": "address"
        }
      ],
      "stateMutability": "payable",
      "type": "constructor",
      "payable": true
    },
    {
      "anonymous": false,
      "inputs": [
        {
          "indexed": true,
          "internalType": "address",
          "name": "owner",
          "type": "address"
        },
        {
          "indexed": true,
          "internalType": "address",
          "name": "spender",
          "type": "address"
        },
        {
          "indexed": false,
          "internalType": "uint256",
          "name": "value",
          "type": "uint256"
        }
      ],
      "name": "Approval",
      "type": "event"
    },
    {
      "anonymous": false,
      "inputs": [
        {
          "indexed": true,
          "internalType": "address",
          "name": "from",
          "type": "address"
        },
        {
          "indexed": true,
          "internalType": "address",
          "name": "to",
          "type": "address"
        },
        {
          "indexed": false,
          "internalType": "uint256",
          "name": "value",
          "type": "uint256"
        }
      ],
      "name": "Transfer",
      "type": "event"
    },
    {
      "inputs": [
        {
          "internalType": "address",
          "name": "owner",
          "type": "address"
        },
        {
          "internalType": "address",
          "name": "spender",
          "type": "address"
        }
      ],
      "name": "allowance",
      "outputs": [
        {
          "internalType": "uint256",
          "name": "",
          "type": "uint256"
        }
      ],
      "stateMutability": "view",
      "type": "function",
      "constant": true
    },
    {
      "inputs": [
        {
          "internalType": "address",
          "name": "spender",
          "type": "address"
        },
        {
          "internalType": "uint256",
          "name": "value",
          "type": "uint256"
        }
      ],
      "name": "approve",
      "outputs": [
        {
          "internalType": "bool",
          "name": "",
          "type": "bool"
        }
      ],
      "stateMutability": "nonpayable",
      "type": "function"
    },
    {
      "inputs": [
        {
          "internalType": "address",
          "name": "account",
          "type": "address"
        }
      ],
      "name": "balanceOf",
      "outputs": [
        {
          "internalType": "uint256",
          "name": "",
          "type": "uint256"
        }
      ],
      "stateMutability": "view",
      "type": "function",
      "constant": true
    },
    {
      "inputs": [
        {
          "internalType": "address",
          "name": "spender",
          "type": "address"
        },
        {
          "internalType": "uint256",
          "name": "subtractedValue",
          "type": "uint256"
        }
      ],
      "name": "decreaseAllowance",
      "outputs": [
        {
          "internalType": "bool",
          "name": "",
          "type": "bool"
        }
      ],
      "stateMutability": "nonpayable",
      "type": "function"
    },
    {
      "inputs": [
        {
          "internalType": "address",
          "name": "spender",
          "type": "address"
        },
        {
          "internalType": "uint256",
          "name": "addedValue",
          "type": "uint256"
        }
      ],
      "name": "increaseAllowance",
      "outputs": [
        {
          "internalType": "bool",
          "name": "",
          "type": "bool"
        }
      ],
      "stateMutability": "nonpayable",
      "type": "function"
    },
    {
      "inputs": [],
      "name": "totalSupply",
      "outputs": [
        {
          "internalType": "uint256",
          "name": "",
          "type": "uint256"
        }
      ],
      "stateMutability": "view",
      "type": "function",
      "constant": true
    },
    {
      "inputs": [
        {
          "internalType": "address",
          "name": "recipient",
          "type": "address"
        },
        {
          "internalType": "uint256",
          "name": "amount",
          "type": "uint256"
        }
      ],
      "name": "transfer",
      "outputs": [
        {
          "internalType": "bool",
          "name": "",
          "type": "bool"
        }
      ],
      "stateMutability": "nonpayable",
      "type": "function"
    },
    {
      "inputs": [
        {
          "internalType": "address",
          "name": "sender",
          "type": "address"
        },
        {
          "internalType": "address",
          "name": "recipient",
          "type": "address"
        },
        {
          "internalType": "uint256",
          "name": "amount",
          "type": "uint256"
        }
      ],
      "name": "transferFrom",
      "outputs": [
        {
          "internalType": "bool",
          "name": "",
          "type": "bool"
        }
      ],
      "stateMutability": "nonpayable",
      "type": "function"
    },
    {
      "inputs": [
        {
          "internalType": "uint256",
          "name": "value",
          "type": "uint256"
        }
      ],
      "name": "burn",
      "outputs": [],
      "stateMutability": "nonpayable",
      "type": "function"
    },
    {
      "inputs": [],
      "name": "Name",
      "outputs": [
        {
          "internalType": "string",
          "name": "",
          "type": "string"
        }
      ],
      "stateMutability": "view",
      "type": "function",
      "constant": true
    },
    {
      "inputs": [],
      "name": "Symbol",
      "outputs": [
        {
          "internalType": "string",
          "name": "",
          "type": "string"
        }
      ],
      "stateMutability": "view",
      "type": "function",
      "constant": true
    },
    {
      "inputs": [],
      "name": "Decimals",
      "outputs": [
        {
          "internalType": "uint8",
          "name": "",
          "type": "uint8"
        }
      ],
      "stateMutability": "view",
      "type": "function",
      "constant": true
    }
  ],
  "bytecode": "0x608060405260405162001ec938038062001ec983398181016040528101906200002991906200064a565b856003908051906020019062000041929190620002da565b5084600490805190602001906200005a929190620002da565b5083600560006101000a81548160ff021916908360ff160217905550620000888184620000dc60201b60201c565b8173ffffffffffffffffffffffffffffffffffffffff166108fc349081150290604051600060405180830381858888f19350505050158015620000cf573d6000803e3d6000fd5b5050505050505062000938565b600073ffffffffffffffffffffffffffffffffffffffff168273ffffffffffffffffffffffffffffffffffffffff1614156200014f576040517f08c379a0000000000000000000000000000000000000000000000000000000008152600401620001469062000785565b60405180910390fd5b6200016b816002546200027760201b620006e71790919060201c565b600281905550620001c9816000808573ffffffffffffffffffffffffffffffffffffffff1673ffffffffffffffffffffffffffffffffffffffff168152602001908152602001600020546200027760201b620006e71790919060201c565b6000808473ffffffffffffffffffffffffffffffffffffffff1673ffffffffffffffffffffffffffffffffffffffff168152602001908152602001600020819055508173ffffffffffffffffffffffffffffffffffffffff16600073ffffffffffffffffffffffffffffffffffffffff167fddf252ad1be2c89b69c2b068fc378daa952ba7f163c4a11628f55a4df523b3ef836040516200026b9190620007b8565b60405180910390a35050565b600080828462000288919062000804565b905083811015620002d0576040517f08c379a0000000000000000000000000000000000000000000000000000000008152600401620002c790620008b1565b60405180910390fd5b8091505092915050565b828054620002e89062000902565b90600052602060002090601f0160209004810192826200030c576000855562000358565b82601f106200032757805160ff191683800117855562000358565b8280016001018555821562000358579182015b82811115620003575782518255916020019190600101906200033a565b5b5090506200036791906200036b565b5090565b5b80821115620003865760008160009055506001016200036c565b5090565b6000604051905090565b600080fd5b600080fd5b600080fd5b600080fd5b6000601f19601f8301169050919050565b7f4e487b7100000000000000000000000000000000000000000000000000000000600052604160045260246000fd5b620003f382620003a8565b810181811067ffffffffffffffff82111715620004155762000414620003b9565b5b80604052505050565b60006200042a6200038a565b9050620004388282620003e8565b919050565b600067ffffffffffffffff8211156200045b576200045a620003b9565b5b6200046682620003a8565b9050602081019050919050565b60005b838110156200049357808201518184015260208101905062000476565b83811115620004a3576000848401525b50505050565b6000620004c0620004ba846200043d565b6200041e565b905082815260208101848484011115620004df57620004de620003a3565b5b620004ec84828562000473565b509392505050565b600082601f8301126200050c576200050b6200039e565b5b81516200051e848260208601620004a9565b91505092915050565b600060ff82169050919050565b6200053f8162000527565b81146200054b57600080fd5b50565b6000815190506200055f8162000534565b92915050565b6000819050919050565b6200057a8162000565565b81146200058657600080fd5b50565b6000815190506200059a816200056f565b92915050565b600073ffffffffffffffffffffffffffffffffffffffff82169050919050565b6000620005cd82620005a0565b9050919050565b620005df81620005c0565b8114620005eb57600080fd5b50565b600081519050620005ff81620005d4565b92915050565b60006200061282620005a0565b9050919050565b620006248162000605565b81146200063057600080fd5b50565b600081519050620006448162000619565b92915050565b60008060008060008060c087890312156200066a576200066962000394565b5b600087015167ffffffffffffffff8111156200068b576200068a62000399565b5b6200069989828a01620004f4565b965050602087015167ffffffffffffffff811115620006bd57620006bc62000399565b5b620006cb89828a01620004f4565b9550506040620006de89828a016200054e565b9450506060620006f189828a0162000589565b93505060806200070489828a01620005ee565b92505060a06200071789828a0162000633565b9150509295509295509295565b600082825260208201905092915050565b7f45524332303a206d696e7420746f20746865207a65726f206164647265737300600082015250565b60006200076d601f8362000724565b91506200077a8262000735565b602082019050919050565b60006020820190508181036000830152620007a0816200075e565b9050919050565b620007b28162000565565b82525050565b6000602082019050620007cf6000830184620007a7565b92915050565b7f4e487b7100000000000000000000000000000000000000000000000000000000600052601160045260246000fd5b6000620008118262000565565b91506200081e8362000565565b9250827fffffffffffffffffffffffffffffffffffffffffffffffffffffffffffffffff03821115620008565762000855620007d5565b5b828201905092915050565b7f536166654d6174683a206164646974696f6e206f766572666c6f770000000000600082015250565b600062000899601b8362000724565b9150620008a68262000861565b602082019050919050565b60006020820190508181036000830152620008cc816200088a565b9050919050565b7f4e487b7100000000000000000000000000000000000000000000000000000000600052602260045260246000fd5b600060028204905060018216806200091b57607f821691505b60208210811415620009325762000931620008d3565b5b50919050565b61158180620009486000396000f3fe608060405234801561001057600080fd5b50600436106100b45760003560e01c806370a082311161007157806370a08231146101a15780638052474d146101d1578063a457c2d7146101ef578063a9059cbb1461021f578063c6ceb50b1461024f578063dd62ed3e1461026d576100b4565b8063095ea7b3146100b957806318160ddd146100e957806323b872dd146101075780633045aaf314610137578063395093511461015557806342966c6814610185575b600080fd5b6100d360048036038101906100ce9190610e00565b61029d565b6040516100e09190610e5b565b60405180910390f35b6100f16102b4565b6040516100fe9190610e85565b60405180910390f35b610121600480360381019061011c9190610ea0565b6102be565b60405161012e9190610e5b565b60405180910390f35b61013f61036f565b60405161014c9190610f8c565b60405180910390f35b61016f600480360381019061016a9190610e00565b610401565b60405161017c9190610e5b565b60405180910390f35b61019f600480360381019061019a9190610fae565b6104a6565b005b6101bb60048036038101906101b69190610fdb565b6104b3565b6040516101c89190610e85565b60405180910390f35b6101d96104fb565b6040516101e69190610f8c565b60405180910390f35b61020960048036038101906102049190610e00565b61058d565b6040516102169190610e5b565b60405180910390f35b61023960048036038101906102349190610e00565b610632565b6040516102469190610e5b565b60405180910390f35b610257610649565b6040516102649190611024565b60405180910390f35b6102876004803603810190610282919061103f565b610660565b6040516102949190610e85565b60405180910390f35b60006102aa338484610745565b6001905092915050565b6000600254905090565b60006102cb848484610910565b610364843361035f85600160008a73ffffffffffffffffffffffffffffffffffffffff1673ffffffffffffffffffffffffffffffffffffffff16815260200190815260200160002060003373ffffffffffffffffffffffffffffffffffffffff1673ffffffffffffffffffffffffffffffffffffffff16815260200190815260200160002054610b8090919063ffffffff16565b610745565b600190509392505050565b60606004805461037e906110ae565b80601f01602080910402602001604051908101604052809291908181526020018280546103aa906110ae565b80156103f75780601f106103cc576101008083540402835291602001916103f7565b820191906000526020600020905b8154815290600101906020018083116103da57829003601f168201915b5050505050905090565b600061049c338461049785600160003373ffffffffffffffffffffffffffffffffffffffff1673ffffffffffffffffffffffffffffffffffffffff16815260200190815260200160002060008973ffffffffffffffffffffffffffffffffffffffff1673ffffffffffffffffffffffffffffffffffffffff168152602001908152602001600020546106e790919063ffffffff16565b610745565b6001905092915050565b6104b03382610bdf565b50565b60008060008373ffffffffffffffffffffffffffffffffffffffff1673ffffffffffffffffffffffffffffffffffffffff168152602001908152602001600020549050919050565b60606003805461050a906110ae565b80601f0160208091040260200160405190810160405280929190818152602001828054610536906110ae565b80156105835780601f1061055857610100808354040283529160200191610583565b820191906000526020600020905b81548152906001019060200180831161056657829003601f168201915b5050505050905090565b6000610628338461062385600160003373ffffffffffffffffffffffffffffffffffffffff1673ffffffffffffffffffffffffffffffffffffffff16815260200190815260200160002060008973ffffffffffffffffffffffffffffffffffffffff1673ffffffffffffffffffffffffffffffffffffffff16815260200190815260200160002054610b8090919063ffffffff16565b610745565b6001905092915050565b600061063f338484610910565b6001905092915050565b6000600560009054906101000a900460ff16905090565b6000600160008473ffffffffffffffffffffffffffffffffffffffff1673ffffffffffffffffffffffffffffffffffffffff16815260200190815260200160002060008373ffffffffffffffffffffffffffffffffffffffff1673ffffffffffffffffffffffffffffffffffffffff16815260200190815260200160002054905092915050565b60008082846106f6919061110f565b90508381101561073b576040517f08c379a0000000000000000000000000000000000000000000000000000000008152600401610732906111b1565b60405180910390fd5b8091505092915050565b600073ffffffffffffffffffffffffffffffffffffffff168373ffffffffffffffffffffffffffffffffffffffff1614156107b5576040517f08c379a00000000000000000000000000000000000000000000000000000000081526004016107ac90611243565b60405180910390fd5b600073ffffffffffffffffffffffffffffffffffffffff168273ffffffffffffffffffffffffffffffffffffffff161415610825576040517f08c379a000000000000000000000000000000000000000000000000000000000815260040161081c906112d5565b60405180910390fd5b80600160008573ffffffffffffffffffffffffffffffffffffffff1673ffffffffffffffffffffffffffffffffffffffff16815260200190815260200160002060008473ffffffffffffffffffffffffffffffffffffffff1673ffffffffffffffffffffffffffffffffffffffff168152602001908152602001600020819055508173ffffffffffffffffffffffffffffffffffffffff168373ffffffffffffffffffffffffffffffffffffffff167f8c5be1e5ebec7d5bd14f71427d1e84f3dd0314c0f7b2291e5b200ac8c7c3b925836040516109039190610e85565b60405180910390a3505050565b600073ffffffffffffffffffffffffffffffffffffffff168373ffffffffffffffffffffffffffffffffffffffff161415610980576040517f08c379a000000000000000000000000000000000000000000000000000000000815260040161097790611367565b60405180910390fd5b600073ffffffffffffffffffffffffffffffffffffffff168273ffffffffffffffffffffffffffffffffffffffff1614156109f0576040517f08c379a00000000000000000000000000000000000000000000000000000000081526004016109e7906113f9565b60405180910390fd5b610a41816000808673ffffffffffffffffffffffffffffffffffffffff1673ffffffffffffffffffffffffffffffffffffffff16815260200190815260200160002054610b8090919063ffffffff16565b6000808573ffffffffffffffffffffffffffffffffffffffff1673ffffffffffffffffffffffffffffffffffffffff16815260200190815260200160002081905550610ad4816000808573ffffffffffffffffffffffffffffffffffffffff1673ffffffffffffffffffffffffffffffffffffffff168152602001908152602001600020546106e790919063ffffffff16565b6000808473ffffffffffffffffffffffffffffffffffffffff1673ffffffffffffffffffffffffffffffffffffffff168152602001908152602001600020819055508173ffffffffffffffffffffffffffffffffffffffff168373ffffffffffffffffffffffffffffffffffffffff167fddf252ad1be2c89b69c2b068fc378daa952ba7f163c4a11628f55a4df523b3ef83604051610b739190610e85565b60405180910390a3505050565b600082821115610bc5576040517f08c379a0000000000000000000000000000000000000000000000000000000008152600401610bbc90611465565b60405180910390fd5b60008284610bd39190611485565b90508091505092915050565b600073ffffffffffffffffffffffffffffffffffffffff168273ffffffffffffffffffffffffffffffffffffffff161415610c4f576040517f08c379a0000000000000000000000000000000000000000000000000000000008152600401610c469061152b565b60405180910390fd5b610c6481600254610b8090919063ffffffff16565b600281905550610cbb816000808573ffffffffffffffffffffffffffffffffffffffff1673ffffffffffffffffffffffffffffffffffffffff16815260200190815260200160002054610b8090919063ffffffff16565b6000808473ffffffffffffffffffffffffffffffffffffffff1673ffffffffffffffffffffffffffffffffffffffff16815260200190815260200160002081905550600073ffffffffffffffffffffffffffffffffffffffff168273ffffffffffffffffffffffffffffffffffffffff167fddf252ad1be2c89b69c2b068fc378daa952ba7f163c4a11628f55a4df523b3ef83604051610d5b9190610e85565b60405180910390a35050565b600080fd5b600073ffffffffffffffffffffffffffffffffffffffff82169050919050565b6000610d9782610d6c565b9050919050565b610da781610d8c565b8114610db257600080fd5b50565b600081359050610dc481610d9e565b92915050565b6000819050919050565b610ddd81610dca565b8114610de857600080fd5b50565b600081359050610dfa81610dd4565b92915050565b60008060408385031215610e1757610e16610d67565b5b6000610e2585828601610db5565b9250506020610e3685828601610deb565b9150509250929050565b60008115159050919050565b610e5581610e40565b82525050565b6000602082019050610e706000830184610e4c565b92915050565b610e7f81610dca565b82525050565b6000602082019050610e9a6000830184610e76565b92915050565b600080600060608486031215610eb957610eb8610d67565b5b6000610ec786828701610db5565b9350506020610ed886828701610db5565b9250506040610ee986828701610deb565b9150509250925092565b600081519050919050565b600082825260208201905092915050565b60005b83811015610f2d578082015181840152602081019050610f12565b83811115610f3c576000848401525b50505050565b6000601f19601f8301169050919050565b6000610f5e82610ef3565b610f688185610efe565b9350610f78818560208601610f0f565b610f8181610f42565b840191505092915050565b60006020820190508181036000830152610fa68184610f53565b905092915050565b600060208284031215610fc457610fc3610d67565b5b6000610fd284828501610deb565b91505092915050565b600060208284031215610ff157610ff0610d67565b5b6000610fff84828501610db5565b91505092915050565b600060ff82169050919050565b61101e81611008565b82525050565b60006020820190506110396000830184611015565b92915050565b6000806040838503121561105657611055610d67565b5b600061106485828601610db5565b925050602061107585828601610db5565b9150509250929050565b7f4e487b7100000000000000000000000000000000000000000000000000000000600052602260045260246000fd5b600060028204905060018216806110c657607f821691505b602082108114156110da576110d961107f565b5b50919050565b7f4e487b7100000000000000000000000000000000000000000000000000000000600052601160045260246000fd5b600061111a82610dca565b915061112583610dca565b9250827fffffffffffffffffffffffffffffffffffffffffffffffffffffffffffffffff0382111561115a576111596110e0565b5b828201905092915050565b7f536166654d6174683a206164646974696f6e206f766572666c6f770000000000600082015250565b600061119b601b83610efe565b91506111a682611165565b602082019050919050565b600060208201905081810360008301526111ca8161118e565b9050919050565b7f45524332303a20617070726f76652066726f6d20746865207a65726f2061646460008201527f7265737300000000000000000000000000000000000000000000000000000000602082015250565b600061122d602483610efe565b9150611238826111d1565b604082019050919050565b6000602082019050818103600083015261125c81611220565b9050919050565b7f45524332303a20617070726f766520746f20746865207a65726f20616464726560008201527f7373000000000000000000000000000000000000000000000000000000000000602082015250565b60006112bf602283610efe565b91506112ca82611263565b604082019050919050565b600060208201905081810360008301526112ee816112b2565b9050919050565b7f45524332303a207472616e736665722066726f6d20746865207a65726f20616460008201527f6472657373000000000000000000000000000000000000000000000000000000602082015250565b6000611351602583610efe565b915061135c826112f5565b604082019050919050565b6000602082019050818103600083015261138081611344565b9050919050565b7f45524332303a207472616e7366657220746f20746865207a65726f206164647260008201527f6573730000000000000000000000000000000000000000000000000000000000602082015250565b60006113e3602383610efe565b91506113ee82611387565b604082019050919050565b60006020820190508181036000830152611412816113d6565b9050919050565b7f536166654d6174683a207375627472616374696f6e206f766572666c6f770000600082015250565b600061144f601e83610efe565b915061145a82611419565b602082019050919050565b6000602082019050818103600083015261147e81611442565b9050919050565b600061149082610dca565b915061149b83610dca565b9250828210156114ae576114ad6110e0565b5b828203905092915050565b7f45524332303a206275726e2066726f6d20746865207a65726f2061646472657360008201527f7300000000000000000000000000000000000000000000000000000000000000602082015250565b6000611515602183610efe565b9150611520826114b9565b604082019050919050565b6000602082019050818103600083015261154481611508565b905091905056fea2646970667358221220642a72402b24132a095d252a6889bb42761248ea9d205d7da769bdd7c7efa64a64736f6c634300080c0033",
  "immutableReferences": {},
  "source": "/**\n *Submitted for verification at Etherscan.io on 2022-02-24\n*/\n\n/**\n *Submitted for verification at Etherscan.io on 2020-12-07\n*/\n\n// SPDX-License-Identifier: UNLICENSED\n\n\n// File: contracts\\open-zeppelin-contracts\\token\\ERC20\\IERC20.sol\n\npragma solidity >=0.5.0;\n\ncontract ReentrancyGuard {\n    // Booleans are more expensive than uint256 or any type that takes up a full\n    // word because each write operation emits an extra SLOAD to first read the\n    // slot's contents, replace the bits taken up by the boolean, and then write\n    // back. This is the compiler's defense against contract upgrades and\n    // pointer aliasing, and it cannot be disabled.\n\n    // The values being non-zero value makes deployment a bit more expensive,\n    // but in exchange the refund on every call to nonReentrant will be lower in\n    // amount. Since refunds are capped to a percentage of the total\n    // transaction's gas, it is best to keep them low in cases like this one, to\n    // increase the likelihood of the full refund coming into effect.\n    uint256 private constant _NOT_ENTERED = 1;\n    uint256 private constant _ENTERED = 2;\n\n    uint256 private _status;\n\n    constructor ()  {\n        _status = _NOT_ENTERED;\n    }\n\n    /**\n     * @dev Prevents a contract from calling itself, directly or indirectly.\n     * Calling a `nonReentrant` function from another `nonReentrant`\n     * function is not supported. It is possible to prevent this from happening\n     * by making the `nonReentrant` function external, and make it call a\n     * `private` function that does the actual work.\n     */\n    modifier nonReentrant() {\n        // On the first call to nonReentrant, _notEntered will be true\n        require(_status != _ENTERED, \"ReentrancyGuard: reentrant call\");\n\n        // Any calls to nonReentrant after this point will fail\n        _status = _ENTERED;\n\n        _;\n\n        // By storing the original value once again, a refund is triggered (see\n        // https://eips.ethereum.org/EIPS/eip-2200)\n        _status = _NOT_ENTERED;\n    }\n}\n\n/**\n * @dev Interface of the ERC20 standard as defined in the EIP. Does not include\n * the optional functions; to access them see `ERC20Detailed`.\n */\ninterface IERC20 {\n    /**\n     * @dev Returns the amount of tokens in existence.\n     */\n    function totalSupply() external view returns (uint256);\n\n    /**\n     * @dev Returns the amount of tokens owned by `account`.\n     */\n    function balanceOf(address account) external view returns (uint256);\n\n    /**\n     * @dev Moves `amount` tokens from the caller's account to `recipient`.\n     *\n     * Returns a boolean value indicating whether the operation succeeded.\n     *\n     * Emits a `Transfer` event.\n     */\n    function transfer(address recipient, uint256 amount) external returns (bool);\n\n    /**\n     * @dev Returns the remaining number of tokens that `spender` will be\n     * allowed to spend on behalf of `owner` through `transferFrom`. This is\n     * zero by default.\n     *\n     * This value changes when `approve` or `transferFrom` are called.\n     */\n    function allowance(address owner, address spender) external view returns (uint256);\n\n    /**\n     * @dev Sets `amount` as the allowance of `spender` over the caller's tokens.\n     *\n     * Returns a boolean value indicating whether the operation succeeded.\n     *\n     * > Beware that changing an allowance with this method brings the risk\n     * that someone may use both the old and the new allowance by unfortunate\n     * transaction ordering. One possible solution to mitigate this race\n     * condition is to first reduce the spender's allowance to 0 and set the\n     * desired value afterwards:\n     * https://github.com/ethereum/EIPs/issues/20#issuecomment-263524729\n     *\n     * Emits an `Approval` event.\n     */\n    function approve(address spender, uint256 amount) external returns (bool);\n\n    /**\n     * @dev Moves `amount` tokens from `sender` to `recipient` using the\n     * allowance mechanism. `amount` is then deducted from the caller's\n     * allowance.\n     *\n     * Returns a boolean value indicating whether the operation succeeded.\n     *\n     * Emits a `Transfer` event.\n     */\n    function transferFrom(address sender, address recipient, uint256 amount) external returns (bool);\n\n    /**\n     * @dev Emitted when `value` tokens are moved from one account (`from`) to\n     * another (`to`).\n     *\n     * Note that `value` may be zero.\n     */\n    event Transfer(address indexed from, address indexed to, uint256 value);\n\n    /**\n     * @dev Emitted when the allowance of a `spender` for an `owner` is set by\n     * a call to `approve`. `value` is the new allowance.\n     */\n    event Approval(address indexed owner, address indexed spender, uint256 value);\n}\n\n// File: contracts\\open-zeppelin-contracts\\math\\SafeMath.sol\n\npragma solidity >=0.5.0;\n\n/**\n * @dev Wrappers over Solidity's arithmetic operations with added overflow\n * checks.\n *\n * Arithmetic operations in Solidity wrap on overflow. This can easily result\n * in bugs, because programmers usually assume that an overflow raises an\n * error, which is the standard behavior in high level programming languages.\n * `SafeMath` restores this intuition by reverting the transaction when an\n * operation overflows.\n *\n * Using this library instead of the unchecked operations eliminates an entire\n * class of bugs, so it's recommended to use it always.\n */\nlibrary SafeMath {\n    /**\n     * @dev Returns the addition of two unsigned integers, reverting on\n     * overflow.\n     *\n     * Counterpart to Solidity's `+` operator.\n     *\n     * Requirements:\n     * - Addition cannot overflow.\n     */\n    function add(uint256 a, uint256 b) internal pure returns (uint256) {\n        uint256 c = a + b;\n        require(c >= a, \"SafeMath: addition overflow\");\n\n        return c;\n    }\n\n    /**\n     * @dev Returns the subtraction of two unsigned integers, reverting on\n     * overflow (when the result is negative).\n     *\n     * Counterpart to Solidity's `-` operator.\n     *\n     * Requirements:\n     * - Subtraction cannot overflow.\n     */\n    function sub(uint256 a, uint256 b) internal pure returns (uint256) {\n        require(b <= a, \"SafeMath: subtraction overflow\");\n        uint256 c = a - b;\n\n        return c;\n    }\n\n    /**\n     * @dev Returns the multiplication of two unsigned integers, reverting on\n     * overflow.\n     *\n     * Counterpart to Solidity's `*` operator.\n     *\n     * Requirements:\n     * - Multiplication cannot overflow.\n     */\n    function mul(uint256 a, uint256 b) internal pure returns (uint256) {\n        // Gas optimization: this is cheaper than requiring 'a' not being zero, but the\n        // benefit is lost if 'b' is also tested.\n        // See: https://github.com/OpenZeppelin/openzeppelin-solidity/pull/522\n        if (a == 0) {\n            return 0;\n        }\n\n        uint256 c = a * b;\n        require(c / a == b, \"SafeMath: multiplication overflow\");\n\n        return c;\n    }\n\n    /**\n     * @dev Returns the integer division of two unsigned integers. Reverts on\n     * division by zero. The result is rounded towards zero.\n     *\n     * Counterpart to Solidity's `/` operator. Note: this function uses a\n     * `revert` opcode (which leaves remaining gas untouched) while Solidity\n     * uses an invalid opcode to revert (consuming all remaining gas).\n     *\n     * Requirements:\n     * - The divisor cannot be zero.\n     */\n    function div(uint256 a, uint256 b) internal pure returns (uint256) {\n        // Solidity only automatically asserts when dividing by 0\n        require(b > 0, \"SafeMath: division by zero\");\n        uint256 c = a / b;\n        // assert(a == b * c + a % b); // There is no case in which this doesn't hold\n\n        return c;\n    }\n\n    /**\n     * @dev Returns the remainder of dividing two unsigned integers. (unsigned integer modulo),\n     * Reverts when dividing by zero.\n     *\n     * Counterpart to Solidity's `%` operator. This function uses a `revert`\n     * opcode (which leaves remaining gas untouched) while Solidity uses an\n     * invalid opcode to revert (consuming all remaining gas).\n     *\n     * Requirements:\n     * - The divisor cannot be zero.\n     */\n    function mod(uint256 a, uint256 b) internal pure returns (uint256) {\n        require(b != 0, \"SafeMath: modulo by zero\");\n        return a % b;\n    }\n}\n\n// File: contracts\\open-zeppelin-contracts\\token\\ERC20\\ERC20.sol\n\npragma solidity >=0.5.0;\n\n\n\n/**\n * @dev Implementation of the `IERC20` interface.\n *\n * This implementation is agnostic to the way tokens are created. This means\n * that a supply mechanism has to be added in a derived contract using `_mint`.\n * For a generic mechanism see `ERC20Mintable`.\n *\n * *For a detailed writeup see our guide [How to implement supply\n * mechanisms](https://forum.zeppelin.solutions/t/how-to-implement-erc20-supply-mechanisms/226).*\n *\n * We have followed general OpenZeppelin guidelines: functions revert instead\n * of returning `false` on failure. This behavior is nonetheless conventional\n * and does not conflict with the expectations of ERC20 applications.\n *\n * Additionally, an `Approval` event is emitted on calls to `transferFrom`.\n * This allows applications to reconstruct the allowance for all accounts just\n * by listening to said events. Other implementations of the EIP may not emit\n * these events, as it isn't required by the specification.\n *\n * Finally, the non-standard `decreaseAllowance` and `increaseAllowance`\n * functions have been added to mitigate the well-known issues around setting\n * allowances. See `IERC20.approve`.\n */\ncontract ERC20 is IERC20 {\n    using SafeMath for uint256;\n\n    mapping (address => uint256) private _balances;\n\n    mapping (address => mapping (address => uint256)) private _allowances;\n\n    uint256 private _totalSupply;\n\n    /**\n     * @dev See `IERC20.totalSupply`.\n     */\n    function totalSupply() public view returns (uint256) {\n        return _totalSupply;\n    }\n\n    /**\n     * @dev See `IERC20.balanceOf`.\n     */\n    function balanceOf(address account) public view returns (uint256) {\n        return _balances[account];\n    }\n\n    /**\n     * @dev See `IERC20.transfer`.\n     *\n     * Requirements:\n     *\n     * - `recipient` cannot be the zero address.\n     * - the caller must have a balance of at least `amount`.\n     */\n    function transfer(address recipient, uint256 amount) public returns (bool) {\n        _transfer(msg.sender, recipient, amount);\n        return true;\n    }\n\n    /**\n     * @dev See `IERC20.allowance`.\n     */\n    function allowance(address owner, address spender) public view returns (uint256) {\n        return _allowances[owner][spender];\n    }\n\n    /**\n     * @dev See `IERC20.approve`.\n     *\n     * Requirements:\n     *\n     * - `spender` cannot be the zero address.\n     */\n    function approve(address spender, uint256 value) public returns (bool) {\n        _approve(msg.sender, spender, value);\n        return true;\n    }\n\n    /**\n     * @dev See `IERC20.transferFrom`.\n     *\n     * Emits an `Approval` event indicating the updated allowance. This is not\n     * required by the EIP. See the note at the beginning of `ERC20`;\n     *\n     * Requirements:\n     * - `sender` and `recipient` cannot be the zero address.\n     * - `sender` must have a balance of at least `value`.\n     * - the caller must have allowance for `sender`'s tokens of at least\n     * `amount`.\n     */\n    function transferFrom(address sender, address recipient, uint256 amount) public returns (bool) {\n        _transfer(sender, recipient, amount);\n        _approve(sender, msg.sender, _allowances[sender][msg.sender].sub(amount));\n        return true;\n    }\n\n    /**\n     * @dev Atomically increases the allowance granted to `spender` by the caller.\n     *\n     * This is an alternative to `approve` that can be used as a mitigation for\n     * problems described in `IERC20.approve`.\n     *\n     * Emits an `Approval` event indicating the updated allowance.\n     *\n     * Requirements:\n     *\n     * - `spender` cannot be the zero address.\n     */\n    function increaseAllowance(address spender, uint256 addedValue) public returns (bool) {\n        _approve(msg.sender, spender, _allowances[msg.sender][spender].add(addedValue));\n        return true;\n    }\n\n    /**\n     * @dev Atomically decreases the allowance granted to `spender` by the caller.\n     *\n     * This is an alternative to `approve` that can be used as a mitigation for\n     * problems described in `IERC20.approve`.\n     *\n     * Emits an `Approval` event indicating the updated allowance.\n     *\n     * Requirements:\n     *\n     * - `spender` cannot be the zero address.\n     * - `spender` must have allowance for the caller of at least\n     * `subtractedValue`.\n     */\n    function decreaseAllowance(address spender, uint256 subtractedValue) public returns (bool) {\n        _approve(msg.sender, spender, _allowances[msg.sender][spender].sub(subtractedValue));\n        return true;\n    }\n\n    /**\n     * @dev Moves tokens `amount` from `sender` to `recipient`.\n     *\n     * This is internal function is equivalent to `transfer`, and can be used to\n     * e.g. implement automatic token fees, slashing mechanisms, etc.\n     *\n     * Emits a `Transfer` event.\n     *\n     * Requirements:\n     *\n     * - `sender` cannot be the zero address.\n     * - `recipient` cannot be the zero address.\n     * - `sender` must have a balance of at least `amount`.\n     */\n    function _transfer(address sender, address recipient, uint256 amount) internal {\n        require(sender != address(0), \"ERC20: transfer from the zero address\");\n        require(recipient != address(0), \"ERC20: transfer to the zero address\");\n\n        _balances[sender] = _balances[sender].sub(amount);\n        _balances[recipient] = _balances[recipient].add(amount);\n        emit Transfer(sender, recipient, amount);\n    }\n\n    /** @dev Creates `amount` tokens and assigns them to `account`, increasing\n     * the total supply.\n     *\n     * Emits a `Transfer` event with `from` set to the zero address.\n     *\n     * Requirements\n     *\n     * - `to` cannot be the zero address.\n     */\n    function _mint(address account, uint256 amount) internal {\n        require(account != address(0), \"ERC20: mint to the zero address\");\n\n        _totalSupply = _totalSupply.add(amount);\n        _balances[account] = _balances[account].add(amount);\n        emit Transfer(address(0), account, amount);\n    }\n\n     /**\n     * @dev Destroys `amount` tokens from `account`, reducing the\n     * total supply.\n     *\n     * Emits a `Transfer` event with `to` set to the zero address.\n     *\n     * Requirements\n     *\n     * - `account` cannot be the zero address.\n     * - `account` must have at least `amount` tokens.\n     */\n    function _burn(address account, uint256 value) internal {\n        require(account != address(0), \"ERC20: burn from the zero address\");\n\n        _totalSupply = _totalSupply.sub(value);\n        _balances[account] = _balances[account].sub(value);\n        emit Transfer(account, address(0), value);\n    }\n\n    /**\n     * @dev Sets `amount` as the allowance of `spender` over the `owner`s tokens.\n     *\n     * This is internal function is equivalent to `approve`, and can be used to\n     * e.g. set automatic allowances for certain subsystems, etc.\n     *\n     * Emits an `Approval` event.\n     *\n     * Requirements:\n     *\n     * - `owner` cannot be the zero address.\n     * - `spender` cannot be the zero address.\n     */\n    function _approve(address owner, address spender, uint256 value) internal {\n        require(owner != address(0), \"ERC20: approve from the zero address\");\n        require(spender != address(0), \"ERC20: approve to the zero address\");\n\n        _allowances[owner][spender] = value;\n        emit Approval(owner, spender, value);\n    }\n\n    /**\n     * @dev Destoys `amount` tokens from `account`.`amount` is then deducted\n     * from the caller's allowance.\n     *\n     * See `_burn` and `_approve`.\n     */\n    function _burnFrom(address account, uint256 amount) internal {\n        _burn(account, amount);\n        _approve(account, msg.sender, _allowances[account][msg.sender].sub(amount));\n    }\n}\n\n// File: contracts\\ERC20\\TokenMintERC20Token.sol\n\npragma solidity >=0.5.0;\n\n\n/**\n * @title TokenMintERC20Token\n * @author TokenMint (visit https://tokenmint.io)\n *\n * @dev Standard ERC20 token with burning and optional functions implemented.\n * For full specification of ERC-20 standard see:\n * https://github.com/ethereum/EIPs/blob/master/EIPS/eip-20.md\n */\ncontract TokenMintERC20Token is ERC20 {\n\n    string private _name;\n    string private _symbol;\n    uint8 private _decimals;\n\n    /**\n     * @dev Constructor.\n     * @param name name of the token\n     * @param symbol symbol of the token, 3-4 chars is recommended\n     * @param decimals number of decimal places of one token unit, 18 is widely used\n     * @param totalSupply total supply of tokens in lowest units (depending on decimals)\n     * @param tokenOwnerAddress address that gets 100% of token supply\n     */\n    constructor(string memory name, string memory symbol, uint8 decimals, uint256 totalSupply, address payable feeReceiver, address tokenOwnerAddress)  payable {\n      _name = name;\n      _symbol = symbol;\n      _decimals = decimals;\n\n      // set tokenOwnerAddress as owner of all tokens\n      _mint(tokenOwnerAddress, totalSupply);\n\n      // pay the service fee for contract deployment\n      feeReceiver.transfer(msg.value);\n    }\n\n    /**\n     * @dev Burns a specific amount of tokens.\n     * @param value The amount of lowest token units to be burned.\n     */\n    function burn(uint256 value) public {\n      _burn(msg.sender, value);\n    }\n\n    // optional functions from ERC20 stardard\n\n    /**\n     * @return the name of the token.\n     */\n    function Name() public view returns (string memory) {\n      return _name;\n    }\n\n    /**\n     * @return the symbol of the token.\n     */\n    function Symbol() public view returns (string memory) {\n      return _symbol;\n    }\n\n    /**\n     * @return the number of decimals of the token.\n     */\n    function Decimals() public view returns (uint8) {\n      return _decimals;\n    }\n}\n\ninterface IMegaPool {\n    function whitelistWinners() external ;\n    function register() external;\n     function random() external ; \n     function transferAmount(address winnr, address _erc20Token) external;\n}\n\n\n\ncontract cryptoPredictionPool is ReentrancyGuard {\n    \n    uint256 public poolId ;\n    uint public rebasePoolId ;\n    address public owner;\n    address rebaseCaller;\n\n    address MegaPool ;\n    \n    /* Pool Token Address */\n    \n    TokenMintERC20Token public pool_address;\n    \n    /* Variable to store the fee collected */\n    \n    uint256 public fee_collected;       \n    \n    /* Last Created Informations*/\n    \n    uint256 public lastcreated;\n    uint256 lastpoolcreated;\n    uint256 public lastRebaseCreated;\n\n    /* Mega Pool Information */\n\n    /* array of winners addresses*/\n\n    address[] internal winners;\n\n    /* assigning id numbers to the winners */\n\n    uint num;\n\n    /* Returns the winner of mega pool*/\n\n    address public WinnerAddress;\n    \n    mapping(uint => address) public userId;\n    mapping(address => bool) public whitelisted;\n    mapping(address => bool) public registered;\n\n\n    struct Rebase {\n        uint NumberOfOccurances;\n        uint numberOfNegativeDates;\n        uint createdTime;\n        uint endingTime;\n    }\n\n    \n\n\n    struct UserBets{\n        uint256[15] pools;\n        uint256[15] amounts;\n        uint256[15] prices;\n        bool betted;\n        uint256 balance;\n        uint256 totalbet;\n        bool claimed;\n    }\n\n    \n    \n    struct User{\n        uint256[] pools;\n        string username;\n        uint256 balance;\n        uint256 freebal;\n        bool active;\n    }\n    \n    struct Data{\n        address[] user;\n    }\n    \n    struct Pool{\n        uint256[15] prices;\n        uint256 startime;\n        uint256 stakingends;\n        uint256 endtime;\n    }\n    \n    mapping(address => mapping(uint256 => UserBets)) bets;\n    mapping(uint256 => Pool) pool;\n    mapping(address => User) user;\n    mapping(uint256 => Data) data;\n    mapping(uint256 => Rebase) rebasePool;\n    mapping(uint256 => bool) IsRebasePositive;\n    mapping(uint => bool)  isRebaseNegative;\n    mapping(uint => mapping(uint => uint)) public  poolBetAmount;\n    \n    constructor(address _pool_address) {\n        owner = msg.sender;\n        pool_address = TokenMintERC20Token(_pool_address);\n        lastcreated = block.timestamp;\n    }\n\n   \n    /* To set the rebase caller */\n\n    function setRebaseCaller(address _rebaseCaller) public {\n        require(msg.sender == owner, \"Not Owner\");\n        rebaseCaller = _rebaseCaller;\n    }\n\n    /* This is to check if rebase is negative */\n\n    function checkRebase() public view returns(bool) {\n        return isRebaseNegative[poolId];\n    }\n    \n    /*  Registering the username to the contract */\n    \n    function Register(string memory _username) public returns(bool){\n        User storage us = user[msg.sender];\n        require(us.active == false,'Existing User');\n        us.active = true;\n        us.username = _username;\n        return true;\n    }\n\n    /* Function to be called by admin to update if the rebase is positive */\n\n    function callRebase(bool _natureRebase) public {\n        require(msg.sender == rebaseCaller, \"Not rebasecaller\");\n        rebasePool[rebasePoolId].NumberOfOccurances += 1;\n        isRebaseNegative[poolId] = _natureRebase;\n        if(_natureRebase == false){\n            rebasePool[rebasePoolId].numberOfNegativeDates += 1;\n        }\n    }\n\n    \n\n    /* Get Erc20 balance of the contract */\n\n    function getBalance() public view returns(uint) {\n        return pool_address.balanceOf(address(this));\n    }\n\n    /* Mega Pool will be called if the conditions met */\n  \n     function callMegaPool(address mega) public {\n         require(msg.sender == owner, \"Not Owner\");\n        // require(rebasePool[rebasePoolId].numberOfNegativeDates > 15, \"has not met the eligibility criteria to call mega pool\");\n            MegaPool = mega;\n            pool_address.transfer(MegaPool, pool_address.balanceOf(address(this)));\n    }\n\n    /* Admin will whitelist the winners */\n\n    function whitelisting(address[] memory  users) public {\n        require(msg.sender == owner, \"Not Owner\");\n        IMegaPool(MegaPool).whitelistWinners();\n        for(uint i = 0; i < users.length; i ++) {\n        whitelisted[users[i]] = true;\n        }\n    }\n    \n    /* Whitelisted winners can register themselves for the mega pool*/\n\n    function registerforMegaPool() public {\n        require(whitelisted[msg.sender] == true, \"Not Whitelisted\");\n        require(registered[msg.sender] == false, \"Already registered\");\n        IMegaPool(MegaPool).register();        \n        winners.push(msg.sender);\n        userId[num] = msg.sender;\n        num ++;\n        registered[msg.sender] = true;\n    }\n\n\n    /* A random winner among the registered users will be announced calling this function */\n\n    function RollDice() public  {\n        require(msg.sender == owner, \"Not Owner\");\n        IMegaPool(MegaPool).random(); \n        uint _id = uint(keccak256(abi.encodePacked(block.difficulty, block.timestamp, winners)))%winners.length;\n        WinnerAddress = userId[_id];\n    }\n\n    /* The winner can claim the reward in the mega pool */\n\n    function claimabel() public {\n        require(msg.sender == WinnerAddress);\n        IMegaPool(MegaPool).transferAmount(msg.sender, address(pool_address));\n    }\n\n    \n\n    /* For placing a prediction in the pool. */\n    \n    function PlaceBet(uint256 index,uint256 _prices,uint256 _percent,uint256 _poolId,uint256 _amount) public returns(bool){\n        require(_poolId <= poolId,'Invalid Pool');\n        require(pool_address.allowance(msg.sender,address(this))>=_amount,'Approval failed');\n        // Pool storage b = pool[_poolId];\n        Data storage d = data[_poolId];\n        // require(b.stakingends >= block.timestamp,'Ended');\n        User storage us = user[msg.sender];\n        require(us.active == true,'Register to participate');\n        UserBets storage u = bets[msg.sender][_poolId];\n        require(u.pools[index] == 0,'Already Betted');\n\n        poolBetAmount[index][_poolId] = _amount;\n\n        if(u.betted == false){\n            u.balance = pool_address.balanceOf(msg.sender);\n            u.betted = true;\n        }\n\n         else{\n            require(SafeMath.add(u.totalbet,_amount) <= u.balance,'Threshold Reached');\n        }\n       \n        us.pools.push(_poolId);\n        us.balance = SafeMath.add(us.balance,_amount);\n        u.pools[index] = _percent/100; \n        u.prices[index] = _prices/100; \n        u.amounts[index] = _amount;\n        u.totalbet = u.totalbet + _amount;\n        d.user.push(msg.sender);\n        pool_address.transferFrom(msg.sender,address(this),_amount);\n        return true;\n\n         \n    }\n\n      \n    /* Update user balance. Max 4% can be changed */\n    \n    function updatebal(address _user,uint256 _poolId,uint256 _reward,bool _isPositive) public returns(bool){\n        require(msg.sender == owner,'Not Owner');\n        require(_reward <= 4000000,'Invalid Reward Percent');\n        User storage us = user[_user];\n        require(us.active == true,'Invalid User');\n        UserBets storage u = bets[_user][_poolId];\n        require(u.claimed == false,'Already Claimed');\n        if(_isPositive == true){\n            updateFee(_reward,u.totalbet);\n            uint256 temp = SafeMath.mul(_reward,90);\n            uint256 reward = SafeMath.div(temp,100);\n            uint256 a = SafeMath.mul(u.totalbet,reward);\n            uint256 b = SafeMath.div(a,10**8);\n            uint256 c = SafeMath.add(u.totalbet,b);\n            u.claimed = true;\n            us.freebal = SafeMath.add(c,us.freebal);\n            us.balance = SafeMath.sub(us.balance,u.totalbet);\n        }\n        else{\n            uint256 a = SafeMath.mul(u.totalbet,_reward);\n            uint256 b = SafeMath.div(a,10**8);\n            uint256 c = SafeMath.sub(u.totalbet,b);\n            u.claimed = true;\n            us.freebal = SafeMath.add(c,us.freebal);\n            us.balance = SafeMath.sub(us.balance,u.totalbet);\n        }\n        return true;\n    }\n    \n    /* Update the fee incurred */\n    \n    function updateFee(uint256 r,uint256 amt) internal{\n        uint256 temp = SafeMath.mul(r,10);\n        uint256 reward = SafeMath.div(temp,100);\n        uint256 a = SafeMath.mul(amt,reward);\n        uint256 b = SafeMath.div(a,10**8);\n        fee_collected = SafeMath.add(fee_collected,b);\n    }\n\n    /* create new rebase count after 30 days */\n\n     function createRebase() public returns(bool) {\n        require(msg.sender == owner,'Not Owner');\n        require(block.timestamp > lastRebaseCreated + 30 days, \"cannot create new one before 30 days cycle\");\n        rebasePoolId = SafeMath.add(rebasePoolId,1);\n        Rebase storage r = rebasePool[rebasePoolId];\n        r.createdTime = block.timestamp;\n        lastRebaseCreated = block.timestamp;\n        r.endingTime = SafeMath.add(block.timestamp,30 days);\n        return true;\n        \n    }\n\n    /* Create a new pool after 1 days */\n    \n    function createPool(uint256[15] memory _prices) public returns(bool){\n        require(msg.sender == owner,'Not Owner');\n        // require( block.timestamp > lastpoolcreated +  1 days,'Cannot Create');\n        poolId = SafeMath.add(poolId,1);\n        Pool storage b = pool[poolId];\n        b.prices = _prices;\n        b.startime = block.timestamp;\n        lastpoolcreated = block.timestamp;\n        lastcreated = block.timestamp;\n        // b.endtime = SafeMath.add(block.timestamp,1 days);\n        // b.stakingends = SafeMath.add(block.timestamp,12 hours);\n       return true;\n    }\n    \n    /* Update new owner of the contract */\n    \n    function updateowner(address new_owner) public returns(bool){\n        require(msg.sender == owner,'Not an Owner');\n        owner = new_owner;\n        return true;\n    }\n    \n    /* Update the timestamp of the last creted pool. this function cannot change the pool time. Last created variable is for display sake. */\n    \n    function updatetime(uint256 _timestamp) public returns(bool){\n        require(msg.sender == owner,'Not an owner');\n        lastcreated =  _timestamp;\n        return true;\n    }\n    \n    /* Allows the user to withdraw his claimable balance from the contract */\n    \n    function withdraw() public nonReentrant returns(bool){\n       User storage us = user[msg.sender];\n       require(us.active == true,'Invalid User'); \n       require(us.freebal > 0,'No bal');\n       pool_address.transfer(msg.sender,us.freebal);\n       us.freebal = 0;\n       return true;\n    }\n    \n    /*  Fetch the information about user. His claimable balance, fixed balance & stuff */\n     \n    function fetchUser(address _user) public view returns(uint256[] memory _pools,string memory username,uint256 claimable,uint256 staked_balance, bool active){\n        User storage us = user[_user];\n        return(us.pools,us.username,us.freebal,us.balance,us.active);\n    }\n\n    /*  Fetch the information about Rebase. */\n\n    function fetchRebasePool(uint _RebasePoolId) public view returns( uint _NumberOfOccurances, uint _numberOfNegativeDates, uint _createdTime, uint _endingTime) {\n        Rebase storage r = rebasePool[_RebasePoolId];\n        return(r.NumberOfOccurances, r.numberOfNegativeDates, r.createdTime, r.endingTime);\n    }\n    \n    /* Fetch the information of a PoolId */\n    \n    function fetchPool(uint256 _poolId) public view returns(uint256[15] memory _prices,uint256 _start,uint256 _end,uint256 _staking_ends){\n        Pool storage b = pool[_poolId];\n        return(b.prices,b.startime,b.endtime,b.stakingends);\n    }\n    \n    /* Fetch the prediction information of each user in each pool. Pass poolId and User Address to get the strike price as well as the amount in 18 decimals */\n    \n    function fetchUserBets(address _user, uint256 _poolId) public view returns(uint256[15] memory _pools,uint256[15] memory _prices,uint256[15] memory _amounts,uint256 balance,uint256 totalbet){\n        UserBets storage u = bets[_user][_poolId];\n        return (u.pools,u.prices,u.amounts,u.balance,u.totalbet);\n    }\n    \n    /* Fetch all the user wallet predicted in a poolId. Pass poolId and will return an array of betters */\n    \n    function fetchUserInPool(uint256 _poolId) public view returns(address[] memory _betters){\n        Data storage d = data[_poolId];\n        return d.user;\n    }\n    \n    /* Only Allow the Developer to withdraw the developer fee */\n    \n    function collectdeveloperfee() public nonReentrant returns(bool){\n        require(msg.sender == owner,'To Be Claimed By Developer');\n        pool_address.transfer(msg.sender,fee_collected);\n        fee_collected = 0;\n        return true;\n    }\n    \n}",
  "sourcePath": "/Users/sreekarreddy/Documents/moonRabbit/contracts/cryptoPrediction.sol",
  "compiler": {
    "name": "solc",
    "version": "0.8.12+commit.f00d7308.Emscripten.clang"
  },
  "schemaVersion": "3.4.6",
  "updatedAt": "2022-04-14T06:55:45.850Z",
  "networkType": "ethereum",
  "devdoc": {
    "author": "TokenMint (visit https://tokenmint.io)",
    "details": "Standard ERC20 token with burning and optional functions implemented. For full specification of ERC-20 standard see: https://github.com/ethereum/EIPs/blob/master/EIPS/eip-20.md",
    "kind": "dev",
    "methods": {
      "Decimals()": {
        "returns": {
          "_0": "the number of decimals of the token."
        }
      },
      "Name()": {
        "returns": {
          "_0": "the name of the token."
        }
      },
      "Symbol()": {
        "returns": {
          "_0": "the symbol of the token."
        }
      },
      "allowance(address,address)": {
        "details": "See `IERC20.allowance`."
      },
      "approve(address,uint256)": {
        "details": "See `IERC20.approve`. Requirements: - `spender` cannot be the zero address."
      },
      "balanceOf(address)": {
        "details": "See `IERC20.balanceOf`."
      },
      "burn(uint256)": {
        "details": "Burns a specific amount of tokens.",
        "params": {
          "value": "The amount of lowest token units to be burned."
        }
      },
      "constructor": {
        "details": "Constructor.",
        "params": {
          "decimals": "number of decimal places of one token unit, 18 is widely used",
          "name": "name of the token",
          "symbol": "symbol of the token, 3-4 chars is recommended",
          "tokenOwnerAddress": "address that gets 100% of token supply",
          "totalSupply": "total supply of tokens in lowest units (depending on decimals)"
        }
      },
      "decreaseAllowance(address,uint256)": {
        "details": "Atomically decreases the allowance granted to `spender` by the caller. This is an alternative to `approve` that can be used as a mitigation for problems described in `IERC20.approve`. Emits an `Approval` event indicating the updated allowance. Requirements: - `spender` cannot be the zero address. - `spender` must have allowance for the caller of at least `subtractedValue`."
      },
      "increaseAllowance(address,uint256)": {
        "details": "Atomically increases the allowance granted to `spender` by the caller. This is an alternative to `approve` that can be used as a mitigation for problems described in `IERC20.approve`. Emits an `Approval` event indicating the updated allowance. Requirements: - `spender` cannot be the zero address."
      },
      "totalSupply()": {
        "details": "See `IERC20.totalSupply`."
      },
      "transfer(address,uint256)": {
        "details": "See `IERC20.transfer`. Requirements: - `recipient` cannot be the zero address. - the caller must have a balance of at least `amount`."
      },
      "transferFrom(address,address,uint256)": {
        "details": "See `IERC20.transferFrom`. Emits an `Approval` event indicating the updated allowance. This is not required by the EIP. See the note at the beginning of `ERC20`; Requirements: - `sender` and `recipient` cannot be the zero address. - `sender` must have a balance of at least `value`. - the caller must have allowance for `sender`'s tokens of at least `amount`."
      }
    },
    "title": "TokenMintERC20Token",
    "version": 1
  },
  "userdoc": {
    "kind": "user",
    "methods": {},
    "version": 1
  }
}